S01600002E2F44656275672F5254532D4C61622E73313936
S3152000000000BFDFF814D006F0D0FE01F001FE06F0A6
S31520000010DEBEFEE700BF000000C0012080B500AFB5
S3152000002001214FF4804006F0EBFB00214FF4804085
S3152000003006F0E6FB00BF80BD80B483B000AF034668
S31520000040FB71044AFB79136000BF0C37BD465DF88F
S31520000050047B70470038014080B483B000AF03466C
S31520000060FB71044AFB79136000BF0C37BD465DF86F
S31520000070047B70472000274280B485B000AF03463A
S315200000800A46FB711346BB710023FB60BB7903F064
S3152000009003039B000F2202FA03F3FB60164ABB7987
S315200000A09B08DBB2023352F82320FB68DB4312485D
S315200000B0B9798908C9B21A408B1C40F823200E4A08
S315200000C0BB799B08DBB2023352F82320F979BB793E
S315200000D003F003039B0001FA03F30748B979890863
S315200000E0C9B21A438B1C40F8232000BF1437BD46E3
S315200000F05DF8047B704700BF0038014080B483B0B0
S3152000010000AF7860044A7B68136000BF0C37BD4699
S315200001105DF8047B704700BFDC00274280B483B0C3
S3152000012000AF0346FB71044AFB79136000BF0C370E
S31520000130BD465DF8047B70470004274280B483B037
S3152000014000AF0023FB71094B1B6A03F48073002B5D
S3152000015002D00123FB7101E00023FB71FB791846D5
S315200001600C37BD465DF8047B704700BF0038014060
S3152000017080B400AF094B00221A60084B00225A6057
S31520000180064B00229A60054B0022DA60034B044A94
S315200001905A6100BFBD465DF8047B7047003C0140B4
S315200001A0FFFF7F0080B485B000AF78600023FB603E
S315200001B0344BFB607B689B79002B4FD0314B1A6800
S315200001C07B681B68DB432F4913400B602D4B5A6815
S315200001D07B681B68DB432B4913404B607B681B798C
S315200001E01A46FB681344FB60FB6819687B681A682B
S315200001F0FB680A431A60234B9A687B681B68DB43BB
S31520000200204913408B601F4BDA687B681B68DB43F1
S315200002101C491340CB607B685B79102B0ED1194BA0
S315200002209A687B681B68174913438B60154BDA68FD
S315200002307B681B6813491343CB601DE0114BFB60A1
S315200002407B685B791A46FB681344FB60FB68196878
S315200002507B681A68FB680A431A600DE07B681B7985
S315200002601A46FB681344FB60FB6819687B681B68A9
S31520000270DA43FB680A401A6000BF1437BD465DF8B2
S31520000280047B7047003C014080B483B000AF7860A7
S315200002907B6800221A607B6800221A717B680C2218
S315200002A05A717B6800229A7100BF0C37BD465DF8F3
S315200002B0047B704780B483B000AF7860054B1A6921
S315200002C004497B6813430B6100BF0C37BD465DF8BC
S315200002D0047B7047003C014080B485B000AF786055
S315200002E00023FB73084B5A697B681340002B02D00E
S315200002F00123FB7301E00023FB73FB7B18461437B5
S31520000300BD465DF8047B7047003C014080B483B055
S3152000031000AF7860044A7B68536100BF0C37BD4646
S315200003205DF8047B704700BF003C014080B485B077
S3152000033000AF78600023FB73084B5A697B68134033
S31520000340002B02D00123FB7301E00023FB73FB7B10
S3152000035018461437BD465DF8047B7047003C0140C3
S3152000036080B483B000AF7860044A7B68536100BFD5
S315200003700C37BD465DF8047B704700BF003C01404A
S3152000038080B582B000AF78607B680E4A93420AD16E
S3152000039001214FF0007006F013FA00214FF0007093
S315200003A006F00EFA09E001214FF0806006F008FA07
S315200003B000214FF0806006F003FA00BF0837BD46E3
S315200003C080BD00BF0064004080B485B000AF786077
S315200003D039600023FB730023BB607B681B6823F016
S315200003E002027B681A607B681B6843F001027B6807
S315200003F01A6002E0BB680133BB607B685B6803F070
S315200004000103012B04D0BB684FF6FF729342F1D152
S315200004107B685B6803F00103012B02D00023FB738A
S315200004209CE03B689B79012B06D17B681B6843F0D7
S3152000043080027B681A6005E07B681B6823F08002D7
S315200004407B681A603B68DB79012B06D17B681B68C9
S3152000045043F040027B681A6005E07B681B6823F046
S3152000046040027B681A603B681B7A012B06D17B68A9
S315200004701B6843F020027B681A6005E07B681B68D6
S3152000048023F020027B681A603B685B7A012B06D139
S315200004907B681B6843F010027B681A6005E07B6866
S315200004A01B6823F010027B681A603B689B7A012B3D
S315200004B006D17B681B6843F008027B681A6005E05A
S315200004C07B681B6823F008027B681A603B68DB7A2E
S315200004D0012B06D17B681B6843F004027B681A60F7
S315200004E005E07B681B6823F004027B681A603B6882
S315200004F09B789A073B68DB781B061A433B681B7977
S315200005001B041A433B685B791B051A433B681B880F
S31520000510013B1A437B68DA617B681B6823F0010282
S315200005207B681A600023BB6002E0BB680133BB60B6
S315200005307B685B6803F00103012B04D1BB684FF68F
S31520000540FF729342F1D17B685B6803F00103012BB4
S3152000055002D10023FB7301E00123FB73FB7B1846CA
S315200005601437BD465DF8047B704790B484B000AF65
S3152000057078600023FB607B689B7A1A4601239340B0
S31520000580FB605A4BD3F80032584A43F00103C2F8B5
S315200005900032564BD3F81C22FB68DB4353491340E9
S315200005A0C1F81C327B681B7B002B29D14F4BD3F81B
S315200005B00C22FB68DB434D491340C1F80C327B68A3
S315200005C0DB881B047A685288144648497A68927AEE
S315200005D0104643EA040200F1480341F833207B68C1
S315200005E09B881B047A681288144640497A68927A56
S315200005F0104643EA040200F14803DB000B445A602C
S315200006007B681B7B012B28D1384BD3F80C2237492A
S31520000610FB681343C1F80C327B681B881B047A687D
S315200006205288144631497A68927A104643EA04027F
S3152000063000F1480341F833207B689B881B047A68C5
S31520000640D288144629497A68927A104643EA0402E7
S3152000065000F14803DB000B445A607B68DB7A002BF1
S3152000066009D1224BD3F80422FB68DB431F491340F0
S31520000670C1F8043207E01D4BD3F804221B49FB685E
S315200006801343C1F804327B681B89002B08D1174B12
S31520000690D3F81422FB68DB4314491340C1F8143203
S315200006A07B681B89012B07D1104BD3F814220F49E5
S315200006B0FB681343C1F814327B685B7B012B07D19F
S315200006C00A4BD3F81C220949FB681343C1F81C3294
S315200006D0064BD3F80032054A23F00103C2F8003254
S315200006E000BF1037BD4690BC704700BF0064004075
S315200006F080B483B000AF78607B6800229A717B68F3
S315200007000022DA717B6800221A727B6800225A72F4
S315200007107B6800229A727B680022DA727B6800224C
S315200007209A707B680022DA707B6803221A717B68D4
S3152000073002225A717B6801221A8000BF0C37BD46FF
S315200007405DF8047B704780B483B000AF0346FB712D
S31520000750144BD3F80032134A43F00103C2F8003297
S31520000760104BD3F800320F4A23F47C5323F00E03A8
S31520000770C2F800320B4BD3F80022FB791B02094941
S315200007801343C1F80032074BD3F80032054A23F051
S315200007900103C2F8003200BF0C37BD465DF8047B6A
S315200007A0704700BF0064004080B483B000AF78601B
S315200007B00B46FB70FB78002B06D07B681B6843F446
S315200007C080327B681A6005E07B681B6823F48032E0
S315200007D07B681A6000BF0C37BD465DF8047B704706
S315200007E080B483B000AF78600B46FB70FB78002B9B
S315200007F01ED07B681B6843F080027B681A607B688A
S31520000800D3F8843143F480727B68C3F884217B68F3
S31520000810D3F8943143F480727B68C3F894217B68C3
S31520000820D3F8A43143F480727B68C3F8A4211DE079
S315200008307B681B6823F080027B681A607B68D3F88C
S31520000840843123F480727B68C3F884217B68D3F8D3
S31520000850943123F480727B68C3F894217B68D3F8A3
S31520000860A43123F480727B68C3F8A42100BF0C371F
S31520000870BD465DF8047B704780B485B000AF7860D4
S3152000088039600023FB737B689B6803F08063B3F1B8
S31520000890806F02D10023FB7315E07B689B6803F011
S315200008A00063B3F1006F02D10123FB730BE07B6879
S315200008B09B6803F08053B3F1805F02D10223FB7360
S315200008C001E00423FB73FB7B042B00F09F80FB7B62
S315200008D07A6818331B0113441A68FB7B02F0010265
S315200008E0796818331B010B441A603B681B7A002B6E
S315200008F013D1FB7B7A6818331B01134419683B68B4
S315200009001B685B053A68527A1A43FB7B0A4379686F
S3152000091018331B010B441A6015E0FB7B7A681833E9
S315200009201B01134419683B685B68DB003A68127A3E
S3152000093013433A68527A1A43FB7B0A437968183381
S315200009401B010B441A603B689B7A03F00F03DAB253
S315200009503B689A72FB7B7A6818331B011344043375
S315200009601A68FB7B22F00F02796818331B010B44AF
S3152000097004331A60FB7B7A6818331B011344043353
S315200009801A683B689B7A1946FB7B0A4379681833B9
S315200009901B010B4404331A603B689B7B1A063B6899
S315200009A05B7B1B041A433B681B7B1B021A433B6879
S315200009B0DB7A1946FB7B0A4379681B010B4403F556
S315200009C0C4731A603B689B7C1A063B685B7C1B04DD
S315200009D01A433B681B7C1B021A433B68DB7B194688
S315200009E0FB7B0A4379681B010B4403F5C6731A6027
S315200009F0FB7B7A6818331B0113441A68FB7B42F091
S31520000A000102796818331B010B441A60FB7B1846D8
S31520000A101437BD465DF8047B704780B485B000AFBF
S31520000A2078600B46FB700023FB60FB78012B09D016
S31520000A30022B0DD0002B11D17B689A68264B1340D0
S31520000A40FB600EE07B689A68244B1340FB6008E04D
S31520000A507B689A68224B1340FB6002E00023FB6010
S31520000A6000BFFB681F4A93421BD01E4A934208D8F8
S31520000A701D4A934212D0184A934218D0002B0AD00E
S31520000A801EE01A4A93420FD0154A934215D0134AB4
S31520000A9093420FD014E00223FB6014E00023FB6096
S31520000AA011E00023FB600EE00023FB600BE0012336
S31520000AB0FB6008E00123FB6005E00123FB6002E008
S31520000AC00023FB6000BFFB68DBB218461437BD4627
S31520000AD05DF8047B704700BF030000040003000894
S31520000AE000000310000100080100000400000110AE
S31520000AF080B483B000AF78600B46FB70FB78012B87
S31520000B000BD0022B10D0002B00D014E07B689B6802
S31520000B1043F080027B689A600DE07B689B6843F413
S31520000B2000427B689A6006E07B689B6843F400027B
S31520000B307B689A6000BF00BF0C37BD465DF8047B1A
S31520000B40704780B485B000AFF8600B467A60FB72C0
S31520000B50FB7AFA681B331B0113441B68DBB203F0D4
S31520000B600403DAB27B681A727B681B7A002B0BD1DE
S31520000B70FB7AFA681B331B0113441B685B0DC3F316
S31520000B800A027B681A600AE0FB7AFA681B331B01AB
S31520000B9013441B68DB0823F060427B685A60FB7AAB
S31520000BA0FA681B331B0113441B68DBB203F00203F4
S31520000BB0DAB27B685A72FB7AFA681B331B0113443C
S31520000BC004331B68DBB203F00F03DAB27B689A7238
S31520000BD0FB7AFA681B331B01134404331B681B0A78
S31520000BE0DAB27B68DA74FB7AFA681B01134403F5E0
S31520000BF0DC731B68DAB27B68DA72FB7AFA681B014F
S31520000C00134403F5DC731B681B0ADAB27B681A737C
S31520000C10FB7AFA681B01134403F5DC731B681B0C73
S31520000C20DAB27B685A73FB7AFA681B01134403F520
S31520000C30DC731B681B0EDAB27B689A73FB7AFA6840
S31520000C401B01134403F5DE731B68DAB27B68DA7383
S31520000C50FB7AFA681B01134403F5DE731B681B0A33
S31520000C60DAB27B681A74FB7AFA681B01134403F51F
S31520000C70DE731B681B0CDAB27B685A74FB7AFA683F
S31520000C801B01134403F5DE731B681B0EDAB27B6867
S31520000C909A74FB7A002B06D1FB68DB6843F02002AE
S31520000CA0FB68DA6005E0FB681B6943F02002FB68FD
S31520000CB01A6100BF1437BD465DF8047B704780B4C7
S31520000CC083B000AF78600B46FB70FB78002B06D113
S31520000CD07B68DB6843F020027B68DA6005E07B688E
S31520000CE01B6943F020027B681A6100BF0C37BD46A2
S31520000CF05DF8047B704780B485B000AF78600B4602
S31520000D00FB700023FB73FB78002B06D17B68DB6826
S31520000D10DBB203F00303FB730BE0FB78012B06D158
S31520000D207B681B69DBB203F00303FB7301E000233E
S31520000D30FB73FB7B18461437BD465DF8047B704772
S31520000D4080B485B000AF78600B46FB700023FB7340
S31520000D504FF6FF73BB60FB78002B20D17B681B68A6
S31520000D6023F0030343F001027B681A6002E0BB68AC
S31520000D70013BBB607B685B6803F00303012B02D059
S31520000D80BB68002BF3D17B685B6803F00303012B60
S31520000D9002D00023FB734AE00123FB7347E0FB7874
S31520000DA0012B1ED17B681B6823F003027B681A6027
S31520000DB002E0BB68013BBB607B685B6803F0030312
S31520000DC0002B02D0BB68002BF3D17B685B6803F055
S31520000DD00303002B02D00023FB7328E00123FB73BF
S31520000DE025E0FB78022B20D17B681B6823F00303C8
S31520000DF043F002027B681A6002E0BB68013BBB60DD
S31520000E007B685B6803F00303022B02D0BB68002BD0
S31520000E10F3D17B685B6803F00303022B02D0002327
S31520000E20FB7304E00123FB7301E00023FB73FB7BD0
S31520000E3018461437BD465DF8047B704780B485B0EC
S31520000E4000AF78600023FB737B681B6823F00303E5
S31520000E5043F002027B681A607B685B6803F0030339
S31520000E60022B01D10123FB73FB7B18461437BD46A9
S31520000E705DF8047B704780B485B000AF78604FF68C
S31520000E80FF73FB600023FB727B681B6823F0020262
S31520000E907B681A6002E0FB68013BFB607B685B684D
S31520000EA003F00203022B02D1FB68002BF3D17B68EF
S31520000EB05B6803F00203022B01D00123FB72FB7A4D
S31520000EC018461437BD465DF8047B704780B485B05C
S31520000ED000AF78600023FB737B689B69DBB203F06D
S31520000EE07003FB73FB7B18461437BD465DF8047B05
S31520000EF0704780B485B000AF78600023FB737B68B1
S31520000F009B691B0EFB73FB7B18461437BD465DF8A9
S31520000F10047B704780B485B000AF78600023FB73F4
S31520000F207B689B691B0CFB73FB7B18461437BD46FD
S31520000F305DF8047B704780B485B000AFF860B96077
S31520000F401346FB71FB79002B06D0FB685A69BB68F8
S31520000F501A43FB685A6106E0FB685A69BB68DB43A3
S31520000F601A40FB685A6100BF1437BD465DF8047B02
S31520000F70704780B485B000AF786039600023FB737A
S31520000F803B6803F47003002B0DD07B689A693B689D
S31520000F901340C3F31303002B02D00123FB7348E055
S31520000FA00023FB7345E03B6803F08073002B0DD0D4
S31520000FB07B685A683B681340C3F31303002B02D0A7
S31520000FC00123FB7335E00023FB7332E03B6803F01B
S31520000FD00063002B0DD07B689A683B681340C3F3EF
S31520000FE01303002B02D00123FB7322E00023FB73A3
S31520000FF01FE03B6803F00073002B0DD07B68DA6896
S315200010003B681340C3F31303002B02D00123FB7369
S315200010100FE00023FB730CE07B681A693B681340E2
S31520001020C3F31303002B02D00123FB7301E000233B
S31520001030FB73FB7B18461437BD465DF8047B70476F
S3152000104080B485B000AF786039600023FB603B68D0
S31520001050174A934203D17B6800229A6121E03B68BC
S31520001060C3F31303FB603B6803F00073002B03D02C
S315200010707B68FA68DA6014E03B6803F08063002B33
S3152000108003D07B68FA681A610BE03B6803F00063C3
S31520001090002B03D07B68FA689A6002E07B68FA68C6
S315200010A05A6000BF1437BD465DF8047B704700BF09
S315200010B07000F03080B584B000AF786039600023CE
S315200010C0FB737B685A693B681340002B00F0B280A3
S315200010D03B68402B62D0402B0FD8042B3AD0042BF0
S315200010E004D8012B24D0022B2BD09FE0102B43D0E9
S315200010F0202B4AD0082B36D098E0B3F5006F00F0AD
S315200011008380B3F5006F09D8B3F5007F6AD0B3F5B5
S31520001110806F70D0B3F5807F5BD087E0B3F5803FDA
S3152000112045D0B3F5003F4BD0B3F5004F75D07DE0E9
S315200011307B689B684349184600F0F6F80346FB7324
S315200011407AE07B68DB680321184600F0EDF8034659
S31520001150FB7371E07B68DB680821184600F0E4F831
S315200011600346FB7368E07B68DB681021184600F0B5
S31520001170DBF80346FB735FE07B681B690321184697
S3152000118000F0D2F80346FB7356E07B681B69082102
S31520001190184600F0C9F80346FB734DE07B681B69CF
S315200011A01021184600F0C0F80346FB7344E07B6824
S315200011B05B680821184600F0B7F80346FB733BE04E
S315200011C07B685B681021184600F0AEF80346FB7377
S315200011D032E07B689B690121184600F0A5F803469A
S315200011E0FB7329E07B689B690221184600F09CF876
S315200011F00346FB7320E07B689B690421184600F0B8
S3152000120093F80346FB7317E07B689B6970211846A9
S3152000121000F08AF80346FB730EE07B685B680421C6
S31520001220184600F081F80346FB7305E00023FB73A4
S3152000123000BF01E00023FB73FB7B18461037BD4639
S3152000124080BD00BF0101010080B483B000AF78608B
S3152000125039603B68B3F5807F43D0B3F5807F0DD8E6
S31520001260082B2AD0082B04D8012B1ED0042B20D0E3
S3152000127051E0202B25D0402B27D04CE0B3F5006F32
S315200012803BD0B3F5006F06D8B3F5007F2DD0B3F56C
S31520001290806F2ED03FE0B3F5803F1AD0B3F5003FE4
S315200012A01BD0B3F5004F2FD035E07B681D4A9A60DE
S315200012B031E07B680822DA602DE07B681022DA6054
S315200012C029E07B6808221A6125E07B6810221A61D2
S315200012D021E07B6808225A601DE07B6810225A6054
S315200012E019E07B6804225A6015E07B6804225A6064
S315200012F011E07B6804225A600DE07B6800229A6127
S315200013007B6804225A6006E07B6800229A617B682B
S3152000131004225A6000BF00BF0C37BD465DF8047B2F
S31520001320704700BF0101010080B485B000AF78602E
S3152000133039600023FB737A683B681340002B02D088
S315200013400123FB7301E00023FB73FB7B1846143754
S31520001350BD465DF8047B704780B582B000AF7860EB
S315200013607B684B4A934208D10121012005F0C8F938
S315200013700021012005F0C4F986E07B68454A9342A6
S3152000138008D10121022005F0BBF90021022005F039
S31520001390B7F979E07B68404A934208D101210420BD
S315200013A005F0AEF90021042005F0AAF96CE07B686F
S315200013B03A4A934208D10121082005F0A1F90021DB
S315200013C0082005F09DF95FE07B68354A934208D1F5
S315200013D00121102005F094F90021102005F090F944
S315200013E052E07B682F4A934208D10121202005F044
S315200013F087F90021202005F083F945E07B682A4AF9
S31520001400934208D10121402005F07AF9002140209D
S3152000141005F076F938E07B68244A934208D1012109
S31520001420802005F06DF90021802005F069F92BE078
S315200014307B681F4A93420AD101214FF4807005F040
S315200014405FF900214FF4807005F05AF91CE07B68A3
S31520001450184A93420AD101214FF4007005F050F941
S3152000146000214FF4007005F04BF90DE07B68124A1D
S31520001470934209D101214FF4806005F041F9002102
S315200014804FF4806005F03CF900BF0837BD4680BDAB
S31520001490000002400004024000080240000C024006
S315200014A0001002400014024000180240001C0240B6
S315200014B000200240002402400028024080B487B069
S315200014C000AF7860396000237B6100233B610023F5
S315200014D0FB6000237B6176E001227B6902FA03F33D
S315200014E03B613B681B683A691340FB60FA683B69BD
S315200014F09A4265D17B681A687B695B00032101FAF1
S3152000150003F3DB431A407B681A607B681A683B68E2
S315200015101B7919467B695B0001FA03F31A437B6842
S315200015201A603B681B79012B03D03B681B79022B81
S315200015302ED17B689A687B695B00032101FA03F34D
S31520001540DB431A407B689A607B689A683B685B79C4
S3152000155019467B695B0001FA03F31A437B689A609C
S315200015607B685A687B699BB2194601238B40DB4313
S315200015701A407B685A607B685B683A6892791146A4
S315200015807A6992B201FA02F292B21A437B685A60E1
S315200015907B68DA687B699BB25B00032101FA03F35F
S315200015A0DB431A407B68DA607B68DA683B68DB7964
S315200015B019467B695B0001FA03F31A437B68DA60FC
S315200015C07B6901337B617B690F2B85D900BF1C3773
S315200015D0BD465DF8047B704780B483B000AF786069
S315200015E07B684FF6FF721A607B6800221A717B684F
S315200015F000225A717B6800229A717B680022DA7178
S3152000160000BF0C37BD465DF8047B704780B485B0BB
S3152000161000AF78600B467B804FF48033FB607A887E
S31520001620FB681343FB60FA687B68DA617A887B681B
S31520001630DA61FA687B68DA617B68DB69FB607B6864
S31520001640DB69FB6000BF1437BD465DF8047B70473D
S3152000165080B485B000AF78600B467B800023FB7397
S315200016607B681A697B881340002B02D00123FB7309
S3152000167001E00023FB73FB7B18461437BD465DF85B
S31520001680047B704780B483B000AF78607B681B69A9
S315200016909BB218460C37BD465DF8047B704780B474
S315200016A085B000AF78600B467B800023FB737B6898
S315200016B05A697B881340002B02D00123FB7301E07B
S315200016C00023FB73FB7B18461437BD465DF8047B6D
S315200016D0704780B483B000AF78607B685B699BB24B
S315200016E018460C37BD465DF8047B704780B483B03E
S315200016F000AF78600B467B807B687A881A8300BFB0
S315200017000C37BD465DF8047B704780B483B000AFCC
S3152000171078600B467B807B687A885A8300BF0C37BB
S31520001720BD465DF8047B704780B483B000AF786017
S315200017300B467B8013467B707B78002B03D07B681F
S315200017407A881A8302E07B687A885A8300BF0C372E
S31520001750BD465DF8047B704780B483B000AF7860E7
S315200017600B467B807A887B685A6100BF0C37BD4662
S315200017705DF8047B704780B483B000AF78600B4679
S315200017807B807B685A697B885A407B685A6100BF98
S315200017900C37BD465DF8047B704780B485B000AF3A
S315200017A078600B467B8013467B700023FB6000230A
S315200017B0BB607A787B8803F007039B0002FA03F369
S315200017C0FB607B88DB089BB21A467B68083253F89D
S315200017D022207B8803F007039B000F2101FA03F3E5
S315200017E0DB437988C90889B2084602EA03017B6887
S315200017F000F1080243F822107B88DB089BB21A46C8
S315200018007B68083253F82230FA681343BB607B8822
S31520001810DB089BB21A467B680832B96843F8221067
S3152000182000BF1437BD465DF8047B7047314900E0A0
S315200018303149EFF3088020ED108A7246EFF31183C9
S3152000184020E9FC0F2D4FD7F80080C8F800001EE0D5
S31520001850084603F065F92A4803F062F9294803F09F
S315200018605FF9D8F8040003F0A5F9274803F058F9E2
S31520001870D8F8000003F070F9244803F051F9D8F89D
S315200018800000006803F068F91D4803F049F9DFF805
S315200018908080D8F80080C7F8008018E01D4803F043
S315200018A03FF9D8F8040003F085F91B4803F038F90E
S315200018B0D8F8000003F050F9144803F031F9D8F8AD
S315200018C00000006803F048F90D4803F029F9134A8F
S315200018D0536843F00063536000BFD8F80000B0E8B7
S315200018E0FC0F83F311889646B0EC108A80F30888A3
S315200018F0704700008C8200209D820020BC89002039
S315200019000D830020BE820020D6820020DE820020A9
S31520001910D48B0020E7820020FC82002000ED00E02E
S3152000192080B483B000AF786039607B683A689A608B
S3152000193000BF0C37BD465DF8047B704780B586B086
S3152000194000AF7860396007F10C031A460A490B4844
S3152000195003F0BCFD0A4B1A460A490B4803F0B6FDB4
S3152000196007F10C0303331A460649074803F0AEFD78
S3152000197000BF1837BD4680BDA95C00201089002015
S31520001980C87F002033490020F084002080B584B031
S3152000199000AF78603960424B1A464249424803F00C
S315200019A095FD3A684149404803F090FD404B1A4660
S315200019B03C493D4803F08AFD3B68643B092B5CD8D3
S315200019C001A252F823F000BFFF1900202F1A002091
S315200019D07B1A00207B1A00207B1A0020F119002098
S315200019E07B1A00207B1A00207B1A00200D1A00206B
S315200019F0304802F005FA7B680022DA624CE02D4876
S31520001A0002F00EFA7B680022DA6245E0294802F0ED
S31520001A1033FA0346002B03D0264802F01FFA02E0D1
S31520001A20244802F00DFA7B680022DA6234E07B68F3
S31520001A30DB6A7A68134400221A737B680022DA6212
S31520001A407B680C330133184605F052FCF8607B683E
S31520001A501B7B6B2B06D17B689B68F968184602F0C6
S31520001A6045F918E07B681B7B742B14D17B689B6837
S31520001A70F968184602F076F90DE07B68DB6A3A6869
S31520001A80D1B27A6813440A461A737B68DB6A5A1CF9
S31520001A907B68DA6200E000BF00BF1037BD4680BD1C
S31520001AA0DC7F002033490020F08400208749002075
S31520001AB0E47F00204883002090B585B000AF786091
S31520001AC039607B681B6B002B0BD17B6801221A6364
S31520001AD003F01AFE02467B685A63214803F0D6FDBE
S31520001AE039E01F4803F0F0FD044603F00DFE0346DF
S31520001AF0E2187B685B6BD31AFB60FB6844F62062B6
S31520001B00934228DD7B6803F10C00FA68154B83FBB2
S31520001B1002135913D317CB1A134901FB03F3D31A14
S31520001B20124A82FB03125211DB17D31A104A1E21C6
S31520001B3005F016FC7B680C331A460E490E4803F056
S31520001B40C5FC074803F0C0FD044603F0DDFD03464F
S31520001B50E2187B685A6300BF1437BD4690BD00BFAC
S31520001B60A08B002089B5F814A08601001F85EB51B3
S31520001B70E87F002033490020F084002080B586B01D
S31520001B8000AF7860396000221849194803F09EFC9E
S31520001B9000221849184803F099FC002217491848D2
S31520001BA003F094FC174B1A461749134803F08EFC92
S31520001BB001233B7301237B730623BB734823FB73EB
S31520001BC065233B746C237B746C23BB746F23FB747B
S31520001BD000233B7507F10C031A460C49044803F011
S31520001BE075FC00BF1837BD4680BD00BF695A00206E
S31520001BF0108900208D480020F08400201D39002007
S31520001C00888900200480002033490020735D00204D
S31520001C1080B500AF0F491048FFF782FE0F490D48E7
S31520001C2002F056F800220E490E4803F043FE012228
S31520001C300D490E4803F03EFE02220D490D4803F0E1
S31520001C4039FE00220C49044803F098FE002318466A
S31520001C5080BD00BF4883002010830020D48400204C
S31520001C60BD490020F0840020215B0020108900203F
S31520001C70AD390020888900207D1B002080B582B0E8
S31520001C8000AF78607B68604A934208D10121012029
S31520001C9004F0B6FD0021012004F0B2FDAFE07B6820
S31520001CA0B3F1804F08D10121012004F089FD0021E4
S31520001CB0012004F085FDA2E07B68544A934208D1B6
S31520001CC00121022004F07CFD0021022004F078FD91
S31520001CD095E07B684E4A934208D10121042004F006
S31520001CE06FFD0021042004F06BFD88E07B68494AE3
S31520001CF0934208D10121082004F062FD002108202A
S31520001D0004F05EFD7BE07B68434A934208D10121C3
S31520001D10102004F055FD0021102004F051FD6EE046
S31520001D207B683E4A934208D10121202004F048FDD9
S31520001D300021202004F044FD61E07B68384A93426C
S31520001D4008D10121022004F05BFD0021022004F0CD
S31520001D5057FD54E07B68334A93420AD101214FF460
S31520001D60803004F04DFD00214FF4803004F048FD12
S31520001D7045E07B682C4A93420AD101214FF400307A
S31520001D8004F03EFD00214FF4003004F039FD36E02A
S31520001D907B68264A93420AD101214FF4802004F021
S31520001DA02FFD00214FF4802004F02AFD27E07B68D8
S31520001DB01F4A934208D10121402004F001FD002151
S31520001DC0402004F0FDFC1AE07B681A4A934208D1B1
S31520001DD00121802004F0F4FC0021802004F0F0FC96
S31520001DE00DE07B68144A934209D101214FF480709B
S31520001DF004F0E6FC00214FF4807004F0E1FC00BF03
S31520001E000837BD4680BD00BF0000014000040040E9
S31520001E1000080040000C0040001000400014004064
S31520001E2000040140004001400044014000480140B8
S31520001E3000180040001C00400020004080B485B0FF
S31520001E4000AF786039600023FB817B681B88FB81AB
S31520001E507B68294A934213D07B68284A93420FD045
S31520001E607B68B3F1804F0BD07B68254A934207D01D
S31520001E707B68244A934203D07B68234A934208D145
S31520001E80FB8923F07003FB813B685A88FB89134347
S31520001E90FB817B681D4A93420CD07B681C4A934287
S31520001EA008D0FB8923F44073FB813B681A89FB89A0
S31520001EB01343FB817B68FA891A803B685A687B68E2
S31520001EC0DA623B681A887B681A857B680A4A9342DD
S31520001ED003D07B68094A934204D13B689B7A9AB225
S31520001EE07B681A867B6801229A8200BF1437BD461A
S31520001EF05DF8047B704700BF0000014000040140EC
S31520001F000004004000080040000C00400010004083
S31520001F100014004080B483B000AF78607B684FF037
S31520001F20FF325A607B6800221A807B6800221A8161
S31520001F307B6800225A807B6800229A7200BF0C3789
S31520001F40BD465DF8047B704780B483B000AF7860EF
S31520001F500B467B8013463B807B687A881A857B6894
S31520001F603A889A8200BF0C37BD465DF8047B7047DD
S31520001F7080B485B000AF78600B467B800023FB8160
S31520001F807B681B88FB81FB8923F07003FB81FA8920
S31520001F907B881343FB817B68FA891A8000BF14373C
S31520001FA0BD465DF8047B704780B483B000AF78608F
S31520001FB039607B683A685A6200BF0C37BD465DF8C7
S31520001FC0047B704780B483B000AF786039607B684B
S31520001FD03A68DA6200BF0C37BD465DF8047B70476D
S31520001FE080B483B000AF78607B685B6A18460C3794
S31520001FF0BD465DF8047B704780B483B000AF78603F
S315200020007B681B8D9BB218460C37BD465DF8047B5A
S31520002010704780B483B000AF78600B46FB70FB78C6
S31520002020002B08D07B681B889BB243F002039AB230
S315200020307B681A8007E07B681B889BB223F002032B
S315200020409AB27B681A8000BF0C37BD465DF8047BC8
S31520002050704780B483B000AF78600B467B807B8866
S31520002060002B08D07B681B889BB243F004039AB2EE
S315200020707B681A8007E07B681B889BB223F00403E9
S315200020809AB27B681A8000BF0C37BD465DF8047B88
S31520002090704780B483B000AF78600B46FB70FB7846
S315200020A0002B08D07B681B889BB243F080039AB232
S315200020B07B681A8007E07B681B889BB223F080032D
S315200020C09AB27B681A8000BF0C37BD465DF8047B48
S315200020D0704780B483B000AF78600B467B807B6806
S315200020E01B889BB223F008039AB27B681A807B6810
S315200020F01B889AB27B8813439AB27B681A8000BFEA
S315200021000C37BD465DF8047B704780B483B000AFC2
S3152000211078600B467B807B681B889BB223F44073D8
S315200021209AB27B681A807B681B889AB27B88134395
S315200021309AB27B681A8000BF0C37BD465DF8047BD7
S31520002140704780B483B000AF78600B46FB70FB7895
S31520002150002B08D07B681B889BB243F001039AB200
S315200021607B681A8007E07B681B889BB223F00103FB
S315200021709AB27B681A8000BF0C37BD465DF8047B97
S31520002180704780B485B000AF7860396000237B81CA
S315200021900023FB810023BB817B681B8C9BB223F031
S315200021A001039AB27B681A847B681B8CFB817B684F
S315200021B09B88BB817B681B8B7B817B8923F070038B
S315200021C07B817B8923F003037B813B681A887B898B
S315200021D013437B81FB8923F00203FB813B689A89A9
S315200021E0FB891343FB813B685A88FB891343FB8198
S315200021F07B681F4A934203D07B681E4A934223D1B1
S31520002200FB8923F00803FB813B68DA89FB891343AA
S31520002210FB81FB8923F00403FB813B689A88FB89B9
S315200022201343FB81BB8923F48073BB81BB8923F4D1
S315200022300073BB813B681A8ABB891343BB813B6809
S315200022405A8ABB891343BB817B68BA899A807B688B
S315200022507A891A833B689A687B685A637B68FA890D
S315200022601A8400BF1437BD465DF8047B704700BF53
S31520002270000001400004014080B485B000AF7860C2
S31520002280396000237B810023FB810023BB817B688F
S315200022901B8C9BB223F010039AB27B681A847B684E
S315200022A01B8CFB817B689B88BB817B681B8B7B811E
S315200022B07B8923F4E0437B817B8923F440737B81F4
S315200022C03B681B881B029AB27B8913437B81FB895F
S315200022D023F02003FB813B689B891B019AB2FB8973
S315200022E01343FB813B685B881B019AB2FB8913432E
S315200022F0FB817B68224A934203D07B68214A934222
S315200023002BD1FB8923F08003FB813B68DB891B01F2
S315200023109AB2FB891343FB81FB8923F04003FB819F
S315200023203B689B881B019AB2FB891343FB81BB89BF
S3152000233023F48063BB81BB8923F40063BB813B68A4
S315200023401B8A9B009AB2BB891343BB813B685B8A7D
S315200023509B009AB2BB891343BB817B68BA899A805A
S315200023607B687A891A833B689A687B689A637B685C
S31520002370FA891A8400BF1437BD465DF8047B70477E
S31520002380000001400004014080B485B000AF7860B1
S31520002390396000237B810023FB810023BB817B687E
S315200023A01B8C9BB223F480739AB27B681A847B6859
S315200023B01B8CFB817B689B88BB817B689B8B7B818D
S315200023C07B8923F070037B817B8923F003037B8148
S315200023D03B681A887B8913437B81FB8923F400732E
S315200023E0FB813B689B891B029AB2FB891343FB81C5
S315200023F03B685B881B029AB2FB891343FB817B688F
S31520002400224A934203D07B68214A93422BD1FB89EF
S3152000241023F40063FB813B68DB891B029AB2FB89AC
S315200024201343FB81FB8923F48063FB813B689B88F4
S315200024301B029AB2FB891343FB81BB8923F4805389
S31520002440BB81BB8923F40053BB813B681B8A1B01DC
S315200024509AB2BB891343BB813B685B8A1B019AB244
S31520002460BB891343BB817B68BA899A807B687A894A
S315200024709A833B689A687B68DA637B68FA891A8450
S3152000248000BF1437BD465DF8047B7047000001404D
S315200024900004014080B485B000AF78603960002325
S315200024A0BB8100237B810023FB817B681B8C9BB235
S315200024B023F480539AB27B681A847B681B8C7B81B9
S315200024C07B689B88FB817B689B8BBB81BB8923F4C4
S315200024D0E043BB81BB8923F44073BB813B681B88E7
S315200024E01B029AB2BB891343BB817B8923F4005319
S315200024F07B813B689B891B039AB27B8913437B8133
S315200025003B685B881B039AB27B8913437B817B687C
S31520002510124A934203D07B68114A93420AD1FB891F
S3152000252023F48043FB813B681B8A9B019AB2FB897B
S315200025301343FB817B68FA899A807B68BA899A83E0
S315200025403B689A687B681A647B687A891A8400BF1C
S315200025501437BD465DF8047B704700BF000001407C
S315200025600004014080B483B000AF78607B6800220D
S315200025701A807B6800225A807B6800229A807B68BA
S3152000258000229A607B6800229A817B680022DA8189
S315200025907B6800221A827B6800225A8200BF0C3791
S315200025A0BD465DF8047B704780B485B000AF786087
S315200025B00B467B8013463B800023FB6000237B81F8
S315200025C07B68FB60FB681833FB607B88012202FA7C
S315200025D003F37B817B681B8C9AB27B89DB439BB29E
S315200025E013409AB27B681A847B88002B02D07B88A2
S315200025F0082B14D17B885B089BB21A46FB681344D0
S31520002600FB60FB681968FA684FF68F730B401360FE
S31520002610FB6819683A88FB680A431A6018E07B88C9
S31520002620043B9BB25B089BB21A46FB681344FB60D3
S31520002630FB681968FA6848F6FF730B401360FB685D
S315200026401A683B881B029BB21946FB680A431A602C
S3152000265000BF1437BD465DF8047B704780B483B055
S3152000266000AF786039607B683A685A6300BF0C37E0
S31520002670BD465DF8047B704780B483B000AF7860B8
S3152000268039607B683A689A6300BF0C37BD465DF8AF
S31520002690047B704780B483B000AF786039607B6874
S315200026A03A68DA6300BF0C37BD465DF8047B704795
S315200026B080B483B000AF786039607B683A681A646A
S315200026C000BF0C37BD465DF8047B704780B485B0EB
S315200026D000AF78600B467B800023FB817B681B8BD9
S315200026E0FB81FB8923F07003FB81FA897B881343E6
S315200026F0FB817B68FA891A8300BF1437BD465DF8D3
S31520002700047B704780B485B000AF78600B467B8031
S315200027100023FB817B681B8BFB81FB8923F4E04331
S31520002720FB817B881B029AB2FB891343FB817B6862
S31520002730FA891A8300BF1437BD465DF8047B7047BB
S3152000274080B485B000AF78600B467B800023FB8188
S315200027507B689B8BFB81FB8923F07003FB81FA89C5
S315200027607B881343FB817B68FA899A8300BF1437E1
S31520002770BD465DF8047B704780B485B000AF7860B5
S315200027800B467B800023FB817B689B8BFB81FB892F
S3152000279023F4E043FB817B881B029AB2FB89134317
S315200027A0FB817B68FA899A8300BF1437BD465DF8A2
S315200027B0047B704780B485B000AF78600B467B8081
S315200027C00023FB817B681B8BFB81FB8923F008039D
S315200027D0FB81FA897B881343FB817B68FA891A83FC
S315200027E000BF1437BD465DF8047B704780B485B0C2
S315200027F000AF78600B467B800023FB817B681B8BB8
S31520002800FB81FB8923F40063FB817B881B029AB240
S31520002810FB891343FB817B68FA891A8300BF14372F
S31520002820BD465DF8047B704780B485B000AF786004
S315200028300B467B800023FB817B689B8BFB81FB897E
S3152000284023F00803FB81FA897B881343FB817B688D
S31520002850FA899A8300BF1437BD465DF8047B70471A
S3152000286080B485B000AF78600B467B800023FB8167
S315200028707B689B8BFB81FB8923F40063FB817B8830
S315200028801B029AB2FB891343FB817B68FA899A83E0
S3152000289000BF1437BD465DF8047B704780B485B011
S315200028A000AF78600B467B800023FB817B681B8B07
S315200028B0FB81FB8923F00403FB81FA897B88134380
S315200028C0FB817B68FA891A8300BF1437BD465DF801
S315200028D0047B704780B485B000AF78600B467B8060
S315200028E00023FB817B681B8BFB81FB8923F48063A0
S315200028F0FB817B881B029AB2FB891343FB817B6891
S31520002900FA891A8300BF1437BD465DF8047B7047E9
S3152000291080B485B000AF78600B467B800023FB81B6
S315200029207B689B8BFB81FB8923F00403FB81FA895F
S315200029307B881343FB817B68FA899A8300BF14370F
S31520002940BD465DF8047B704780B485B000AF7860E3
S315200029500B467B800023FB817B689B8BFB81FB895D
S3152000296023F48063FB817B881B029AB2FB89134385
S31520002970FB817B68FA899A8300BF1437BD465DF8D0
S31520002980047B704780B485B000AF78600B467B80AF
S315200029900023FB817B681B8BFB81FB8923F0800353
S315200029A0FB81FA897B881343FB817B68FA891A832A
S315200029B000BF1437BD465DF8047B704780B485B0F0
S315200029C000AF78600B467B800023FB817B681B8BE6
S315200029D0FB81FB89C3F30E03FB817B881B029AB222
S315200029E0FB891343FB817B68FA891A8300BF14375E
S315200029F0BD465DF8047B704780B485B000AF786033
S31520002A000B467B800023FB817B689B8BFB81FB89AC
S31520002A1023F08003FB81FA897B881343FB817B6843
S31520002A20FA899A8300BF1437BD465DF8047B704748
S31520002A3080B485B000AF78600B467B800023FB8195
S31520002A407B689B8BFB81FB89C3F30E03FB817B8811
S31520002A501B029AB2FB891343FB817B68FA899A830E
S31520002A6000BF1437BD465DF8047B704780B485B03F
S31520002A7000AF78600B467B800023FB817B681B8C34
S31520002A80FB81FB8923F00203FB81FA897B881343B0
S31520002A90FB817B68FA891A8400BF1437BD465DF82E
S31520002AA0047B704780B485B000AF78600B467B808E
S31520002AB00023FB817B681B8CFB81FB8923F00803A9
S31520002AC0FB81FA897B881343FB817B68FA891A8408
S31520002AD000BF1437BD465DF8047B704780B485B0CF
S31520002AE000AF78600B467B800023FB817B681B8CC4
S31520002AF0FB81FB8923F02003FB817B881B019AB293
S31520002B00FB891343FB817B68FA891A8400BF14373B
S31520002B10BD465DF8047B704780B485B000AF786011
S31520002B200B467B800023FB817B681B8CFB81FB890A
S31520002B3023F08003FB817B881B019AB2FB89134318
S31520002B40FB817B68FA891A8400BF1437BD465DF87D
S31520002B50047B704780B485B000AF78600B467B80DD
S31520002B600023FB817B681B8CFB81FB8923F400738C
S31520002B70FB817B881B029AB2FB891343FB817B680E
S31520002B80FA891A8400BF1437BD465DF8047B704766
S31520002B9080B485B000AF78600B467B800023FB8134
S31520002BA07B681B8CFB81FB8923F40063FB817B887C
S31520002BB01B029AB2FB891343FB817B68FA891A842C
S31520002BC000BF1437BD465DF8047B704780B485B0DE
S31520002BD000AF78600B467B800023FB817B681B8CD3
S31520002BE0FB81FB8923F40053FB817B881B039AB26C
S31520002BF0FB891343FB817B68FA891A8400BF14374B
S31520002C00BD465DF8047B704780B485B000AF786020
S31520002C100B467B8013463B800023FB817B88012269
S31520002C2002FA03F3FB817B681B8C9AB2FB89DB4398
S31520002C309BB213409AB27B681A847B681B8C9AB22B
S31520002C4039887B8801FA03F39BB213439AB27B68D7
S31520002C501A8400BF1437BD465DF8047B704780B4E4
S31520002C6085B000AF78600B467B8013463B800023FF
S31520002C70FB817B88042202FA03F3FB817B681B8C91
S31520002C809AB2FB89DB439BB213409AB27B681A84C3
S31520002C907B681B8C9AB239887B8801FA03F39BB236
S31520002CA013439AB27B681A8400BF1437BD465DF879
S31520002CB0047B704780B582B000AF786039603B688E
S31520002CC01B88002B0FD13B6859883B689A883B6844
S31520002CD01B89786800F0B7FC3B68DB881946786862
S31520002CE000F0E1F836E03B681B88042B0FD13B68E7
S31520002CF059883B689A883B681B89786800F0E6FC0F
S31520002D003B68DB881946786800F0E9F822E03B68E2
S31520002D101B88082B0FD13B6859883B689A883B68EB
S31520002D201B89786800F01FFD3B68DB8819467868A8
S31520002D3000F0F3F80EE03B6859883B689A883B68B8
S31520002D401B89786800F057FD3B68DB881946786850
S31520002D5000F0FFF800BF0837BD4680BD80B483B0C1
S31520002D6000AF78607B6800221A807B6800225A8038
S31520002D707B6801229A807B680022DA807B680022A9
S31520002D801A8100BF0C37BD465DF8047B704780B5BD
S31520002D9084B000AF786039600023FB810123BB81BA
S31520002DA03B685B88002B02D10223FB8101E00023D4
S31520002DB0FB813B689B88012B02D10223BB8101E06A
S31520002DC00123BB813B681B88002B1CD13B6859889B
S31520002DD03B689A883B681B89786800F034FC3B681E
S31520002DE0DB881946786800F05EF83B681B89BA894B
S31520002DF0F989786800F06AFC3B68DB8819467868B0
S31520002E0000F06DF81BE03B6859883B689A883B6860
S31520002E101B89786800F05AFC3B68DB88194678687D
S31520002E2000F05DF83B681B89BA89F989786800F05B
S31520002E300AFC3B68DB881946786800F034F800BF46
S31520002E401037BD4680BD80B483B000AF78607B6804
S31520002E505B6B18460C37BD465DF8047B704780B423
S31520002E6083B000AF78607B689B6B18460C37BD46F5
S31520002E705DF8047B704780B483B000AF78607B68D0
S31520002E80DB6B18460C37BD465DF8047B704780B473
S31520002E9083B000AF78607B681B6C18460C37BD4644
S31520002EA05DF8047B704780B483B000AF78600B4632
S31520002EB07B807B681B8B9BB223F00C039AB27B68CA
S31520002EC01A837B681B8B9AB27B8813439AB27B68E2
S31520002ED01A8300BF0C37BD465DF8047B704780B46B
S31520002EE083B000AF78600B467B807B681B8B9BB2E0
S31520002EF023F440639AB27B681A837B681B8B9AB251
S31520002F007B881B029BB213439AB27B681A8300BF4D
S31520002F100C37BD465DF8047B704780B483B000AFA4
S31520002F2078600B467B807B689B8B9BB223F00C03DF
S31520002F309AB27B689A837B689B8B9AB27B88134371
S31520002F409AB27B689A8300BF0C37BD465DF8047B36
S31520002F50704780B483B000AF78600B467B807B6877
S31520002F609B8B9BB223F440639AB27B689A837B68DF
S31520002F709B8B9AB27B881B029BB213439AB27B68C7
S31520002F809A8300BF0C37BD465DF8047B704780B43A
S31520002F9083B000AF786039603B681A883B685B88ED
S31520002FA013439AB23B689B8813439AB23B68DB88EB
S31520002FB013439AB23B681B8913439AB23B685B89D9
S31520002FC013439AB23B689B8913439AB27B68A3F852
S31520002FD0442000BF0C37BD465DF8047B704780B4A3
S31520002FE083B000AF78607B6800221A807B6800225D
S31520002FF05A807B6800229A807B680022DA807B6870
S3152000300000221A817B6800225A817B6800229A81DD
S3152000301000BF0C37BD465DF8047B704780B483B093
S3152000302000AF78600B46FB70FB78002B0CD07B68DA
S31520003030B3F844309BB26FEA43436FEA53439AB2E4
S315200030407B68A3F8442009E07B68B3F844309BB240
S31520003050C3F30E039AB27B68A3F8442000BF0C3753
S31520003060BD465DF8047B704780B483B000AF7860BE
S315200030700B46FB70FB78002B08D07B689B889BB2A5
S3152000308043F004039AB27B689A8007E07B689B88AA
S315200030909BB223F004039AB27B689A8000BF0C3758
S315200030A0BD465DF8047B704780B483B000AF78607E
S315200030B00B46FB70FB78002B08D07B689B889BB265
S315200030C043F001039AB27B689A8007E07B689B886D
S315200030D09BB223F001039AB27B689A8000BF0C371B
S315200030E0BD465DF8047B704780B483B000AF78603E
S315200030F00B467B8013467B707B78002B08D07B6841
S315200031009B899AB27B8813439AB27B689A8109E09D
S315200031107B689B899AB27B88DB439BB213409AB229
S315200031207B689A8100BF0C37BD465DF8047B7047EB
S3152000313080B483B000AF78600B467B807B687A884A
S315200031409A8200BF0C37BD465DF8047B704780B479
S3152000315085B000AF78600B467B800023FB737B68CD
S315200031601B8A9AB27B8813409BB2002B02D0012384
S31520003170FB7301E00023FB73FB7B18461437BD4627
S315200031805DF8047B704780B483B000AF78600B464F
S315200031907B807B88DB439AB27B681A8200BF0C3720
S315200031A0BD465DF8047B704780B485B000AF78607B
S315200031B00B467B800023FB730023BB8100237B818E
S315200031C07B681B8A9AB27B881340BB817B689B896C
S315200031D09AB27B8813407B81BB89002B05D07B89E3
S315200031E0002B02D00123FB7301E00023FB73FB7B42
S315200031F018461437BD465DF8047B704780B483B00B
S3152000320000AF78600B467B807B88DB439AB27B6875
S315200032101A8200BF0C37BD465DF8047B704780B428
S3152000322083B000AF78600B467B8013463B807A885C
S315200032303B8813439AB27B68A3F8482000BF0C371B
S31520003240BD465DF8047B704780B483B000AF7860DC
S315200032500B467B8013467B707B78002B08D07B68DF
S315200032609B899AB27B8813439AB27B689A8109E03C
S315200032707B689B899AB27B88DB439BB213409AB2C8
S315200032807B689A8100BF0C37BD465DF8047B70478A
S3152000329080B483B000AF78600B46FB70FB78002BC0
S315200032A008D07B689B889BB243F008039AB27B6860
S315200032B09A8007E07B689B889BB223F008039AB22A
S315200032C07B689A8000BF0C37BD465DF8047B70474B
S315200032D080B483B000AF78607B681B899BB223F0F3
S315200032E007039AB27B681A8100BF0C37BD465DF88A
S315200032F0047B704780B582B000AF78600B467B8038
S315200033007B881946786800F088F87B681B899BB211
S3152000331043F007039AB27B681A8100BF0837BD467F
S3152000332080BD80B584B000AFF860084611461A46C5
S3152000333003467B810B463B811346FB807B89602BB2
S3152000334006D1FB8839890122F86800F0BFF905E02B
S31520003350FB8839890122F86800F075F97B891946BE
S31520003360F86800F05AF8FB681B899BB243F0070304
S315200033709AB2FB681A8100BF1037BD4680BD80B562
S3152000338086B000AFF860084611461A4603467B8190
S315200033900B463B811346FB800023FB82FB883A8940
S315200033A07989F86800F0A9F8FB681B89FB82FB8AFB
S315200033B023F00703FB82FB8A43F00703FB82FB8A89
S315200033C023F07003FB82FB8A43F07003FB82FB68C9
S315200033D0FA8A1A8100BF1837BD4680BD80B584B0F1
S315200033E000AFF860084611461A4603467B810B4615
S315200033F03B811346FB80FB883A897989F86800F07F
S315200034007CF8FB681B899BB243F480439AB2FB6825
S315200034101A8100BF1037BD4680BD80B485B000AF8D
S3152000342078600B467B800023FB817B681B89FB81B0
S31520003430FB8923F07003FB81FA897B881343FB8188
S315200034407B68FA891A8100BF1437BD465DF8047B74
S31520003450704780B483B000AF78600B467B807B6872
S315200034609B889BB223F070039AB27B689A807B6814
S315200034709B889AB27B8813439AB27B689A8000BF56
S315200034800C37BD465DF8047B704780B483B000AF2F
S3152000349078600B467B807B681B899BB223F00703F1
S315200034A09AB27B681A817B681B899AB27B88134300
S315200034B09AB27B681A8100BF0C37BD465DF8047B43
S315200034C0704780B483B000AF78600B467B807B6802
S315200034D01B899BB223F080039AB27B681A817B6892
S315200034E01B899AB27B8813439AB27B681A8100BFE4
S315200034F00C37BD465DF8047B704780B487B000AFBB
S31520003500F860084611461A4603467B810B463B81E6
S315200035101346FB800023FB82FB681B89FB82FB8A08
S31520003520DBB2FB82FB881B029AB23B8913439AB219
S315200035307B8913439AB2FB8A1343FB82FB68FA8A80
S315200035401A8100BF1C37BD465DF8047B704780B4E6
S3152000355087B000AFF860084611461A4603467B81BD
S315200035600B463B811346FB800023FB820023BB8254
S3152000357000237B82FB681B89FB82FB681B8BBB823B
S31520003580FB681B8C7B82FB8A23F00703FB82FA8A6B
S315200035907B891343FB82BB8A23F4407323F0030306
S315200035A0BB82BB8A43F4807343F00103BB827B8AD0
S315200035B023F022037B82FB881B019AB23B891343AB
S315200035C09AB27B8A13437B82FB68FA8A1A81FB684C
S315200035D0BA8A1A83FB687A8A1A8400BF1C37BD46CA
S315200035E05DF8047B704780B483B000AF78600B46EB
S315200035F0FB70FB78002B08D07B689B889BB243F03E
S3152000360080039AB27B689A8007E07B689B889BB28E
S3152000361023F080039AB27B689A8000BF0C37BD46A0
S315200036205DF8047B704780B483B000AF78600B46AA
S315200036307B807B687A88A3F8502000BF0C37BD4674
S315200036405DF8047B704780B487B000AFF860084609
S3152000365011461A4603467B810B463B811346FB8067
S315200036600023FB820023BB82FB681B8C9BB223F0CA
S3152000367001039AB2FB681A84FB681B8BFB82FB68EA
S315200036801B8CBB82FB8A23F0F303FB82FB881B0186
S315200036909AB23B8913439AB2FB8A1343FB82BB8AB5
S315200036A023F00A03BB827A89BB8A13439BB243F079
S315200036B00103BB82FB68FA8A1A83FB68BA8A1A84DA
S315200036C000BF1C37BD465DF8047B704780B487B0C9
S315200036D000AFF860084611461A4603467B810B4622
S315200036E03B811346FB800023FB820023BB82002301
S315200036F07B82FB681B8C9BB223F010039AB2FB687B
S315200037001A84FB681B8BFB82FB681B8CBB827B8924
S315200037101B017B82FB8A23F440731B051B0DFB8256
S31520003720FB881B039AB2FB8A1343FB823B891B024D
S315200037309AB2FB8A1343FB82BB8A23F0A003BB8287
S315200037407A8ABB8A13439BB243F01003BB82FB6881
S31520003750FA8A1A83FB68BA8A1A8400BF1C37BD46C8
S315200037605DF8047B704780B487B000AFF8600846E8
S3152000377011461A4603467B810B463B811346FB8046
S315200037800023FB820023BB8200237B82FB681B8CE9
S315200037909BB223F480739AB2FB681A84FB689B8BD6
S315200037A0FB82FB681B8CBB827B891B027B82FB8A8C
S315200037B023F0F303FB82FB881B019AB23B89134358
S315200037C09AB2FB8A1343FB82BB8A23F42063BB8213
S315200037D07A8ABB8A13439BB243F48073BB82FB680D
S315200037E0FA8A9A83FB68BA8A1A8400BF1C37BD46B8
S315200037F05DF8047B704780B487B000AFF860084658
S3152000380011461A4603467B810B463B811346FB80B5
S315200038100023FB820023BB8200237B82FB681B8C58
S315200038209BB223F480539AB2FB681A84FB689B8B65
S31520003830FB82FB681B8CBB827B891B037B82FB8AFA
S3152000384023F440731B051B0DFB823B891B029AB296
S31520003850FB8A1343FB82FB881B039AB2FB8A134322
S31520003860FB82BB8A23F400535B045B0CBB827A8AFF
S31520003870BB8A13439BB243F48053BB82FB68FA8A0C
S315200038809A83FB68BA8A1A8400BF1C37BD465DF846
S31520003890047B704780B483B000AF0346FB71FB798D
S315200038A003F01F03012202FA03F1064A97F90730B3
S315200038B05B0942F8231000BF0C37BD465DF8047B38
S315200038C0704700BF00E100E080B483B000AF03463C
S315200038D03960FB7197F90730002B0BDA3B68DAB2B7
S315200038E00C49FB7903F00F03043B1201D2B20B44BF
S315200038F01A7609E03B68DAB2074997F907301201D0
S31520003900D2B20B4483F8002300BF0C37BD465DF8C6
S31520003910047B704700ED00E000E100E080B582B056
S3152000392000AF78603960002201210748FDF7FCFED0
S3152000393002211720FFF7C8FF1720FFF7ABFF00BFB4
S315200039400837BD4680BD00BF0004024080B582B066
S3152000395000AF786039607B689B6880211846FDF748
S3152000396077FE034618460837BD4680BD80B582B02F
S3152000397000AF786039607B689B683A68D2B20121D3
S315200039801846FDF7D1FE00BF0837BD4680BD80B57D
S3152000399082B000AF786039607B689B680121184649
S315200039A0FDF7E9FE00BF0837BD4680BD80B584B06F
S315200039B002AF786039608020FCF7B8FC0346012B03
S315200039C015D18020FCF7CCFC7B68DB68002B11D05E
S315200039D07B68DA687B681969002300930B4600210F
S315200039E0002001F0D5FC064B01221A6002E00548B2
S315200039F001F096F8002318460837BD4680BD00BF63
S31520003A00A48B00201880002080B584B002AF786097
S31520003A1039607B6801221A61074B00221A707B6885
S31520003A20D9683B680093054B7A68002001F0B0FC0A
S31520003A3000BF0837BD4680BD1C740040413A0020B7
S31520003A4080B584B002AF786039607B681B69012B32
S31520003A501AD17B689B69002B09D10D4B1B78002B53
S31520003A6005D17B685A690A4BD2B21A7002E0084B1C
S31520003A7000221A707B6898687B68D9683B68009337
S31520003A80044B7A6801F084FC00BF0837BD4680BD30
S31520003A901C740040413A002080B483B000AF7860A7
S31520003AA039607B6800221A6100BF0C37BD465DF87D
S31520003AB0047B704780B483B000AF786039603B6880
S31520003AC0064A82FB03129210DB17D21A7B689A6091
S31520003AD000BF0C37BD465DF8047B70476766666697
S31520003AE080B483B000AF786039603B68064A82FBB9
S31520003AF003129210DB17D21A7B68DA6000BF0C37EC
S31520003B00BD465DF8047B70476766666680B483B001
S31520003B1000AF786039603B68142B03DD7B68142284
S31520003B205A6109E03B68002B03DC7B6801225A615D
S31520003B3002E07B683A685A6100BF0C37BD465DF8E3
S31520003B40047B704780B586B002AF786039607B68A9
S31520003B5001229A617B6800225A627B685A6A7B68D6
S31520003B60DB691A447B680A3253F82230FB607B6893
S31520003B705A6A7B682A3253F822301C4A92FBF3F2A7
S31520003B807B68DA607B68FA684A3253F822307A68B2
S31520003B909268174981FB03018910DB17CB1A9360C2
S31520003BA07B689B68D9687B689A683B680093114B51
S31520003BB0002001F0EDFB7B68D8687B689B68D9689C
S31520003BC07B689A683B6800930B4B01F0E1FB7B68AE
S31520003BD0D8687B6819693B680093084B7A6801F0BE
S31520003BE0D7FB00BF1037BD4680BD00BF400D030088
S31520003BF067666666093A0020993A0020013C002053
S31520003C0080B586B002AF786039607B685A6A7B6877
S31520003C10DB691A447B680A3253F82230FB607B68E2
S31520003C205A697B68596A7B682A3153F821302349BF
S31520003C3091FBF3F17B681B6A91FBF3F3642101FB93
S31520003C4003F31A447B68DA607B68FA684A3253F8D1
S31520003C5022307A6892681A4981FB03018910DB17A2
S31520003C60CB1A93607B6858697B689B68D9687B68A8
S31520003C709A683B680093134B01F08AFB7B68D868EF
S31520003C807B689B68D9687B689A683B6800930E4B73
S31520003C9001F07EFB7B68D8687B6819693B680093D6
S31520003CA00A4B7A6801F074FB7B685B6A5A1C7B6856
S31520003CB05A6200BF1037BD4680BD00BF80A90300F1
S31520003CC067666666093A0020993A0020013C002082
S31520003CD080B483B000AF786039607B683A689A60B8
S31520003CE000BF0C37BD465DF8047B704780B483B0B7
S31520003CF000AF786039603B68052B03DD7B680522C1
S31520003D00DA610BE03B6813F1050F04DA7B686FF08C
S31520003D100402DA6102E07B683A68DA6100BF0C3798
S31520003D20BD465DF8047B704780B582B000AF7860F1
S31520003D307B68DB69013319467868FFF7D7FF00BF38
S31520003D400837BD4680BD80B582B000AF78607B68FD
S31520003D50DB69013B19467868FFF7C8FF00BF0837C3
S31520003D60BD4680BD80B483B000AF786039603B68C3
S31520003D70C82B03DD7B68C8221A6209E03B68632BE7
S31520003D8003DC7B6864221A6202E07B683A681A6266
S31520003D9000BF0C37BD465DF8047B704780B582B006
S31520003DA000AF78607B681B6A0A3319467868FFF78C
S31520003DB0D9FF00BF0837BD4680BD80B582B000AFB1
S31520003DC078607B681B6A0A3B19467868FFF7CAFF4A
S31520003DD000BF0837BD4680BD80B584B002AF78608D
S31520003DE039607B689A683B680093044B0021002069
S31520003DF001F0CEFA00BF0837BD4680BD0D3B00203E
S31520003E0080B582B000AF78607B689B685B690133C0
S31520003E1019467868FFF7E0FF00BF0837BD4680BD2A
S31520003E2080B582B000AF78607B689B685B69013B98
S31520003E3019467868FFF7D0FF00BF0837BD4680BD1A
S31520003E4080B483B000AF78607B689B6801229A615A
S31520003E5000BF0C37BD465DF8047B704780B483B045
S31520003E6000AF78607B689B6800229A6100BF0C37A0
S31520003E70BD465DF8047B704780B483B000AF7860A0
S31520003E807B689B689B6918460C37BD465DF8047BAA
S31520003E90704700BF80B582B000AF78607B683B4A30
S31520003EA0934208D10121102002F0AAFC0021102003
S31520003EB002F0A6FC65E07B68354A93420AD10121CF
S31520003EC04FF4003002F07CFC00214FF4003002F069
S31520003ED077FC56E07B682F4A93420AD101214FF4A2
S31520003EE0802002F06DFC00214FF4802002F068FC57
S31520003EF047E07B68284A93420AD101214FF40020EB
S31520003F0002F05EFC00214FF4002002F059FC38E05C
S31520003F107B68224A93420AD101214FF4801002F095
S31520003F204FFC00214FF4801002F04AFC29E07B6808
S31520003F301B4A934208D10121202002F061FC002176
S31520003F40202002F05DFC1CE07B68164A93420AD1D1
S31520003F5001214FF0804002F033FC00214FF08040D9
S31520003F6002F02EFC0DE07B680F4A934209D1012115
S31520003F704FF0004002F024FC00214FF0004002F0F8
S31520003F801FFC00BF0837BD4680BD00BF00100140A2
S31520003F900044004000480040004C004000500040D3
S31520003FA00014014000780040007C004080B58AB0B3
S31520003FB000AF7860396000237B6200233B620023D8
S31520003FC0FB610023BB617B681B8A9BB27B627B6A99
S31520003FD023F440537B623B68DB881A467B6A134393
S31520003FE07B627B6A9AB27B681A827B689B899BB2CA
S31520003FF07B627B6A23F4B05323F00C037B623B681D
S315200040009A883B681B8913439AB23B685B891343A2
S315200040109BB21A467B6A13437B627B6A9AB27B68A1
S315200040209A817B689B8A9BB27B627B6A23F440736E
S315200040307B623B689B891A467B6A13437B627B6A59
S315200040409AB27B689A8207F10803184602F008F9AB
S315200040507B68304A934203D07B682F4A934202D131
S315200040607B693B6201E03B693B627B689B899BB233
S315200040701BB2002B0CDA3A6A13469B0013449A00B3
S315200040801A443B681B685B00B2FBF3F3FB610BE051
S315200040903A6A13469B0013449A001A443B681B68ED
S315200040A09B00B2FBF3F3FB61FB691C4AA2FB0323D3
S315200040B05B091B017B627B6A1B09642202FB03F3FB
S315200040C0FA69D31ABB617B689B899BB21BB2002B12
S315200040D00CDABB69DB003233104AA2FB03235B09EF
S315200040E003F007037A6A13437B620BE0BB691B016B
S315200040F032330A4AA2FB03235B0903F00F037A6AD1
S3152000410013437B627B6A9AB27B681A8100BF283789
S31520004110BD4680BD00100140001401401F85EB51B3
S3152000412080B483B000AF78607B684FF416521A6073
S315200041307B6800229A807B680022DA807B680022D6
S315200041401A817B680C225A817B6800229A8100BFE3
S315200041500C37BD465DF8047B704780B485B000AF50
S31520004160786039600023FB607B681B8A9BB2FB600A
S31520004170FB6823F47063FB603B681A883B685B88A6
S3152000418013439AB23B689B8813439AB23B68DB88F9
S3152000419013439BB21A46FB681343FB60FB689AB233
S315200041A07B681A8200BF1437BD465DF8047B7047D2
S315200041B080B483B000AF78607B6800221A807B6869
S315200041C000225A807B6800229A807B680022DA804F
S315200041D000BF0C37BD465DF8047B704780B483B0C2
S315200041E000AF78600B46FB70FB78002B08D07B680D
S315200041F09B899BB243F400539AB27B689A8107E06D
S315200042007B689B899BB223F400539AB27B689A8180
S3152000421000BF0C37BD465DF8047B704780B483B081
S3152000422000AF78600B46FB707B681B8B9BB223F03C
S31520004230FF039AB27B681A837B681B8B9AB2FB7842
S315200042409BB213439AB27B681A8300BF0C37BD46D4
S315200042505DF8047B704780B483B000AF78600B466E
S31520004260FB70FB78002B0AD07B689B899BB26FEA98
S3152000427043436FEA53439AB27B689A8107E07B688F
S315200042809B899BB2C3F30E039AB27B689A8100BFC7
S315200042900C37BD465DF8047B704780B483B000AF11
S315200042A078600B46FB70FB78002B08D07B689B8AD6
S315200042B09BB243F400639AB27B689A8207E07B68DC
S315200042C09B8A9BB223F400639AB27B689A8200BFD2
S315200042D00C37BD465DF8047B704780B483B000AFD1
S315200042E078600B467B807B88C3F308039AB27B6891
S315200042F09A8000BF0C37BD465DF8047B704780B4BA
S3152000430083B000AF78607B689B889BB2C3F30803B9
S315200043109BB218460C37BD465DF8047B704780B4C7
S3152000432083B000AF78600B46FB707B681B8A9BB21C
S3152000433023F00F039AB27B681A827B681B8A9AB293
S31520004340FB789BB213439AB27B681A8200BF0C3764
S31520004350BD465DF8047B704780B483B000AF7860BB
S315200043600B46FB70FB78002B08D07B689B899BB2A1
S3152000437043F002039AB27B689A8107E07B689B89A7
S315200043809BB223F002039AB27B689A8100BF0C3756
S31520004390BD465DF8047B704780B483B000AF78607B
S315200043A00B467B807B689B899BB223F400639AB281
S315200043B07B689A817B689B899AB27B8813439AB2E1
S315200043C07B689A8100BF0C37BD465DF8047B704739
S315200043D080B483B000AF78600B467B807B681B8AF5
S315200043E09BB223F020039AB27B681A827B681B8AD1
S315200043F09AB27B8813439AB27B681A8200BF0C3725
S31520004400BD465DF8047B704780B483B000AF78600A
S315200044100B46FB70FB78002B08D07B681B8A9BB26F
S3152000442043F480439AB27B681A8207E07B681B8A32
S315200044309BB223F480439AB27B681A8200BF0C3762
S31520004440BD465DF8047B704780B483B000AF7860CA
S315200044507B689B899BB243F001039AB27B689A8161
S3152000446000BF0C37BD465DF8047B704780B483B02F
S3152000447000AF78600B46FB70FB78002B08D07B687A
S315200044809B8A9BB243F008039AB27B689A8207E024
S315200044907B689B8A9BB223F008039AB27B689A8238
S315200044A000BF0C37BD465DF8047B704780B483B0EF
S315200044B000AF78600B46FB707B681B8B9BB2DBB230
S315200044C09AB27B681A837B681B8B9AB2FB789BB265
S315200044D01B029BB213439AB27B681A8300BF0C3728
S315200044E0BD465DF8047B704780B483B000AF78602A
S315200044F00B46FB70FB78002B08D07B689B8A9BB20F
S3152000450043F020039AB27B689A8207E07B689B8AF5
S315200045109BB223F020039AB27B689A8200BF0C37A5
S31520004520BD465DF8047B704780B483B000AF7860E9
S315200045300B46FB70FB78002B08D07B689B8A9BB2CE
S3152000454043F010039AB27B689A8207E07B689B8AC5
S315200045509BB223F010039AB27B689A8200BF0C3775
S31520004560BD465DF8047B704780B483B000AF7860A9
S315200045700B467B807B689B8A9BB223F004039AB20E
S315200045807B689A827B689B8A9AB27B8813439AB20D
S315200045907B689A8200BF0C37BD465DF8047B704766
S315200045A080B483B000AF78600B46FB70FB78002B9D
S315200045B008D07B689B8A9BB243F002039AB27B6841
S315200045C09A8207E07B689B8A9BB223F002039AB209
S315200045D07B689A8200BF0C37BD465DF8047B704726
S315200045E080B483B000AF78600B467B8013467B7027
S315200045F07B78002B08D07B689B8A9AB27B881343F2
S315200046009AB27B689A8209E07B689B8A9AB27B88F9
S31520004610DB439BB213409AB27B689A8200BF0C3769
S31520004620BD465DF8047B704780B487B000AF7860E4
S315200046300B467B8013467B7000233B610023FB6087
S315200046400023BB6000237B617B687B617B88DBB2B8
S315200046505B09DBB23B617B8803F01F03FB60012211
S31520004660FB6802FA03F3BB603B69012B03D17B692C
S315200046700C337B6109E03B69022B03D17B69103344
S315200046807B6102E07B6914337B617B78002B06D04B
S315200046907B6919687B69BA680A431A6006E07B69F8
S315200046A01968BB68DA437B690A401A6000BF1C3769
S315200046B0BD465DF8047B704780B485B000AF786056
S315200046C00B467B800023FB737B681B889AB27B8812
S315200046D013409BB2002B02D00123FB7301E0002381
S315200046E0FB73FB7B18461437BD465DF8047B704789
S315200046F080B483B000AF78600B467B807B88DB4339
S315200047009AB27B681A8000BF0C37BD465DF8047BE1
S31520004710704780B487B000AF78600B467B8000235B
S31520004720FB6000237B610023BB600023FB747B8836
S31520004730DBB25B09DBB2BB607B8803F01F037B61C6
S3152000474001227B6902FA03F37B61BB68012B07D147
S315200047507B689B899BB21A467B6913407B6111E07B
S31520004760BB68022B07D17B681B8A9BB21A467B69E2
S3152000477013407B6106E07B689B8A9BB21A467B6965
S3152000478013407B617B881B0A9BB2FB600122FB687E
S3152000479002FA03F3FB607B681B889BB21A46FB6810
S315200047A01340FB607B69002B05D0FB68002B02D0F1
S315200047B00123FB7401E00023FB74FB7C18461C37A5
S315200047C0BD465DF8047B704780B485B000AF786045
S315200047D00B467B800023FB810023BB817B881B0A41
S315200047E0FB81FB89012202FA03F3BB81BB89DB43F0
S315200047F09AB27B681A8000BF1437BD465DF8047BE9
S31520004800704700BF80B483B000AF0346FB71FB79CD
S3152000481003F01F03012202FA03F1064A97F9073033
S315200048205B0942F8231000BF0C37BD465DF8047BB8
S31520004830704700BF00E100E080B483B000AF0346BC
S315200048403960FB7197F90730002B0BDA3B68DAB237
S315200048500C49FB7903F00F03043B1201D2B20B443F
S315200048601A7609E03B68DAB2074997F90730120150
S31520004870D2B20B4483F8002300BF0C37BD465DF847
S31520004880047B704700ED00E000E100E080B582B0D7
S3152000489000AF786039607B6800229A617B689A69EC
S315200048A07B685A617B685A697B68DA61012240F22B
S315200048B025510A48FFF7B8FE002240F22771074823
S315200048C0FFF7B2FE02212520FFF7B6FF2520FFF7CE
S315200048D099FF00BF0837BD4680BD00BF00100140CC
S315200048E080B483B000AF78600B46FB707B68DB69D1
S315200048F0B3F5806F17DA7B685B697A681344FA78B8
S3152000490083F820207B685B6901335A42C3F309038D
S31520004910C2F3090258BF53427A6853617B68DB6948
S315200049205A1C7B68DA6100BF0C37BD465DF8047BF4
S31520004930704780B582B000AF786039607B68DB69EC
S31520004940002B18D17B689B68012240F227711846FC
S31520004950FFF76AFE0FE03B681B780A2B03D10D2177
S315200049607868FFF7BDFF3B685A1C3A601B781946EA
S315200049707868FFF7B5FF3B681B78002BEBD100BFAB
S315200049800837BD4680BD80B582B000AF78603960FB
S315200049907B68DB69002B07D17B689B68012240F28C
S315200049A027711846FFF740FE3B68DBB21946786848
S315200049B0FFF796FF00BF0837BD4680BD80B586B09D
S315200049C002AF786039607B689B6820211846FFF724
S315200049D073FE0346012B18D17B689B681846FFF7A8
S315200049E08EFC0346FB607B68DB68002B0DD07B6862
S315200049F0DA687B681969FB6800930B460021002062
S31520004A0000F0C6FC234B01221A607B689B6880213C
S31520004A101846FFF751FE0346012B35D17B68DB692B
S31520004A20002B29DD7B6898687B689B697A6813442C
S31520004A3093F820309BB21946FFF74FFC7B689B69A1
S31520004A4001335A42C3F30903C2F3090258BF534242
S31520004A507A6893617B68DB695A1E7B68DA617B68BA
S31520004A60DB69002B10D17B689B68002240F22771FE
S31520004A701846FFF7D9FD07E07B689B68002240F2C5
S31520004A8027711846FFF7D0FD002318461037BD467C
S31520004A9080BD00BFA48B002080B483B000AF034646
S31520004AA0FB71FB7903F01F03012202FA03F1064A88
S31520004AB097F907305B0942F8231000BF0C37BD4633
S31520004AC05DF8047B704700BF00E100E080B483B04E
S31520004AD000AF03463960FB7197F90730002B0BDADC
S31520004AE03B68DAB20C49FB7903F00F03043B120151
S31520004AF0D2B20B441A7609E03B68DAB2074997F935
S31520004B0007301201D2B20B4483F8002300BF0C37C2
S31520004B10BD465DF8047B704700ED00E000E100E053
S31520004B2080B582B000AF78600EE07B681B780D2BD5
S31520004B3007D07B685A1C7A601B78184600F05CF90F
S31520004B4002E07B6801337B607B681B78002BECD10D
S31520004B5000BF0837BD4680BD80B586B000AF7860FF
S31520004B6000237B617B6803F00F027B69591C796106
S31520004B700F498A5C07F118010B4403F80C2C7B685B
S31520004B801B097B607B68002BECD10AE07B69013B2B
S31520004B907B6107F10C027B6913441B78184600F0F1
S31520004BA02BF97B69002BF1D100BF1837BD4680BD9C
S31520004BB09C89002080B59EB000AF78607B68002B72
S31520004BC002DA4FF0FF3300E001233B677B683A6F40
S31520004BD002FB03F37B6000237B6779681C4B83FB16
S31520004BE001239A10CB17D21A13469B0013445B005D
S31520004BF0CA1A7B6F591C796716498A5C07F17801B6
S31520004C000B4403F86C2C7B68114A82FB031292102A
S31520004C10DB17D31A7B607B68002BDED13B6F002B22
S31520004C200EDA2D2000F0E8F80AE07B6F013B7B6767
S31520004C3007F10C027B6F13441B78184600F0DCF852
S31520004C407B6F002BF1D100BF7837BD4680BD00BFFA
S31520004C50676666669C89002080B483B000AF102307
S31520004C607B607B6883F3118800BF0C37BD465DF8F7
S31520004C70047B704780B483B000AF30237B607B68B1
S31520004C8083F3118800BF0C37BD465DF8047B70475F
S31520004C9080B584B000AF78600B48FFF741FF0B4B1F
S31520004CA01B68002B02D1094B094A1A60074B1B6867
S31520004CB0FB60064B1A687B681344044A1360FB6842
S31520004CC018461037BD4680BD3C800020188F002036
S31520004CD0240F012080B485B000AF786039603B682E
S31520004CE003F5F95310337A6813607B681B68BB6041
S31520004CF00023FB600AE0FB689B001A46BB6813444E
S31520004D001A4600231360FB680133FB60FB68332BD4
S31520004D10F1DDBB686FF016021A60BB6804331A46D1
S31520004D2003231360BB6884331A464FF080731360E5
S31520004D3000BF1437BD465DF8047B704780B485B04C
S31520004D4000AF786039607B681B688033FB60FB6846
S31520004D503A681A6000BF1437BD465DF8047B704779
S31520004D6080B584B000AF1D48FCF788FF3B1D184670
S31520004D70FDF7D0F840F24733BB803B1D1946174854
S31520004D80FDF75CF8164B174A1A6002216FF00100F6
S31520004D90FFF79CFE144B154A1A6000216FF00400A1
S31520004DA0FFF794FE124B134A1A6002213220FFF7B6
S31520004DB08DFE3220FFF770FE00210848FDF7F4F83B
S31520004DC001210648FDF7BDF9012202210348FEF71D
S31520004DD08BF900BF1037BD4680BD00BF000C0040D8
S31520004DE038C00120311800202CC001202D180020A9
S31520004DF008C101207F51002080B582B000AF034654
S31520004E00FB71FB799BB219460748FFF766FA00BF8C
S31520004E1080210548FFF750FC0346002BF8D000BF41
S31520004E200837BD4680BD00BF0010014080B500AFE9
S31520004E301248FDF7D5F803461A46114B1A60114B56
S31520004E4001221A60104B00221A60104B1B68002B9F
S31520004E5006D00E4B1B680E4A126800211046984752
S31520004E60084B00221A60084B1B68002B01D000F06B
S31520004E705DFA054B00221A6000BF80BD000C004081
S31520004E80B48B0020B08B0020A48B0020288C00201F
S31520004E90C88B002080B500AF1248FDF7A1F8034665
S31520004EA01A46114B1A60114B01221A60104B002230
S31520004EB01A60104B5B68002B06D00E4B5B680E4ABF
S31520004EC05268012110469847084B00221A60084B69
S31520004ED01B68002B01D000F029FA054B00221A602E
S31520004EE000BF80BD000C0040B48B0020B08B00209A
S31520004EF0A48B0020288C0020C88B002080B500AF12
S31520004F001248FDF76DF803461A46114B1A60114BED
S31520004F1001221A60104B00221A60104B9B68002B4E
S31520004F2006D00E4B9B680E4A92680221104698477F
S31520004F30084B00221A60084B1B68002B01D000F09A
S31520004F40F5F9054B00221A6000BF80BD000C004019
S31520004F50B48B0020B08B0020A48B0020288C00204E
S31520004F60C88B002080B485B000AF786039600023FC
S31520004F70FB603B681B68BB6004E0BB68FB60BB68EA
S31520004F801B68BB60BB68002B05D0BB689A687B6832
S31520004F909B689A42F1DD7B68BA681A60FB68002B31
S31520004FA003D13B687A681A6002E0FB687A681A6067
S31520004FB000BF1437BD465DF8047B704780B485B0CA
S31520004FC000AF786039600023FB603B681B68BB60DC
S31520004FD004E0BB68FB60BB681B68BB60BB68002B3A
S31520004FE005D0BB685A687B685B689A42F1DD7B68AE
S31520004FF0BA681A60FB68002B03D13B687A681A608E
S3152000500002E0FB687A681A6000BF1437BD465DF877
S31520005010047B704780B584B000AF78607B681B68DE
S31520005020FB60FB68002B04D0FB681A687B681A605B
S315200050300CE00948FFF774FD002202210748FCF71F
S3152000504073FB0748FFF76CFD30BFFDE7FB6818468A
S315200050501037BD4680BD00BF5480002000040240AA
S315200050606080002080B584B000AF78607B681B68C4
S31520005070FB60FB68002B04D0FB681A687B681A600B
S315200050800CE00948FFF74CFD002202210748FCF7F7
S315200050904BFB0748FFF744FD30BFFDE7FB6818468A
S315200050A01037BD4680BD00BF54800020000402405A
S315200050B06C80002080B483B000AF786039603B6894
S315200050C01A687B681A603B687A681A6000BF0C37DA
S315200050D0BD465DF8047B704780B483B000AF78602E
S315200050E039603B681A687B689A603B687A681A6000
S315200050F000BF0C37BD465DF8047B704780B485B091
S3152000510000AF78607B681B68FB60FB689A687B68E9
S315200051101A60FB6818461437BD465DF8047B704755
S3152000512080B485B000AF786039600023FB603B68AF
S315200051301B68BB6004E0BB68FB60BB681B68BB6088
S31520005140BB68002B03D0BA687B689A42F3D1BB6850
S31520005150002B0DD0FB68002B04D0BB681A68FB68B7
S315200051601A6003E0BB681A683B681A60012300E0F6
S31520005170002318461437BD465DF8047B704780B57A
S3152000518082B000AF02211E48FEF738F81C48FCF713
S3152000519027FF03467B6007E01A48FFF73BFF0346DD
S315200051A019491846FFF7DEFE164B1B68002B06D062
S315200051B0144B1B685A687B68D31A002BECDD114B05
S315200051C01B68002B16D00E48FCF70AFF03463B60EF
S315200051D00C4B1B685B683A689A4204DD0022022168
S315200051E00A48FCF7A1FA074B1B685B681946044876
S315200051F0FDF734FA00F09AF800BF0837BD4680BDA7
S31520005200000C0040AC8B0020A88B0020000402403C
S315200052100246024B1A6010DFF74600BFD48B0020EF
S315200052200246054B1A60054B5B68044A43F08053DF
S315200052305360F74600BF00BFD48B002000ED00E08E
S3152000524080B582B000AF7860094B5B68C3F3080372
S31520005250002B03D17868FFF7DBFF02E07868FFF7C1
S31520005260DFFFFFF707FD00BF0837BD4680BD00BF43
S3152000527000ED00E090B585B000AF234B1C682348B5
S31520005280FFF7C8FE0346E360E368BB60FFF7F2FC66
S31520005290BB68D868BB681969BB685B691A4600F0A9
S315200052A015F9FFF7D9FC1A49B868FFF703FF194B20
S315200052B01B689B68DB687B60144B1B68002B0AD03D
S315200052C07B68002BD9D0114B1B689A687B689B683A
S315200052D0D31A002BD1DD0F48FFF710FF03460E49E6
S315200052E01846FFF7F9FE0B4B1B68FB6003E0FB68D3
S315200052F01B691B68FB60FB681B69002BF7D1F868EC
S31520005300FFF79EFFB9E700BFBC890020A88B0020CD
S31520005310B0890020B8890020B489002080B500AF6C
S3152000532000F004F8FFF7A6FC30BFFBE780B582B09B
S3152000533000AF144B1B68DB687B60134B1B68002B8C
S315200053401BD0124B1B68002B17D07B68002B07D075
S315200053500D4B1B689A687B689B68D31A002B0CDA66
S315200053600A48FFF7CBFE034606491846FFF7B4FE68
S31520005370044B1B681846FFF763FF00BF0837BD467E
S3152000538080BD00BFB8890020A88B0020B4890020EA
S3152000539080B588B000AFF860B9607A603B60EFF303
S315200053A012833B613B691B09012B14BF0123002398
S315200053B0DBB2FB77FFF750FC3A48FFF753FEB861A4
S315200053C0BB697A68DA60BB693A681A61BB69BA6AEE
S315200053D05A61354B1B68002B04D1344B1B68DB68A4
S315200053E05B6801E0324B1B68FA681A44BB695A6055
S315200053F0BB695A68BB68002B01DDBB6801E06FF012
S3152000540000431A44BB699A602A48FCF7E9FD034623
S315200054107B61BB695A687B69D31A002B16DD264946
S31520005420B869FFF7CBFD244B1B685B687A699A4203
S3152000543004DD002202212148FCF776F91E4B1B6869
S315200054405B6819461B48FDF709F921E01C49B86934
S31520005450FFF788FDFB7F002B1AD01A4B1B68002B09
S3152000546016D0174B1B689A68174B1B68DB689B681E
S31520005470D31A002B0CDA1348FFF740FE03461249D5
S315200054801846FFF729FE104B1B681846FFF7D8FE73
S31520005490FB7F002B01D0FFF7EDFBBB6918462037B9
S315200054A0BD4680BDB0890020B08B0020BC8900207D
S315200054B0B48B0020000C0040AC8B0020000402407E
S315200054C0A88B0020B4890020B889002080B588B038
S315200054D000AFF860B9607A60EFF312833B613B69F5
S315200054E01B09012B14BF01230023DBB2FB76FFF738
S315200054F0B3FBFB681B68FB61FB69002B37D003E01D
