S01600002E2F44656275672F5254532D4C61622E73313936
S3152000000000BFDFF814D002F0F8FD01F0B5FC02F0D5
S3152000001006BEFEE700BF000000C0012080B483B00A
S3152000002000AF78607B680022C3F8A0207B6800229E
S31520000030C3F8A4207B680022C3F8A82000BF0C3791
S31520000040BD465DF8047B704780B588B002AF786006
S315200000503960254B1A462549254803F041FD7B6822
S31520000060D3F8A020511C7B68C3F8A01079681346EA
S315200000705B0013449B000B4403F1080207F10C03B9
S3152000008007CA83E807007B68D3F8A010194B83FBC7
S3152000009001239A10CB17D21A13469B0013445B00F8
S315200000A0CA1A7B68C3F8A0207B68D3F8A8305A1EEA
S315200000B07B68C3F8A82007F10C0319460E4800F008
S315200000C021F87B68D3F8A830002B08DD3B68009325
S315200000D00A4B7A6842F21071094803F063FC00BFAC
S315200000E01837BD4680BD00BF8C930020A327002073
S315200000F0189A0020676666669099002049000020BD
S31520000100A086010080B582B000AF786039607B6838
S3152000011003F124003B681B780F4A1E2108F028FAB9
S315200001207B6824331A460D490D4803F0D9FC7B68B9
S3152000013003F124003B6804330A4A1E2108F018FA0A
S315200001407B6824331A460549054803F0C9FC00BFDD
S315200001500837BD4680BD00BFA0930020A3270020FE
S31520000160189A0020B093002080B596B002AF786030
S31520000170396007F140031A46A449A54803F0B0FCAC
S3152000018007F140031A46A149A14803F0A9FC7B6860
S315200001905B6D002B0CD17B6801225A659D4803F0CC
S315200001A07FFD07F1400319467868FFF7ABFF0CE0A7
S315200001B0984803F093FDF864964803F071FD07F123
S315200001C0400319467868FFF79DFF7B681B7F002B4D
S315200001D000F0F78097F84430613B152B00F2C2807F
S315200001E001A252F823F000BF35030020650300204A
S315200001F0650300206503002001030020650300201D
S3152000020065030020650300206503002065030020A8
S31520000210BD02002065030020530300206503002053
S31520000220BD02002023030020650300206503002073
S31520000230DB020020990200206503002041020020F5
S3152000024097F84530FF2B08D101230093724B734A50
S315200002500021002003F0A6FB8BE097F84530FE2B0B
S3152000026008D1012300936E4B6C4A0021002003F035
S3152000027099FB7EE097F84530002B7AD097F84530E9
S31520000280142B76D897F845300093664B634A0021A5
S31520000290002003F087FB6CE097F845303B2B6AD9AA
S315200002A097F84530F02B66D897F8453000935E4B8B
S315200002B07A680021002003F075FB5CE097F8453052
S315200002C00A2B5AD897F84530053B0093574B7A6846
S315200002D00021002003F066FB4FE097F84530002B05
S315200002E005D097F845207B681B7F9A4247D100238B
S315200002F000934F4B7A680021002003F053FB3EE029
S31520000300002300934B4B7A680021002003F04AFB20
S3152000031000230093484B7A680021002003F042FB1B
S315200003202EE000230093434B7A680021002003F03F
S3152000033039FB25E0622387F844307B681B7F87F8EA
S31520000340453007F140031A463C49314803F0C8FBC3
S3152000035016E097F845207B681B7F9A4202D17B687E
S3152000036000221A77364B1A463649374803F0B8FB2F
S3152000037006E000BF04E000BF02E000BF00E000BFCF
S3152000038097F844301A4607F120033049184608F0FA
S315200003903FF907F120031A462A492B4803F0A0FB10
S315200003A097F845301A4607F120032949184608F0E0
S315200003B02FF907F120031A462249234803F090FB20
S315200003C01FE097F84430622B1BD197F845301A4628
S315200003D007F10C031F49184608F01AF91E4B1A4656
S315200003E01849194803F07CFB07F10C031A461549F6
S315200003F0154803F075FB194B1A461249124803F0AB
S315200004006FFB00BF5037BD4680BD00BFC1660020D0
S31520000410389E0020EC9F002029150020749900208A
S31520000420ED140020AB140020E512002065140020F6
S315200004307F0E0020A5110020611100208367002077
S31520000440C4930020A3270020189A0020E4930020BC
S31520000450FC9300201494002018940020249400205B
S3152000046080B588B000AF786039600023FB61002337
S31520000470BB617B681B6D002B06D17B6801221A6548
S315200004805C4803F00DFCB1E05A4803F027FC024615
S31520000490594B83FB02135913D317CB1A574901FB28
S315200004A003F3D31A564A82FB03125211DB17D31ACF
S315200004B0FB61504803F0F4FBFB69962B40F39680D2
S315200004C07B689B6D002B08D17B68FA69DA657B68AF
S315200004D09B6D5A1C7B689A6565E07B689B6D012B3A
S315200004E01CD17B68DA6DFB69D31A13F1630F0EDB1F
S315200004F07B68DA6DFB69D31A632B08DC7B68FA69A3
S315200005001A667B689B6D5A1C7B689A654BE07B68F4
S31520000510FA69DA657B6800229A6544E07B681A6E80
S31520000520FB69D31A13F1630F37DB7B681A6EFB69FD
S31520000530D31A632B31DC7B68DA6DFB69D31A13F18E
S31520000540630F2ADB7B68DA6DFB69D31A632B24DC05
S315200005507B68FA695A667B68DA6D7B681B6E1A447B
S315200005607B685B6E1344274A82FB0312DB17D31A80
S315200005704EF6602292FBF3F3BB617B6803F1240005
S31520000580BB69214A1E2107F0F3FF7B6824331A46F4
S315200005901E491F4803F0A4FA02E07B68FA69DA656F
S315200005A07B6800229A657B6893F868305A1CD1B222
S315200005B07A6882F868103B7301237B7307F10C037A
S315200005C0181DFB69134A1E2107F0D2FF07F10C0301
S315200005D00433184607F036FF0346DBB2BB7307F138
S315200005E00C031A460C490D4803F07AFA00BF20374F
S315200005F0BD4680BDE89F002089B5F814A08601007D
S315200006001F85EB515655555534940020A3270020BD
S31520000610189A00201494002083670020389E00201A
S3152000062080B582B000AF786039607B681B7F002B75
S3152000063004D13968786800F011F805E0044B1A46B1
S315200006400449054803F04CFA00BF0837BD4680BD73
S3152000065044940020A3270020189A002080B59AB041
S3152000066002AF786039607B681B7F87F841300023B2
S3152000067087F84030022387F84230012387F85F301D
S315200006803B68DBB21A46B849B84803F029FA3B68FA
S31520000690DBB2203B562B00F2E98201A252F823F06E
S315200006A0610B00206D0C00206D0C00206D0C0020CD
S315200006B06D0C00206D0C00206D0C00206D0C0020B0
S315200006C06D0C00206D0C00206D0C00206D0C0020A0
S315200006D00D0B0020FD070020B90A00206D0C00201C
S315200006E015080020150800201508002015080020F0
S315200006F015080020150800201508002015080020E0
S315200007001508002015080020B90A00200D0B00202E
S315200007106D0C00206D0C00206D0C00206D0C00204F
S315200007206D0C00206D0C00206D0C0020F3090020BC
S315200007306D0C00206D0C00206D0C00206D0C00202F
S315200007406D0C00206D0C00206D0C00206D0C00201F
S315200007506D0C0020830A00206D0C002089090020E2
S31520000760A70B00206D0C0020D70B00206D0C00205D
S31520000770390800201D0C0020030900206D0C0020E4
S315200007806D0C00206D0C00206D0C00206D0C0020DF
S315200007906D0C00206D0C00206D0C00206D0C0020CF
S315200007A06D0C00206D0C00206D0C0020F30900203C
S315200007B06D0C00206D0C00206D0C00206D0C0020AF
S315200007C06D0C00206D0C00206D0C00206D0C00209F
S315200007D06D0C0020830A00206D0C00208909002062
S315200007E0A70B00206D0C0020D70B00206D0C0020DD
S315200007F0390800201D0C0020030900203B68DAB2CE
S315200008007B6883F824207B6801221A62002387F8FC
S315200008105F305CE27B681B6A3A68D1B27A6813441F
S315200008200A4683F824207B681B6A5A1C7B681A6256
S31520000830002387F85F304AE27B681B6A7A68134494
S31520000840002283F824207B6800221A627B682433E6
S31520000850184607F055FE02467B689A637B689A6BBA
S3152000086007F12C034249184607F0D2FE07F12C0364
S315200008701A4640493D4803F033F97B685B69002BF3
S315200008801ED07B689B6BF02B1ADC7B689B6B3B2B0B
S3152000089016DD7B689A6B7B68DA647B68DA6C07F115
S315200008A02C033549184607F0B3FE07F12C031A46E8
S315200008B030492E4803F014F9002387F85F3010E002
S315200008C07B689B6B00932D4B7A680021002003F0F8
S315200008D069F8742387F844307B689B6BDBB287F812
S315200008E045300023BB6508E07A68BB6D134424338A
S315200008F000221A70BB6D0133BB65BB6D132BF3DD74
S31520000900E5E17B681B6A7A681344002283F8242079
S315200009107B6800221A627B682433184607F0F0FDB4
S3152000092002467B689A637B689B6B0093144B154A3F
S315200009300021002003F036F8762387F844307B68C0
S315200009409B6BDBB287F8453000237B6508E07A682D
S315200009507B6D1344243300221A707B6D01337B6533
S315200009607B6D132BF3DDB2E1F7270020189A0020C8
S3152000097074940020A327002080940020E5120020F4
S31520000980AB140020749900207B681B6A7A68134494
S31520000990002283F824207B6800221A627B68243395
S315200009A0184607F0ADFD02467B689A637B689B6B11
S315200009B00093B24B7A680021002002F0F3FF6F23E8
S315200009C087F844307B689B6BDBB20533DBB287F854
S315200009D0453000233B6508E07A683B6D1344243399
S315200009E000221A703B6D01333B653B6D132BF3DD03
S315200009F06DE17B685B69002B39D17B681B6A7A685D
S31520000A001344002283F824207B6800221A627B6824
S31520000A102433184607F074FD02467B689A637B6888
S31520000A209A6B07F12C039649184607F0F1FD07F15A
S31520000A302C031A469349944803F052F80023FB648A
S31520000A4008E07A68FB6C1344243300221A70FB6C8E
S31520000A500133FB64FB6C132BF3DD7B689B6B0093EC
S31520000A608A4B8B4A0021002002F09CFF05E0894B2F
S31520000A701A468449844803F033F8002387F85F3008
S31520000A8025E101230093844B7A680021002002F09F
S31520000A9089FF824B1A467B497B4803F021F8804B1D
S31520000AA01A467849784803F01BF8762387F84430AD
S31520000AB0002387F845300AE101217A4800F016FD27
S31520000AC0024607F12C037849184607F0A1FD762344
S31520000AD087F844300021734800F0DAFC0346DBB285
S31520000AE087F84530714B1A466649674802F0F8FF89
S31520000AF007F12C031A466349634802F0F1FF684B5D
S31520000B001A466049604802F0EBFFE0E001216548A3
S31520000B1000F00AFD024607F12C036349184607F048
S31520000B2077FD624B1A465749574802F0D9FF07F11D
S31520000B302C031A465349544802F0D2FF584B1A4602
S31520000B405049514802F0CCFF762387F844300021E3
S31520000B50544800F09DFC0346DBB287F84530B6E0EA
S31520000B6000230093524B7A680021002002F01AFFDE
S31520000B70504B1A464349444802F0B2FF484B1A46A6
S31520000B804049414802F0ACFF732387F844300023E4
S31520000B9087F845307B68DB6B002B00F097800023BD
S31520000BA087F85F3092E000230093434B7A68002158
S31520000BB0002002F0F7FE414B1A463249324802F035
S31520000BC08FFF374B1A462F492F4802F089FF702393
S31520000BD087F844307BE000230093394B7A68002164
S31520000BE0002002F0DFFE00230093334B7A680021B9
S31520000BF0002002F0D7FE334B1A462249224802F043
S31520000C006FFF274B1A461F491F4802F069FF6523CD
S31520000C1087F844307B6801221A6458E07B681B6A97
S31520000C207A681344002283F824207B6800221A6203
S31520000C307B682433184607F063FC02467B689A6378
S31520000C407B689B6B022B0DDC7B689B6BDAB27B6827
S31520000C501A776D2387F844307B689B6BDBB287F865
S31520000C60453034E0002387F85F3030E0164B1A46D3
S31520000C700449054802F034FF29E000BF651400202E
S31520000C8090940020A3270020189A0020D911002034
S31520000C90909900209C94002025110020BC940020CF
S31520000CA0C49400207499002014940020C894002035
S31520000CB07F0E0020D4940020A5110020E49400206B
S31520000CC061110020EC940020F494002000BF97F8D6
S31520000CD05F30002B16D007F140031A460C490D4809
S31520000CE002F0FEFE97F844301A4607F10C030A4933
S31520000CF0184607F08DFC07F10C031A4607490848E9
S31520000D0002F0EEFE002318466037BD4680BD00BFC8
S31520000D1083670020389E00201C950020A3270020F2
S31520000D20189A002080B584B002AF786039607B685D
S31520000D305B69002B15D07B685A6C3B6813445A427A
S31520000D4003F01F0302F01F0258BF53427A68536410
S31520000D507B68986801230093044B7A68002102F08F
S31520000D6021FE002318460837BD4680BD250D0020EC
S31520000D7080B485B000AF786039600123FB603B68A2
S31520000D80002B47D17B68DB681D2B41D801A252F886
S31520000D9023F000BF0D0E0020110E0020110E0020A2
S31520000DA0110E00200D0E0020110E0020110E002025
S31520000DB0110E00200D0E0020110E0020110E002015
S31520000DC00D0E0020110E0020110E0020110E002005
S31520000DD0110E0020110E0020110E0020110E0020F1
S31520000DE0110E0020110E0020110E0020110E0020E1
S31520000DF0110E0020110E0020110E00200D0E0020D5
S31520000E00110E0020110E00200D0E0020012330E0CF
S31520000E1000232EE03B68042B22D17B68DB680B2B5A
S31520000E201CD801A252F823F0590E00205D0E002096
S31520000E305D0E00205D0E0020590E00205D0E002064
S31520000E405D0E00205D0E0020590E00205D0E002054
S31520000E505D0E0020590E002001230AE0002308E041
S31520000E607B68DB68082B01D00B2B01D1012300E026
S31520000E70002318461437BD465DF8047B704780B5BD
S31520000E8084B002AF78603960134B1A461349144870
S31520000E9002F026FE7B685B69002B17D17B68012256
S31520000EA05A617B6800229A610E4B1A460B490C4800
S31520000EB002F016FE01217868FFF734FF0023009325
S31520000EC0094B7A680021002002F06CFD00231846A9
S31520000ED00837BD4680BD00BF30950020A3270020DF
S31520000EE0189A00203C950020ED0E002080B58EB08B
S31520000EF002AF7860396000233B777B681B7F7B7766
S31520000F000223BB77732387F82030002387F821300C
S31520000F107B685B69002B4ED07B68DB68202B02D177
S31520000F207B680022DA607B68DB68574A52F82330F8
S31520000F30002B02D0022B07D00BE07B689B68DA0FD0
S31520000F4013445B10FB6208E07B689B685B00FB62D6
S31520000F5003E07B689B68FB6200BF7B68DB684B4ACB
S31520000F6052F823207B681B6913440A33484A52F8F7
S31520000F702330BB62BA6A4749474802F0B1FD7B6815
S31520000F809B69002B04D100224449434802F0A8FD66
S31520000F90FB6AA3F59C500838012300933F4B3E4A39
S31520000FA00A2102F0FFFC002300933D4B7A680A21B8
S31520000FB0F86A02F0F7FC7B68DB6B002B45D07B6878
S31520000FC01B6C022B41DC7B68DB687A68D26B93FB57
S31520000FD0F2F102FB01F29B1A002B36D17B68DB680B
S31520000FE0002B32D07B681B6CDBB287F821307B6804
S31520000FF01B6C5A1C7B681A642A4B1A462A492B48B2
S3152000100002F06EFD97F8213030331A4628492748DA
S3152000101002F066FD0A222649244802F061FD7B681B
S31520001020DA6807F108032349184607F0F1FA07F1B1
S3152000103008031A461C491D4802F052FD07F11C03FD
S315200010401A461D491D4802F04BFD7B68DB6C002BC0
S3152000105010D07B68DB6B19467868FFF789FE03465C
S31520001060002B07D000230093154B7A6800216420BB
S3152000107002F098FC7B68DB685A1C7B68DA600023E8
S3152000108018463037BD4680BD1C9200209C9100201A
S3152000109038910020CD150020749900207F1500205E
S315200010A0ED0E002050950020A3270020189A00203E
S315200010B0F72700206095002083670020389E0020B7
S315200010C0C510002080B588B002AF786039607B6893
S315200010D01B7F7B7300233B730223BB7374233B74F8
S315200010E07B68DB6CDBB27B7407F10C031A460A497A
S315200010F00A4802F0F5FC7B68DB6C0093084B7A68A3
S315200011000021002002F04EFC7B680022DA640023D6
S3152000111018461837BD4680BD83670020389E0020BC
S31520001120E512002080B582B000AF786039600122D8
S3152000113009490A4802F0D4FC7B689B69002B0CBF46
S3152000114001230023DBB21A467B689A6100231846E6
S315200011500837BD4680BD00BF7F150020749900204A
S3152000116080B582B000AF786039607B680022DA6093
S3152000117001220749074802F0B3FC074B1A460749E4
S31520001180074802F0ADFC002318460837BD4680BD4F
S315200011907F1500207499002070950020A327002039
S315200011A0189A002080B582B000AF786039607B68DD
S315200011B000225A61054B1A460549064802F090FC62
S315200011C0002318460837BD4680BD00BF8C950020F9
S315200011D0A3270020189A002080B483B000AF78603F
S315200011E039607B685B69002B08D13B68002B05DBE7
S315200011F03B68082B02DC7B683A68DA6300231846D2
S315200012000C37BD465DF8047B704780B588B000AFCB
S31520001210786039607B689A682A4B83FB02135913DE
S31520001220D317CB1A284901FB03F3D31A274A82FB8B
S3152000123003125211DB17D31A4EF6602292FBF3F3F8
S31520001240FB6107F10803FA692149184607F0E0F91E
S3152000125007F108031A461F491F4802F041FC1F4B9D
S315200012601A461C491C4802F03BFCFA693B681344A9
S31520001270FB61FB693B2B01DC3C23FB6107F1080387
S31520001280FA691349184607F0C3F907F108031A4605
S315200012901049114802F024FC114B1A460D490E48FC
S315200012A002F01EFC4EF66022FB6992FBF3F36422E9
S315200012B002FB03F27B689A60002318462037BD465E
S315200012C080BD00BF89B5F814A08601001F85EB51AB
S315200012D014940020A3270020189A00209C95002013
S315200012E0B495002080B58AB000AF7860396007F1E8
S315200012F00C033A682749184607F08AF9264B1A46FE
S315200013002649274802F0ECFB07F10C031A4623492D
S31520001310234802F0E5FB3B683B2B04DD3B68F02BC2
S3152000132001DC3B687B624EF660227B6A92FBF3F31C
S31520001330642202FB03F27B689A607B689A68194BE9
S3152000134083FB02135913D317CB1A174901FB03F357
S31520001350D31A164A82FB03125211DB17D31A3B62A9
S3152000136007F10C033A6A1249184607F051F907F1BA
S315200013700C031A4609490A4802F0B2FB0D4B1A46DD
S315200013800649074802F0ACFB002318462837BD461D
S3152000139080BD00BFC8950020D4950020A32700203B
S315200013A0189A002089B5F814A08601001F85EB51F4
S315200013B0E0950020C494002080B586B000AF786008
S315200013C039607B681B697B617A693B681344052B0E
S315200013D002DC3B68002B08DC7A693B68134413F176
S315200013E0050F12DB3B68002B0FDA7A693B68134442
S315200013F07B617B69052B01DD05237B617B6913F10D
S31520001400050F02DA6FF004037B6107F108037A699E
S315200014100F49184607F0FCF80E4B1A460E490F489E
S3152000142002F05EFB07F108031A460B490B4802F04F
S3152000143057FB0B4B1A460849084802F051FB7B68BC
S315200014407A691A61002318461837BD4680BD00BF49
S3152000145014940020EC950020A3270020189A002041
S315200014600096002080B483B000AF786039603B6876
S31520001470052B06DC3B6813F1050F02DB7B683A6817
S315200014801A61002318460C37BD465DF8047B704769
S3152000149080B483B000AF786039607B681B691846DA
S315200014A00C37BD465DF8047B704780B582B000AF2F
S315200014B0786039603B68142B0BDC3B68002B08DB1B
S315200014C07B683A681A61064B1A460649064802F0B6
S315200014D007FB7B681B6918460837BD4680BD00BFE1
S315200014E004960020A3270020189A002080B483B0F9
S315200014F000AF786039607B681B69132B0CDC7B6836
S315200015001A693B681A447B681A617B681B69142B2D
S3152000151002DD7B6814221A617B681B6918460C372A
S31520001520BD465DF8047B704780B483B000AF786019
S3152000153039607B681B69132B0CDC7B681A693B6856
S31520001540D21A7B681A617B681B69002B02DC7B68D8
S3152000155001221A617B681B6918460C37BD465DF867
S31520001560047B704780B483B000AF786039607B68B5
S315200015709B6918460C37BD465DF8047B704780B4DE
S3152000158083B000AF786039607B683A689A617B687F
S315200015909B6918460C37BD465DF8047B704780B4BE
S315200015A083B000AF786039603B68074A82FB03123C
S315200015B09210DB17D21A7B68DA60002318460C37A4
S315200015C0BD465DF8047B70476766666680B483B067
S315200015D000AF786039603B68074A82FB031292109D
S315200015E0DB17D21A7B68DA60002318460C37BD4613
S315200015F05DF8047B704700BF6766666680B584B079
S3152000160002AF786039607B689B69002B14D17B68B8
S315200016101B7A002B0CBF01230023DBB2DAB27B68D6
S315200016201B69DBB212FB03F3DAB27B681A72104B2A
S315200016301B687A68127A1A707B685B69002B09D05E
S315200016407B68D868002300930A4B7A680A2102F047
S31520001650A9F908E07B68D86800230093054B7A68CF
S31520001660002102F09FF9002318460837BD4680BDA9
S31520001670F0980020FD15002080B483B000AF78607C
S3152000168039607B685B6918460C37BD465DF8047B7C
S31520001690704780B483B000AF786039607B685B693F
S315200016A0002B0CBF01230023DBB21A467B685A614C
S315200016B07B685B6918460C37BD465DF8047B70472E
S315200016C080B483B000AF786039607B689B68184629
S315200016D00C37BD465DF8047B704780B483B000AFFD
S315200016E0786039607B689B6803F5FA727B689A603C
S315200016F0002318460C37BD465DF8047B704780B43E
S3152000170083B000AF786039607B689B68B3F57A7FD9
S3152000171005DD7B689B68A3F5FA727B689A600023D7
S3152000172018460C37BD465DF8047B704780B483B0FD
S3152000173000AF786039607B68DB68002B0CBF012323
S315200017400023DBB21A467B68DA607B68DB681846C2
S315200017500C37BD465DF8047B704780B58CB002AF70
S315200017607860396002F0DAFA03465B4A82FB03129C
S315200017705113DA178A1A594901FB02F29A1A1346AB
S315200017809B0013445B003B627B681B69B3F5FA7FC1
S3152000179049DA00237B6202E07B6A01337B627B6845
S315200017A09B687A6A9A42F7DB02F0B8FA03464A4AFD
S315200017B082FB03125113DA178A1A484901FB02F2F7
S315200017C09A1A13469B0013445B00FB61FA693B6A35
S315200017D0D31A3B627B689B693A6A9A4202DD7B6830
S315200017E03A6A9A617B685A693B6A1A447B685A61ED
S315200017F07B681B695A1C7B681A617B68DB68002B37
S3152000180008D000230093364B7A688221822002F08A
S31520001810C9F85CE000230093314B7A6800218220CE
S3152000182002F0C0F853E07B685A6907F108032D4996
S31520001830184606F0EDFE2C4B1A462C492C4802F091
S315200018404FF907F108031A462849294802F048F9B2
S315200018500A222849264802F043F97B689A6907F14B
S3152000186008032049184606F0D3FE234B1A461F4983
S315200018701F4802F035F907F108031A461B491C4890
S3152000188002F02EF90A221B49194802F029F97B6831
S315200018905B691A4A82FB03125211DB17D21A07F12F
S315200018A008031049184606F0B3FE154B1A460F4991
S315200018B00F4802F015F907F108031A460B490C48A0
S315200018C002F00EF90A220B49094802F009F9002311
S315200018D018462837BD4680BD89B5F814A086010074
S315200018E05B1700201496002018960020A3270020BE
S315200018F0189A0020F727002030960020D34D62103A
S315200019004896002080B584B002AF78603960002206
S315200019100F49104802F0E4F800220F490F4802F060
S31520001920DFF80F48FEF77AFB00220E490E4802F038
S31520001930D7F8322300930D4B0D4A0021002002F0E8
S3152000194031F80C4B01221A6400BF0837BD4680BD12
S3152000195085640020389E0020FD260020189A00204D
S3152000196010A00020B12D0020B89E0020FD150020DB
S31520001970749900209099002080B500AF00220B4971
S315200019800B4802F0A1FA01220A490B4802F09CFA00
S3152000199002220A490A4802F097FA002209490A480F
S315200019A002F0F6FA0023184680BD00BF2D2800203D
S315200019B0189A002045650020389E0020412E0020E0
S315200019C0B89E0020051900209099002080B400AF11
S315200019D0164B1B68154A43F001031360134B002274
S315200019E09A60124B1B68114A23F0A85323F4102344
S315200019F013600E4B0E4A5A600C4B0E4AC3F88420D5
S31520001A000A4B0D4AC3F88820084B1B68074A23F463
S31520001A1080231360054B0022DA60044B0022C3F8B2
S31520001A208C2000BFBD465DF8047B7047003802401D
S31520001A3010300024003000200030002480B483B011
S31520001A4000AF0346FB71064B00221A70044AFB794D
S31520001A50137000BF0C37BD465DF8047B704700BF8E
S31520001A600238024080B582B000AF00233B600023DD
S31520001A70FB710023BB71312000F086FD0346BB714C
S31520001A803B6801333B603B68B3F5A04F02D0BB797E
S31520001A90002BF0D0312000F077FD0346002B02D03A
S31520001AA00123FB7101E00023FB71FB7918460837FF
S31520001AB0BD4680BD80B485B000AF0346FB710023D0
S31520001AC0FB600A4B1B68FB60FB6823F0F803FB6096
S31520001AD0FB79DB00FA681343FB60044AFB6813605A
S31520001AE000BF1437BD465DF8047B704700380240BE
S31520001AF080B483B000AF0346FB71044AFB791360C0
S31520001B0000BF0C37BD465DF8047B70470000474296
S31520001B1080B483B000AF0346FB710D4B00221A70D0
S31520001B200B4B00221A70FB79012B02D0042B04D018
S31520001B3007E0074B01221A7003E0054B05221A70B5
S31520001B4000BF00BF0C37BD465DF8047B704700BF61
S31520001B507038024080B483B000AF0346FB71044A5C
S31520001B60FB79136000BF0C37BD465DF8047B7047D8
S31520001B70800E474280B485B000AFF860B9607A60C5
S31520001B803B607B689A01BB681A433B685B08013B54
S31520001B901B041A43FB681A43BB691B0604491343FB
S31520001BA04B6000BF1437BD465DF8047B704700BF0D
S31520001BB00038024080B483B000AF0346FB71044A6C
S31520001BC0FB79136000BF0C37BD465DF8047B704778
S31520001BD06000474280B483B000AF786039607B688C
S31520001BE09A013B681B0705491343C1F8843000BF9F
S31520001BF00C37BD465DF8047B704700BF00380240B5
S31520001C0080B483B000AF0346FB71044AFB791360AE
S31520001C1000BF0C37BD465DF8047B7047680047421D
S31520001C2080B485B000AFF860B9607A60FB689A012D
S31520001C30BB681B061A437B681B0705491343C1F87B
S31520001C40883000BF1437BD465DF8047B704700BF5F
S31520001C500038024080B483B000AF0346FB71044ACB
S31520001C60FB79136000BF0C37BD465DF8047B7047D7
S31520001C707000474280B483B000AF0346FB71044A2C
S31520001C80FB79136000BF0C37BD465DF8047B7047B7
S31520001C904C00474280B485B000AF7860396000239D
S31520001CA0FB600B4B9B68FB60FB6823F0EC63FB60DF
S31520001CB07A683B681343FA681343FB60044AFB685F
S31520001CC0936000BF1437BD465DF8047B704700BFA4
S31520001CD00038024080B485B000AF786039600023B8
S31520001CE0FB600B4B9B68FB60FB6823F07843FB6033
S31520001CF07A683B681343FA681343FB60044AFB681F
S31520001D00936000BF1437BD465DF8047B704700BF63
S31520001D100038024080B485B000AF78600023FB60B5
S31520001D20094B9B68FB60FB6823F00303FB60FA68A2
S31520001D307B681343FB60044AFB68936000BF14373B
S31520001D40BD465DF8047B70470038024080B400AF82
S31520001D50054B9B68DBB203F00C03DBB21846BD468D
S31520001D605DF8047B704700BF0038024080B485B020
S31520001D7000AF78600023FB60094B9B68FB60FB6823
S31520001D8023F0F003FB60FA687B681343FB60044A88
S31520001D90FB68936000BF1437BD465DF8047B70472F
S31520001DA00038024080B485B000AF78600023FB6025
S31520001DB0094B9B68FB60FB6823F4E053FB60FA68E1
S31520001DC07B681343FB60044AFB68936000BF1437AB
S31520001DD0BD465DF8047B70470038024080B485B06C
S31520001DE000AF78600023FB600A4B9B68FB60FB68B2
S31520001DF023F46043FB607B68DB00FA681343FB60D7
S31520001E00044AFB68936000BF1437BD465DF8047B27
S31520001E10704700BF0038024080B489B000AF7860B8
S31520001E200023BB6100237B610023FB6102233B610E
S31520001E300023FB600223BB60484B9B6803F00C0326
S31520001E40BB61BB69042B09D0BB69082B0AD0BB69CF
S31520001E50002B3DD17B68424A1A603DE07B68414AAF
S31520001E601A6039E03D4B5B689B0D03F00103FB6074
S31520001E703A4B5B6803F03F03BB60FB68002B0CD03A
S31520001E80384ABB68B2FBF3F3344A52689209C2F36C
S31520001E90080202FB03F3FB610BE0314ABB68B2FB8D
S31520001EA0F3F32E4A52689209C2F3080202FB03F3A7
S31520001EB0FB612A4B5B681B0C03F0030301335B00B9
S31520001EC03B61FA693B69B2FBF3F27B681A6003E077
S31520001ED07B68234A1A6000BF204B9B6803F0F003FF
S31520001EE0BB61BB691B09BB611F4ABB6913441B78D5
S31520001EF0DBB27B617B681A687B69DA407B685A6053
S31520001F00164B9B6803F4E053BB61BB699B0ABB611C
S31520001F10154ABB6913441B78DBB27B617B685A6820
S31520001F207B69DA407B689A600C4B9B6803F46043BC
S31520001F30BB61BB695B0BBB610B4ABB6913441B7856
S31520001F40DBB27B617B685A687B69DA407B68DA6042
S31520001F5000BF2437BD465DF8047B70470038024039
S31520001F600024F40000127A00CC9E002080B485B0B4
S31520001F7000AF78600023FB607B6803F44073B3F501
S31520001F80407F11D10F4B9B68FB60FB6823F4F8134D
S31520001F90FB607B6823F0704323F44073FA68134395
S31520001FA0FB60084AFB689360064B1A6F7B68C3F395
S31520001FB00B03044913430B6700BF1437BD465DF876
S31520001FC0047B70470038024080B483B000AF0346DC
S31520001FD0FB71044AFB79136000BF0C37BD465DF8E0
S31520001FE0047B70473C0E474280B483B000AF034663
S31520001FF0FB71044AFB79136000BF0C37BD465DF8C0
S31520002000047B7047400E474280B483B000AF7860AF
S31520002010044A7B68136000BF0C37BD465DF8047B1D
S31520002020704700BF5C01474280B485B000AF78603E
S315200020300023FB600B4BD3F88C30FB60FB6823F04E
S315200020401F03FB607B68013BFA681343FB60054A6C
S31520002050FB68C2F88C3000BF1437BD465DF8047BA0
S31520002060704700BF0038024080B485B000AF78606A
S315200020700023FB600B4BD3F88C30FB60FB6823F40A
S31520002080F853FB607B68013B1B02FA681343FB6035
S31520002090044AFB68C2F88C3000BF1437BD465DF891
S315200020A0047B70470038024080B485B000AF78606A
S315200020B00023FB600A4BD3F88C30FB60FB6823F4CB
S315200020C04013FB60FA687B681343FB60044AFB6895
S315200020D0C2F88C3000BF1437BD465DF8047B7047CC
S315200020E00038024080B485B000AF78600023FB60E2
S315200020F00A4BD3F88C30FB60FB6823F44003FB606B
S31520002100FA687B681343FB60044AFB68C2F88C308C
S3152000211000BF1437BD465DF8047B70470038024087
S3152000212080B485B000AF78600023FB600A4BD3F8FB
S315200021308C30FB60FB6823F44033FB60FA687B68D5
S315200021401343FB60044AFB68C2F88C3000BF143787
S31520002150BD465DF8047B70470038024080B483B0EA
S3152000216000AF7860044A7B68136000BF0C37BD4619
S315200021705DF8047B704700BFE011474280B483B00E
S3152000218000AF78600B46FB70FB78002B06D00A4B1D
S315200021901A6B09497B6813430B6306E0064B1A6BDF
S315200021A07B68DB43044913400B6300BF0C37BD46F5
S315200021B05DF8047B704700BF0038024080B483B0CE
S315200021C000AF78600B46FB70FB78002B06D00A4BDD
S315200021D05A6B09497B6813434B6306E0064B5A6BDF
S315200021E07B68DB43044913404B6300BF0C37BD4675
S315200021F05DF8047B704700BF0038024080B483B08E
S3152000220000AF78600B46FB70FB78002B06D00A4B9C
S315200022109A6B09497B6813438B6306E0064B9A6BDE
S315200022207B68DB43044913408B6300BF0C37BD46F4
S315200022305DF8047B704700BF0038024080B483B04D
S3152000224000AF78600B46FB70FB78002B06D00A4B5C
S315200022501A6C09497B6813430B6406E0064B1A6C1B
S315200022607B68DB43044913400B6400BF0C37BD4633
S315200022705DF8047B704700BF0038024080B483B00D
S3152000228000AF78600B46FB70FB78002B06D00A4B1C
S315200022905A6C09497B6813434B6406E0064B5A6C1B
S315200022A07B68DB43044913404B6400BF0C37BD46B3
S315200022B05DF8047B704700BF0038024080B483B0CD
S315200022C000AF78600B46FB70FB78002B06D00A4BDC
S315200022D01A6909497B6813430B6106E0064B1A69A4
S315200022E07B68DB43044913400B6100BF0C37BD46B6
S315200022F05DF8047B704700BF0038024080B483B08D
S3152000230000AF78600B46FB70FB78002B06D00A4B9B
S315200023105A6909497B6813434B6106E0064B5A69A3
S315200023207B68DB43044913404B6100BF0C37BD4635
S315200023305DF8047B704700BF0038024080B483B04C
S3152000234000AF78600B46FB70FB78002B06D00A4B5B
S315200023509A6909497B6813438B6106E0064B9A69A3
S315200023607B68DB43044913408B6100BF0C37BD46B5
S315200023705DF8047B704700BF0038024080B483B00C
S3152000238000AF78600B46FB70FB78002B06D00A4B1B
S315200023901A6A09497B6813430B6206E0064B1A6AE0
S315200023A07B68DB43044913400B6200BF0C37BD46F4
S315200023B05DF8047B704700BF0038024080B483B0CC
S315200023C000AF78600B46FB70FB78002B06D00A4BDB
S315200023D05A6A09497B6813434B6206E0064B5A6AE0
S315200023E07B68DB43044913404B6200BF0C37BD4674
S315200023F05DF8047B704700BF0038024080B483B08C
S3152000240000AF78600B46FB70FB78002B06D00A4B9A
S315200024101A6D09497B6813430B6506E0064B1A6D56
S315200024207B68DB43044913400B6500BF0C37BD4670
S315200024305DF8047B704700BF0038024080B483B04B
S3152000244000AF78600B46FB70FB78002B06D00A4B5A
S315200024505A6D09497B6813434B6506E0064B5A6D56
S315200024607B68DB43044913404B6500BF0C37BD46F0
S315200024705DF8047B704700BF0038024080B483B00B
S3152000248000AF78600B46FB70FB78002B06D00A4B1A
S315200024909A6D09497B6813438B6506E0064B9A6D56
S315200024A07B68DB43044913408B6500BF0C37BD4670
S315200024B05DF8047B704700BF0038024080B483B0CB
S315200024C000AF78600B46FB70FB78002B06D00A4BDA
S315200024D01A6E09497B6813430B6606E0064B1A6E93
S315200024E07B68DB43044913400B6600BF0C37BD46AF
S315200024F05DF8047B704700BF0038024080B483B08B
S3152000250000AF78600B46FB70FB78002B06D00A4B99
S315200025105A6E09497B6813434B6606E0064B5A6E92
S315200025207B68DB43044913404B6600BF0C37BD462E
S315200025305DF8047B704700BF0038024080B483B04A
S3152000254000AF03460A46FB711346BB71BB79002BCD
S3152000255008D00C4B1B78DAB20A49FB791343DBB25D
S315200025600B7009E0074B1B78DAB2FB79DB43DBB251
S3152000257004491340DBB20B7000BF0C37BD465DF833
S31520002580047B70470D38024080B487B000AF034605
S31520002590FB710023FB6000237B610023FB74FB7926
S315200025A05B09DBB2FB60FB68012B03D1124B1B6876
S315200025B07B6109E0FB68022B03D10F4B1B6F7B610C
S315200025C002E00D4B5B6F7B61FB7903F01F03FB6021
S315200025D07A69FB6822FA03F303F00103002B02D089
S315200025E00123FB7401E00023FB74FB7C18461C3797
S315200025F0BD465DF8047B70470038024080B400AFCA
S31520002600054B5B6F044A43F08073536700BFBD469A
S315200026105DF8047B704700BF0038024080B485B067
S3152000262000AF0346FB710023FB73094BDA68FB7985
S315200026301340002B02D00123FB7301E00023FB7320
S31520002640FB7B18461437BD465DF8047B704700BFF8
S315200026500038024080B483B000AF0346FB71044AC1
S31520002660FB79137000BF0C37BD465DF8047B7047BD
S315200026700E38024080B483B000AF0346FB71FB796D
S3152000268003F01F03012202FA03F1064A97F90730E5
S315200026905B0942F8231000BF0C37BD465DF8047B6A
S315200026A0704700BF00E100E080B483B000AF03466E
S315200026B03960FB7197F90730002B0BDA3B68DAB2E9
S315200026C00C49FB7903F00F03043B1201D2B20B44F1
S315200026D01A7609E03B68DAB2074997F90730120102
S315200026E0D2B20B4483F8002300BF0C37BD465DF8F9
S315200026F0047B704700ED00E000E100E080B582B089
S3152000270000AF786039607B6800229A617B689A699D
S315200027107B685A617B685A697B68DA61012240F2DC
S3152000272025510A4803F0D2FC002240F227710748BF
S3152000273003F0CCFC02212520FFF7B6FF2520FFF76A
S3152000274099FF00BF0837BD4680BD00BF001001407D
S3152000275080B483B000AF78600B46FB707B68DB6982
S31520002760B3F5806F17DA7B685B697A681344FA7869
S3152000277083F820207B685B6901335A42C3F309033F
S31520002780C2F3090258BF53427A6853617B68DB69FA
S315200027905A1C7B68DA6100BF0C37BD465DF8047BA6
S315200027A0704780B582B000AF786039607B68DB699E
S315200027B0002B18D17B689B68012240F227711846AE
S315200027C003F084FC0FE03B681B780A2B03D10D2114
S315200027D07868FFF7BDFF3B685A1C3A601B7819469C
S315200027E07868FFF7B5FF3B681B78002BEBD100BF5D
S315200027F00837BD4680BD80B582B000AF78603960AD
S315200028007B68DB69002B07D17B689B68012240F23D
S315200028102771184603F05AFC3B68DBB219467868E4
S31520002820FFF796FF00BF0837BD4680BD80B586B04E
S3152000283002AF786039607B689B682021184603F0D8
S315200028408DFC0346012B18D17B689B68184603F044
S31520002850A8FA0346FB607B68DB68002B0DD07B68FB
S31520002860DA687B681969FB6800930B460021002013
S3152000287001F098F8234B01221A607B689B6880211F
S31520002880184603F06BFC0346012B35D17B68DB69C8
S31520002890002B29DD7B6898687B689B697A681344DE
S315200028A093F820309BB2194603F069FA7B689B693E
S315200028B001335A42C3F30903C2F3090258BF5342F4
S315200028C07A6893617B68DB695A1E7B68DA617B686C
S315200028D0DB69002B10D17B689B68002240F22771B0
S315200028E0184603F0F3FB07E07B689B68002240F262
S315200028F02771184603F0EAFB002318461037BD4619
S3152000290080BD00BFF09F002080B400AF00BFBD4651
S315200029105DF8047B704780B586B000AF454802F06D
S31520002920A1FD454801F066FB444801F063FB012107
S315200029304FF00070FFF782FC01214FF08060FFF717
S315200029407DFC01210220FFF719FC092209213948C3
S3152000295002F0A9FF09220821364802F0A4FF07F158
S315200029601003184602F0BEFE4FF400733B610223AB
S315200029703B750023BB750023FB7502237B7507F18E
S31520002980100319462B4802F01FFE4FF480733B615B
S3152000299002233B750023BB750123FB7502237B7540
S315200029A007F110031946234802F00EFE09220621DC
S315200029B0204802F078FF092205211E4802F073FF05
S315200029C040233B6102233B750023BB750023FB7527
S315200029D002237B7507F110031946164802F0F4FD11
S315200029E020233B6102233B750023BB750123FB7526
S315200029F002237B7507F1100319460E4802F0E4FD09
S31520002A000023BB720023FB7201233B7300233B8010
S31520002A1000237B800023BB800023FB8000233B8197
S31520002A2001237B733B46184601F0D9FB00BF1837BC
S31520002A30BD4680BD0004024000640040006800409E
S31520002A4080B586B000AF01214FF00050FFF7F6FBAE
S31520002A5007F11003184602F045FE20233B610323AD
S31520002A603B750023FB7507F1100319460F4802F04A
S31520002A70ABFD02F0CFFA3B46184602F00DFB0023D1
S31520002A803B6000237B600023FB603B4619461020F9
S31520002A9002F0CEFA0121102002F014FB00210820BA
S31520002AA002F0BEFB00BF1837BD4680BD00000240C5
S31520002AB080B584B000AF01214FF48040FFF7DEFBE4
S31520002AC00721012003F01EFC00F0E8F93B461846DA
S31520002AD000F070FA80233B6000233B710C237B714E
S31520002AE00123BB713B46184600F0F2F907F10803B3
S31520002AF0184602F0F7FD0223BB6001233B73012336
S31520002B00BB730023FB7301237B7307F1080319466C
S31520002B10184802F059FD0123BB6001233B730123B2
S31520002B20BB730023FB7301237B7307F1080319464C
S31520002B30104802F049FD012202210E4802F07AFED9
S31520002B40012201210B4802F075FE8023BB60002381
S31520002B503B730023BB730023FB7301237B7307F1B5
S31520002B6008031946034802F02FFD00BF1037BD4663
S31520002B7080BD00BF0004024080B483B000AFEFF3F5
S31520002B8014833B603B6823F003037B607B6883F3FD
S31520002B9014880A4B4FF404725A61084B5B69074A42
S31520002BA043F008035361064B4FF000425A6000BFC2
S31520002BB00C37BD465DF8047B704700BF00ED00E092
S31520002BC030EF00E080B500AF01210820FFF736FB8B
S31520002BD001210820FFF772FC00BF80BD80B400AF42
S31520002BE0124A02E0002342F8043B114B9A42F9D3E1
S31520002BF000BFBD465DF8047B704780B500AFFFF788
S31520002C00EDFFFFF781FEFFF786FEFFF719FFFFF7BF
S31520002C104FFFFFF7B1FFFFF7D5FF00BF80BD80B4A0
S31520002C2000AF00BFBD465DF8047B7047E89F0020DB
S31520002C3028240120314900E03149EFF3088020EDB6
S31520002C40108A7246EFF3118320E9FC0F2D4FD7F837
S31520002C500080C8F800001EE0084600F06BFA2A48FB
S31520002C6000F068FA294800F065FAD8F8040000F068
S31520002C70ABFA274800F05EFAD8F8000000F076FAA2
S31520002C80244800F057FAD8F80000006800F06EFAE1
S31520002C901D4800F04FFADFF88080D8F80080C7F88A
S31520002CA0008018E01D4800F045FAD8F8040000F02E
S31520002CB08BFA1B4800F03EFAD8F8000000F056FACE
S31520002CC0144800F037FAD8F80000006800F04EFAF1
S31520002CD00D4800F02FFA134A536843F000635360FF
S31520002CE000BFD8F80000B0E8FC0F83F311889646A1
S31520002CF0B0EC108A80F3088870470000DC9E002024
S31520002D00ED9E0020809F00205D9F00200E9F0020CA
S31520002D10269F00202E9F0020CCA00020379F002039
S31520002D204C9F002000ED00E080B483B000AF034646
S31520002D30FB71FB7903F01F03012202FA03F1064A15
S31520002D4097F907305B0942F8231000BF0C37BD46C0
S31520002D505DF8047B704700BF00E100E080B483B0DB
S31520002D6000AF03463960FB7197F90730002B0BDA69
S31520002D703B68DAB20C49FB7903F00F03043B1201DE
S31520002D80D2B20B441A7609E03B68DAB2074997F9C2
S31520002D9007301201D2B20B4483F8002300BF0C3750
S31520002DA0BD465DF8047B704700ED00E000E100E0E1
S31520002DB080B582B000AF78603960002201210748D3
S31520002DC002F038FD02211720FFF7C8FF1720FFF772
S31520002DD0ABFF00BF0837BD4680BD00BF00040240E0
S31520002DE080B582B000AF786039607B689B688021AF
S31520002DF0184602F0B3FC034618460837BD4680BD88
S31520002E0080B582B000AF786039607B689B683A688D
S31520002E10D2B20121184602F00DFD00BF0837BD468B
S31520002E2080BD80B582B000AF786039607B689B68D2
S31520002E300121184602F025FD00BF0837BD4680BD9A
S31520002E4080B584B002AF78603960802000F004F944
S31520002E500346012B15D1802000F018F97B68DB682A
S31520002E60002B11D07B68DA687B68196900230093F0
S31520002E700B460021002000F095FD064B01221A602A
S31520002E8002E0054800F056F9002318460837BD46EB
S31520002E9080BD00BFF09F00206096002080B400AF68
S31520002EA0094B00221A60084B00225A60064B00226A
S31520002EB09A60054B0022DA60034B044A5A6100BF30
S31520002EC0BD465DF8047B7047003C0140FFFF7F0054
S31520002ED080B485B000AF78600023FB60344BFB6084
S31520002EE07B689B79002B4FD0314B1A687B681B6817
S31520002EF0DB432F4913400B602D4B5A687B681B68B8
S31520002F00DB432B4913404B607B681B791A46FB68D1
S31520002F101344FB60FB6819687B681A68FB680A43E0
S31520002F201A60234B9A687B681B68DB432049134051
S31520002F308B601F4BDA687B681B68DB431C49134098
S31520002F40CB607B685B79102B0ED1194B9A687B6816
S31520002F501B68174913438B60154BDA687B681B681F
S31520002F6013491343CB601DE0114BFB607B685B79F3
S31520002F701A46FB681344FB60FB6819687B681A686D
S31520002F80FB680A431A600DE07B681B791A46FB68CA
S31520002F901344FB60FB6819687B681B68DA43FB688F
S31520002FA00A401A6000BF1437BD465DF8047B70479F
S31520002FB0003C014080B483B000AF78607B6800227B
S31520002FC01A607B6800221A717B680C225A717B6812
S31520002FD000229A7100BF0C37BD465DF8047B70470E
S31520002FE080B483B000AF7860054B1A6904497B68CA
S31520002FF013430B6100BF0C37BD465DF8047B704759
S31520003000003C014080B485B000AF78600023FB739C
S31520003010084B5A697B681340002B02D00123FB73AF
S3152000302001E00023FB73FB7B18461437BD465DF891
S31520003030047B7047003C014080B483B000AF7860C9
S31520003040044A7B68536100BF0C37BD465DF8047B9C
S31520003050704700BF003C014080B485B000AF786067
S315200030600023FB73084B5A697B681340002B02D060
S315200030700123FB7301E00023FB73FB7B1846143707
S31520003080BD465DF8047B7047003C014080B483B0A8
S3152000309000AF7860044A7B68536100BF0C37BD4699
S315200030A05DF8047B704700BF003C014080B483B0CC
S315200030B000AF0346FB71FB7903F01F03012202FADE
S315200030C003F1064A97F907305B0942F8231000BF3F
S315200030D00C37BD465DF8047B704700BF00E100E079
S315200030E080B483B000AF03463960FB7197F907308F
S315200030F0002B0BDA3B68DAB20C49FB7903F00F039D
S31520003100043B1201D2B20B441A7609E03B68DAB2CC
S31520003110074997F907301201D2B20B4483F80023EE
S3152000312000BF0C37BD465DF8047B704700ED00E01C
S3152000313000E100E080B582B000AF78600EE07B68E9
S315200031401B780D2B07D07B685A1C7A601B78184693
S3152000315000F05CF902E07B6801337B607B681B78BA
S31520003160002BECD100BF0837BD4680BD80B586B0A8
S3152000317000AF786000237B617B6803F00F027B69D8
S31520003180591C79610F498A5C07F118010B4403F831
S315200031900C2C7B681B097B607B68002BECD10AE03A
S315200031A07B69013B7B6107F10C027B6913441B7829
S315200031B0184600F02BF97B69002BF1D100BF183798
S315200031C0BD4680BD609F002080B59EB000AF786070
S315200031D07B68002B02DA4FF0FF3300E001233B67C8
S315200031E07B683A6F02FB03F37B6000237B67796879
S315200031F01C4B83FB01239A10CB17D21A13469B0034
S3152000320013445B00CA1A7B6F591C796716498A5C7E
S3152000321007F178010B4403F86C2C7B68114A82FB7A
S3152000322003129210DB17D31A7B607B68002BDED14A
S315200032303B6F002B0EDA2D2000F0E8F80AE07B6FBA
S31520003240013B7B6707F10C027B6F13441B78184602
S3152000325000F0DCF87B6F002BF1D100BF7837BD463C
S3152000326080BD00BF67666666609F002080B483B01D
S3152000327000AF10237B607B6883F3118800BF0C3777
S31520003280BD465DF8047B704780B483B000AF302321
S315200032907B607B6883F3118800BF0C37BD465DF8E1
S315200032A0047B704780B584B000AF78600B48FFF789
S315200032B041FF0B4B1B68002B02D1094B094A1A60B0
S315200032C0074B1B68FB60064B1A687B681344044A4D
S315200032D01360FB6818461037BD4680BD84960020D3
S315200032E010A400202824012080B485B000AF786087
S315200032F039603B6803F5F95310337A6813607B68AD
S315200033001B68BB600023FB600AE0FB689B001A4633
S31520003310BB6813441A4600231360FB680133FB6025
S31520003320FB68332BF1DDBB686FF016021A60BB68B1
S3152000333004331A4603231360BB6884331A464FF0BE
S315200033408073136000BF1437BD465DF8047B704759
S3152000335080B485B000AF786039607B681B688033A5
S31520003360FB60FB683A681A6000BF1437BD465DF8FB
S31520003370047B704780B584B000AF1D4803F056FA31
S315200033803B1D184603F09EFB40F24733BB803B1D96
S315200033901946174803F02AFB164B174A1A600221D2
S315200033A06FF00100FFF79CFE144B154A1A600021AE
S315200033B06FF00400FFF794FE124B134A1A600221A5
S315200033C03220FFF78DFE3220FFF770FE00210848DD
S315200033D003F0C2FB0121064803F08BFC01220221E7
S315200033E0034804F059FC00BF1037BD4680BD00BF1E
S315200033F0000C004038C00120392C00202CC00120B0
S31520003400352C002008C101209337002080B582B0DA
S3152000341000AF0346FB71FB799BB21946074802F0C1
S31520003420AEFC00BF8021054802F098FE0346002B23
S31520003430F8D000BF0837BD4680BD00BF0010014050
S3152000344080B500AF124803F0A3FB03461A46114B82
S315200034501A60114B01221A60104B00221A60104B81
S315200034601B68002B06D00E4B1B680E4A12680021E3
S3152000347010469847084B00221A60084B1B68002B01
S3152000348001D000F05DFA054B00221A6000BF80BD16
S31520003490000C004000A00020FC9F0020F09F002090
S315200034A020A10020C0A0002080B500AF124803F064
S315200034B06FFB03461A46114B1A60114B01221A6004
S315200034C0104B00221A60104B5B68002B06D00E4B67
S315200034D05B680E4A5268012110469847084B002225
S315200034E01A60084B1B68002B01D000F029FA054B07
S315200034F000221A6000BF80BD000C004000A0002002
S31520003500FC9F0020F09F002020A10020C0A00020CA
S3152000351080B500AF124803F03BFB03461A46114B19
S315200035201A60114B01221A60104B00221A60104BB0
S315200035309B68002B06D00E4B9B680E4A9268022190
S3152000354010469847084B00221A60084B1B68002B30
S3152000355001D000F0F5F9054B00221A6000BF80BDAE
S31520003560000C004000A00020FC9F0020F09F0020BF
S3152000357020A10020C0A0002080B485B000AF7860D4
S3152000358039600023FB603B681B68BB6004E0BB68B6
S31520003590FB60BB681B68BB60BB68002B05D0BB68A3
S315200035A09A687B689B689A42F1DD7B68BA681A60E4
S315200035B0FB68002B03D13B687A681A6002E0FB683F
S315200035C07A681A6000BF1437BD465DF8047B7047E1
S315200035D080B485B000AF786039600023FB603B681B
S315200035E01B68BB6004E0BB68FB60BB681B68BB60F4
S315200035F0BB68002B05D0BB685A687B685B689A421B
S31520003600F1DD7B68BA681A60FB68002B03D13B6842
S315200036107A681A6002E0FB687A681A6000BF14377D
S31520003620BD465DF8047B704780B584B000AF7860F6
S315200036307B681B68FB60FB68002B04D0FB681A685C
S315200036407B681A600CE00948FFF774FD002202210E
S31520003650074802F0EFF80748FFF76CFD30BFFDE79B
S31520003660FB6818461037BD4680BD00BF9C960020DB
S3152000367000040240A896002080B584B000AF786090
S315200036807B681B68FB60FB68002B04D0FB681A680C
S315200036907B681A600CE00948FFF74CFD00220221E6
S315200036A0074802F0C7F80748FFF744FD30BFFDE79B
S315200036B0FB6818461037BD4680BD00BF9C9600208B
S315200036C000040240B496002080B483B000AF786036
S315200036D039603B681A687B681A603B687A681A60AA
S315200036E000BF0C37BD465DF8047B704780B483B0BD
S315200036F000AF786039603B681A687B689A603B68DF
S315200037007A681A6000BF0C37BD465DF8047B7047A7
S3152000371080B485B000AF78607B681B68FB60FB686F
S315200037209A687B681A60FB6818461437BD465DF8B0
S31520003730047B704780B485B000AF78603960002381
S31520003740FB603B681B68BB6004E0BB68FB60BB6832
S315200037501B68BB60BB68002B03D0BA687B689A42A3
S31520003760F3D1BB68002B0DD0FB68002B04D0BB68BF
S315200037701A68FB681A6003E0BB681A683B681A601F
S31520003780012300E0002318461437BD465DF8047B6C
S31520003790704780B582B000AF02211E4804F006FBB8
S315200037A01C4803F0F5F903467B6007E01A48FFF74B
S315200037B03BFF034619491846FFF7DEFE164B1B68EA
S315200037C0002B06D0144B1B685A687B68D31A002B33
S315200037D0ECDD114B1B68002B16D00E4803F0D8F9F0
S315200037E003463B600C4B1B685B683A689A4204DDD3
S315200037F0002202210A4802F01DF8074B1B685B686D
S315200038001946044803F002FD00F09AF800BF083775
S31520003810BD4680BD000C0040F89F0020F49F00208C
S31520003820000402400246024B1A6010DFF74600BF32
S31520003830CCA000200246054B1A60054B5B68044A63
S3152000384043F080535360F74600BF00BFCCA0002052
S3152000385000ED00E080B582B000AF7860094B5B6870
S31520003860C3F30803002B03D17868FFF7DBFF02E0E0
S315200038707868FFF7DFFFFFF707FD00BF0837BD4673
S3152000388080BD00BF00ED00E090B585B000AF234BB2
S315200038901C682348FFF7C8FE0346E360E368BB6065
S315200038A0FFF7F2FCBB68D868BB681969BB685B691F
S315200038B01A4600F015F9FFF7D9FC1A49B868FFF740
S315200038C003FF194B1B689B68DB687B60144B1B68E6
S315200038D0002B0AD07B68002BD9D0114B1B689A6825
S315200038E07B689B68D31A002BD1DD0F48FFF710FFAA
S315200038F003460E491846FFF7F9FE0B4B1B68FB6083
S3152000390003E0FB681B691B68FB60FB681B69002BD7
S31520003910F7D1F868FFF79EFFB9E700BF809F002028
S31520003920F49F0020749F00207C9F0020789F002019
S3152000393080B500AF00F004F8FFF7A6FC30BFFBE728
S3152000394080B582B000AF144B1B68DB687B60134BDD
S315200039501B68002B1BD0124B1B68002B17D07B68D3
S31520003960002B07D00D4B1B689A687B689B68D31A7F
S31520003970002B0CDA0A48FFF7CBFE03460649184609
S31520003980FFF7B4FE044B1B681846FFF763FF00BF22
S315200039900837BD4680BD00BF7C9F0020F49F0020D5
S315200039A0789F002080B588B000AFF860B9607A6053
S315200039B03B60EFF312833B613B691B09012B14BF6C
S315200039C001230023DBB2FB77FFF750FC3A48FFF7D1
S315200039D053FEB861BB697A68DA60BB693A681A61D6
S315200039E0BB69BA6A5A61354B1B68002B04D1344B2C
S315200039F01B68DB685B6801E0324B1B68FA681A4477
S31520003A00BB695A60BB695A68BB68002B01DDBB687D
S31520003A1001E06FF000431A44BB699A602A4803F01C
S31520003A20B7F803467B61BB695A687B69D31A002BBA
S31520003A3016DD2649B869FFF7CBFD244B1B685B686A
S31520003A407A699A4204DD00220221214801F0F2FE21
S31520003A501E4B1B685B6819461B4803F0D7FB21E009
S31520003A601C49B869FFF788FDFB7F002B1AD01A4B3B
S31520003A701B68002B16D0174B1B689A68174B1B68C0
S31520003A80DB689B68D31A002B0CDA1348FFF740FE3D
S31520003A90034612491846FFF729FE104B1B681846A5
S31520003AA0FFF7D8FEFB7F002B01D0FFF7EDFBBB69AC
S31520003AB018462037BD4680BD749F0020FC9F0020FD
S31520003AC0809F002000A00020000C0040F89F0020CE
S31520003AD000040240F49F0020789F00207C9F002055
S31520003AE080B588B000AFF860B9607A60EFF31283D2
S31520003AF03B613B691B09012B14BF01230023DBB269
S31520003B00FB76FFF7B3FBFB681B68FB61FB69002BA9
S31520003B1037D003E0FB691B691B68FB61FB691B69E6
S31520003B20002BF7D1304B1B68FA699A4202D0FB7EF4
S31520003B30002B07D1FB7E002B01D0FFF7A5FB4FF012
S31520003B40FF334DE0FB685B68002B03D0FB685B68A6
S31520003B5000221A61244B1A68FB685A60224B1B68A4
S31520003B60FA681A61F869FFF775FE1F4B1B68DB6858
S31520003B70002B06D1FB7E002B01D0FFF785FB00230F
S31520003B802EE0194B1A68FB681A60FB7E002B05D0C5
S31520003B90FB685B68012B01D0FFF776FBBB68796871
S31520003BA0F86898477861FFF761FBFB6800221A6086
S31520003BB0FB685B68FB61FB69002B0BD0FB69012B63
S31520003BC008D0FB6800225A60FB6900221A61F86956
S31520003BD0FFF740FEFB7E002B01D0FFF755FB7B69EC
S31520003BE018462037BD4680BD809F002080B586B010
S31520003BF000AF7860EFF31283FB60FB681B09012B93
S31520003C0014BF01230023DBB2FB74FFF72FFB1F49F0
S31520003C107868FFF78FFD0346002B06D11C4978688C
S31520003C20FFF788FD0346002B04D01A497868FFF772
S31520003C304BFD21E0184B1B687B611AE0174B1B6874
S31520003C407A699A4212D07B69DB687A689A420DD1EA
S31520003C507B691A697B68DB689A4207D17B690022F7
S31520003C60DA600C497868FFF72FFD05E07B699B68D1
S31520003C707B617B69002BE1D1FB7C002B01D0FFF718
S31520003C8003FB00BF1837BD4680BD00BFF89F00204C
S31520003C90F49F0020749F00207C9F0020809F00209E
S31520003CA080B485B000AF7860EFF31283FB60FB68C9
S31520003CB01B09012B04D0074B1B68DB685B6801E0FE
S31520003CC0054B1B687A68136000BF1437BD465DF844
S31520003CD0047B7047809F002000A0002080B485B020
S31520003CE000AF7860EFF31283FB60FB681B09012BA2
S31520003CF004D0084B1B68DB685B6801E0064B1B6839
S31520003D007A6812689B1A18461437BD465DF8047BFC
S31520003D10704700BF809F002000A0002080B584B09F
S31520003D2000AFEFF312837B607B681B09012B14BF66
S31520003D3001230023DBB2FB73FFF798FA0C4802F04D
S31520003D4027FF0346BB60FB7B002B01D0FFF79CFAC5
S31520003D50FB7B002B04D0074B1B68DB685B6801E00C
S31520003D60054B1B68BA68D31A18461037BD4680BD66
S31520003D70000C0040809F002000A0002080B582B06B
S31520003D8000AF00237B6012E07B685A1C13465B0061
S31520003D901344DB00444A991843487A6813465B006B
S31520003DA01344DB00034419607B6801337B607B6826
S31520003DB01C2BE9DD3C4B0022C3F8B82200237B6094
S31520003DC013E07B685A1C13469B0013449B00374A1A
S31520003DD0991836487A6813469B0013449B0003447F
S31520003DE0083319607B6801337B607B68022BE8DD32
S31520003DF02E4B00225A6400237B602FE02B497A68E1
S31520003E0013469B0013449B000B4404337A681A60C4
S31520003E107A6813469B0013449B00244A98187B68B3
S31520003E205B03234A13441946FFF75EFA7A68134662
S31520003E309B0013449B001D4A13441E491846FFF756
S31520003E4087FA1A497A6813469B0013449B000B4451
S31520003E50103300221A607B6801337B607B68032B5A
S31520003E60CCDD154B4FF0FF325A60134B00229A607F
S31520003E70114B00221A61104B0022DA600F48FFF71F
S31520003E8059F90F48FFF756F90E48FFF753F90B4833
S31520003E90FFF750F90948FFF74DF9FFF76BFA00BF16
S31520003EA00837BD4680BD00BF40A10020D0A000201D
S31520003EB018A40020893800202CA10020C0960020BC
S31520003EC0C4960020D096002080B586B000AFF8605A
S31520003ED0B9601346FB71FB79022B3ED8EFF31283B0
S31520003EE03B613B691B09012B14BF01230023DBB275
S31520003EF0FB75FFF7BBF9FB79012B07D0022B09D005
S31520003F00002B0BD1174B184A1A6014E0174B184A8E
S31520003F101A6010E0174B184A1A600CE01748FFF792
S31520003F2009F900220221164801F084FC1548FFF702
S31520003F3001F930BFFDE7FB791349FA6841F82320E0
S31520003F40FB791249BA6841F82320FB6801225A609E
S31520003F50FB7D002B01D0FFF797F900BF1837BD4630
S31520003F6080BD00BFD4C001204134002090C0012074
S31520003F70A93400209CC00120113500209C960020E9
S31520003F8000040240E4960020C0A0002020A10020CA
S31520003F9080B586B002AFF860B9607A60FFF766F93F
S31520003FA0FFF7ECFEBB68002B16D00F4802F0F0FDA1
S31520003FB003461A460D4B1A600D4B01221A607B6888
S31520003FC00093BB68FA6800210020FFF7EBFC084B42
S31520003FD000221A60FFF7B4FCFFF7AAFC002318465C
S31520003FE01037BD4680BD00BF000C004000A0002059
S31520003FF0FC9F002080B582B000AF78607B680E4AB7
S3152000400093420AD101214FF00070FEF7B7F9002143
S315200040104FF00070FEF7B2F909E001214FF0806001
S31520004020FEF7ACF900214FF08060FEF7A7F900BF3C
S315200040300837BD4680BD00BF0064004080B485B00F
S3152000404000AF786039600023FB730023BB607B6878
S315200040501B6823F002027B681A607B681B6843F0AA
S3152000406001027B681A6002E0BB680133BB607B6893
S315200040705B6803F00103012B04D0BB684FF6FF7287
S315200040809342F1D17B685B6803F00103012B02D0D8
S315200040900023FB739CE03B689B79012B06D17B6850
S315200040A01B6843F080027B681A6005E07B681B680A
S315200040B023F080027B681A603B68DB79012B06D1EE
S315200040C07B681B6843F040027B681A6005E07B68CA
S315200040D01B6823F040027B681A603B681B7A012B21
S315200040E006D17B681B6843F020027B681A6005E0D6
S315200040F07B681B6823F020027B681A603B685B7A2A
S31520004100012B06D17B681B6843F010027B681A607E
S3152000411005E07B681B6823F010027B681A603B6809
S315200041209B7A012B06D17B681B6843F008027B68CB
S315200041301A6005E07B681B6823F008027B681A601A
S315200041403B68DB7A012B06D17B681B6843F00402AF
S315200041507B681A6005E07B681B6823F004027B6895
S315200041601A603B689B789A073B68DB781B061A43E4
S315200041703B681B791B041A433B685B791B051A4372
S315200041803B681B88013B1A437B68DA617B681B68A6
S3152000419023F001027B681A600023BB6002E0BB6843
S315200041A00133BB607B685B6803F00103012B04D1FC
S315200041B0BB684FF6FF729342F1D17B685B6803F0D0
S315200041C00103012B02D10023FB7301E00123FB73C2
S315200041D0FB7B18461437BD465DF8047B704790B4C8
S315200041E084B000AF78600023FB607B689B7A1A4618
S315200041F001239340FB605A4BD3F80032584A43F0D0
S315200042000103C2F80032564BD3F81C22FB68DB436D
S3152000421053491340C1F81C327B681B7B002B29D1E4
S315200042204F4BD3F80C22FB68DB434D491340C1F8B2
S315200042300C327B68DB881B047A685288144648490E
S315200042407A68927A104643EA040200F1480341F85C
S3152000425033207B689B881B047A6812881446404961
S315200042607A68927A104643EA040200F14803DB009A
S315200042700B445A607B681B7B012B28D1384BD3F823
S315200042800C223749FB681343C1F80C327B681B8824
S315200042901B047A685288144631497A68927A104605
S315200042A043EA040200F1480341F833207B689B88E7
S315200042B01B047A68D288144629497A68927A10466D
S315200042C043EA040200F14803DB000B445A607B6892
S315200042D0DB7A002B09D1224BD3F80422FB68DB437F
S315200042E01F491340C1F8043207E01D4BD3F80422BE
S315200042F01B49FB681343C1F804327B681B89002BDA
S3152000430008D1174BD3F81422FB68DB43144913401A
S31520004310C1F814327B681B89012B07D1104BD3F8C7
S3152000432014220F49FB681343C1F814327B685B7B68
S31520004330012B07D10A4BD3F81C220949FB681343EA
S31520004340C1F81C32064BD3F80032054A23F001038C
S31520004350C2F8003200BF1037BD4690BC704700BF80
S315200043600064004080B483B000AF78607B68002290
S315200043709A717B680022DA717B6800221A727B6848
S3152000438000225A727B6800229A727B680022DA72B7
S315200043907B6800229A707B680022DA707B68032291
S315200043A01A717B6802225A717B6801221A8000BF2B
S315200043B00C37BD465DF8047B704780B483B000AFF0
S315200043C00346FB71144BD3F80032134A43F0010322
S315200043D0C2F80032104BD3F800320F4A23F47C5334
S315200043E023F00E03C2F800320B4BD3F80022FB79E0
S315200043F01B0209491343C1F80032074BD3F8003298
S31520004400054A23F00103C2F8003200BF0C37BD462F
S315200044105DF8047B704700BF0064004080B483B021
S3152000442000AF78600B46FB70FB78002B06D07B68CC
S315200044301B6843F480327B681A6005E07B681B6842
S3152000444023F480327B681A6000BF0C37BD465DF8C6
S31520004450047B704780B483B000AF78600B46FB7056
S31520004460FB78002B1ED07B681B6843F080027B689C
S315200044701A607B68D3F8843143F480727B68C3F872
S3152000448084217B68D3F8943143F480727B68C3F827
S3152000449094217B68D3F8A43143F480727B68C3F8F7
S315200044A0A4211DE07B681B6823F080027B681A60CC
S315200044B07B68D3F8843123F480727B68C3F8842127
S315200044C07B68D3F8943123F480727B68C3F89421F7
S315200044D07B68D3F8A43123F480727B68C3F8A421C7
S315200044E000BF0C37BD465DF8047B704780B485B0AD
S315200044F000AF786039600023FB737B689B6803F00C
S315200045008063B3F1806F02D10023FB7315E07B68D3
S315200045109B6803F00063B3F1006F02D10123FB73A4
S315200045200BE07B689B6803F08053B3F1805F02D178
S315200045300223FB7301E00423FB73FB7B042B00F0B7
S315200045409F80FB7B7A6818331B0113441A68FB7B18
S3152000455002F00102796818331B010B441A603B688C
S315200045601B7A002B13D1FB7B7A6818331B0113446B
S3152000457019683B681B685B053A68527A1A43FB7BCD
S315200045800A43796818331B010B441A6015E0FB7B3C
S315200045907A6818331B01134419683B685B68DB0093
S315200045A03A68127A13433A68527A1A43FB7B0A43D3
S315200045B0796818331B010B441A603B689B7A03F019
S315200045C00F03DAB23B689A72FB7B7A6818331B01B9
S315200045D0134404331A68FB7B22F00F0279681833E0
S315200045E01B010B4404331A60FB7B7A6818331B01CA
S315200045F0134404331A683B689B7A1946FB7B0A43AB
S31520004600796818331B010B4404331A603B689B7B83
S315200046101A063B685B7B1B041A433B681B7B1B0209
S315200046201A433B68DB7A1946FB7B0A4379681B01F0
S315200046300B4403F5C4731A603B689B7C1A063B68DF
S315200046405B7C1B041A433B681B7C1B021A433B689A
S31520004650DB7B1946FB7B0A4379681B010B4403F578
S31520004660C6731A60FB7B7A6818331B0113441A68D9
S31520004670FB7B42F00102796818331B010B441A6058
S31520004680FB7B18461437BD465DF8047B704780B423
S3152000469085B000AF78600B46FB700023FB60FB788B
S315200046A0012B09D0022B0DD0002B11D17B689A68E3
S315200046B0294B1340FB600EE07B689A68274B13401A
S315200046C0FB6008E07B689A68254B1340FB6002E09C
S315200046D00023FB6000BFFB68224A934222D0FB687E
S315200046E0204A93420BD8FB681F4A934217D0FB6897
S315200046F0194A93421CD0FB68002B0DD021E0FB68A1
S315200047001A4A934211D0FB68154A934216D0FB6889
S31520004710124A93420FD014E00223FB6014E00023D8
S31520004720FB6011E00023FB600EE00023FB600BE042
S315200047300123FB6008E00123FB6005E00123FB6009
S3152000474002E00023FB6000BFFB68DBB2184614378B
S31520004750BD465DF8047B7047030000040003000893
S3152000476000000310000100080100000400000110F1
S3152000477080B483B000AF78600B46FB70FB78012BCA
S315200047800AD0022B0FD0002B14D17B689B6843F0F4
S3152000479080027B689A600EE07B689B6843F4004247
S315200047A07B689A6007E07B689B6843F400027B681D
S315200047B09A6000E000BF00BF0C37BD465DF8047B61
S315200047C0704780B485B000AFF8600B467A60FB7204
S315200047D0FB7AFA681B331B0113441B68DBB203F018
S315200047E00403DAB27B681A727B681B7A002B0BD122
S315200047F0FB7AFA681B331B0113441B685B0DC3F35A
S315200048000A027B681A600AE0FB7AFA681B331B01EE
S3152000481013441B68DB0823F060427B685A60FB7AEE
S31520004820FA681B331B0113441B68DBB203F0020337
S31520004830DAB27B685A72FB7AFA681B331B0113447F
S3152000484004331B68DBB203F00F03DAB27B689A727B
S31520004850FB7AFA681B331B01134404331B681B0ABB
S31520004860DAB27B68DA74FB7AFA681B01134403F523
S31520004870DC731B68DAB27B68DA72FB7AFA681B0192
S31520004880134403F5DC731B681B0ADAB27B681A73C0
S31520004890FB7AFA681B01134403F5DC731B681B0CB7
S315200048A0DAB27B685A73FB7AFA681B01134403F564
S315200048B0DC731B681B0EDAB27B689A73FB7AFA6884
S315200048C01B01134403F5DE731B68DAB27B68DA73C7
S315200048D0FB7AFA681B01134403F5DE731B681B0A77
S315200048E0DAB27B681A74FB7AFA681B01134403F563
S315200048F0DE731B681B0CDAB27B685A74FB7AFA6883
S315200049001B01134403F5DE731B681B0EDAB27B68AA
S315200049109A74FB7A002B06D1FB68DB6843F02002F1
S31520004920FB68DA6005E0FB681B6943F02002FB6840
S315200049301A6100BF1437BD465DF8047B704780B40A
S3152000494083B000AF78600B46FB70FB78002B06D156
S315200049507B68DB6843F020027B68DA6005E07B68D1
S315200049601B6943F020027B681A6100BF0C37BD46E5
S315200049705DF8047B704780B485B000AF78600B4645
S31520004980FB700023FB73FB78002B06D17B68DB686A
S31520004990DBB203F00303FB730BE0FB78012B06D19C
S315200049A07B681B69DBB203F00303FB7301E0002382
S315200049B0FB73FB7B18461437BD465DF8047B7047B6
S315200049C080B485B000AF78600B46FB700023FB7384
S315200049D04FF6FF73BB60FB78002B20D17B681B68EA
S315200049E023F0030343F001027B681A6002E0BB68F0
S315200049F0013BBB607B685B6803F00303012B02D09D
S31520004A00BB68002BF3D17B685B6803F00303012BA3
S31520004A1002D00023FB734AE00123FB7347E0FB78B7
S31520004A20012B1ED17B681B6823F003027B681A606A
S31520004A3002E0BB68013BBB607B685B6803F0030355
S31520004A40002B02D0BB68002BF3D17B685B6803F098
S31520004A500303002B02D00023FB7328E00123FB7302
S31520004A6025E0FB78022B20D17B681B6823F003030B
S31520004A7043F002027B681A6002E0BB68013BBB6020
S31520004A807B685B6803F00303022B02D0BB68002B14
S31520004A90F3D17B685B6803F00303022B02D000236B
S31520004AA0FB7304E00123FB7301E00023FB73FB7B14
S31520004AB018461437BD465DF8047B704780B485B030
S31520004AC000AF78600023FB737B681B6823F0030329
S31520004AD043F002027B681A607B685B6803F003037D
S31520004AE0022B01D10123FB73FB7B18461437BD46ED
S31520004AF05DF8047B704780B485B000AF78604FF6D0
S31520004B00FF73FB600023FB727B681B6823F00202A5
S31520004B107B681A6002E0FB68013BFB607B685B6890
S31520004B2003F00203022B02D1FB68002BF3D17B6832
S31520004B305B6803F00203022B01D00123FB72FB7A90
S31520004B4018461437BD465DF8047B704780B485B09F
S31520004B5000AF78600023FB737B689B69DBB203F0B0
S31520004B607003FB73FB7B18461437BD465DF8047B48
S31520004B70704780B485B000AF78600023FB737B68F4
S31520004B809B691B0EFB73FB7B18461437BD465DF8ED
S31520004B90047B704780B485B000AF78600023FB7338
S31520004BA07B689B691B0CFB73FB7B18461437BD4641
S31520004BB05DF8047B704780B485B000AFF860B960BB
S31520004BC01346FB71FB79002B06D0FB685A69BB683C
S31520004BD01A43FB685A6106E0FB685A69BB68DB43E7
S31520004BE01A40FB685A6100BF1437BD465DF8047B46
S31520004BF0704780B485B000AF786039600023FB73BE
S31520004C003B6803F47003002B0DD07B689A693B68E0
S31520004C101340C3F31303002B02D00123FB7348E098
S31520004C200023FB7345E03B6803F08073002B0DD017
S31520004C307B685A683B681340C3F31303002B02D0EA
S31520004C400123FB7335E00023FB7332E03B6803F05E
S31520004C500063002B0DD07B689A683B681340C3F332
S31520004C601303002B02D00123FB7322E00023FB73E6
S31520004C701FE03B6803F00073002B0DD07B68DA68D9
S31520004C803B681340C3F31303002B02D00123FB73AD
S31520004C900FE00023FB730CE07B681A693B68134026
S31520004CA0C3F31303002B02D00123FB7301E000237F
S31520004CB0FB73FB7B18461437BD465DF8047B7047B3
S31520004CC080B485B000AF786039600023FB603B6814
S31520004CD0174A934203D17B6800229A6121E03B6800
S31520004CE0C3F31303FB603B6803F00073002B03D070
S31520004CF07B68FA68DA6014E03B6803F08063002B77
S31520004D0003D07B68FA681A610BE03B6803F0006306
S31520004D10002B03D07B68FA689A6002E07B68FA6809
S31520004D205A6000BF1437BD465DF8047B704700BF4C
S31520004D307000F03080B584B000AF78603960002311
S31520004D40FB737B685A693B681340002B00F0C280D6
S31520004D503B68402B72D03B68402B16D83B68042B0F
S31520004D6048D03B68042B06D83B68012B30D03B68E3
S31520004D70022B36D0AAE03B68102B4DD03B68202B67
S31520004D8053D03B68082B3ED0A0E03B68B3F5006FBC
S31520004D9000F08A803B68B3F5006F0CD83B68B3F50A
S31520004DA0007F6FD03B68B3F5806F74D03B68B3F556
S31520004DB0807F5ED08AE03B68B3F5803F47D03B6872
S31520004DC0B3F5003F4CD03B68B3F5004F75D07DE07E
S31520004DD07B689B684349184600F004F90346FB7339
S31520004DE07AE07B68DB680321184600F0FBF803466F
S31520004DF0FB7371E07B68DB680821184600F0F2F847
S31520004E000346FB7368E07B68DB681021184600F0D8
S31520004E10E9F80346FB735FE07B681B6903211846AC
S31520004E2000F0E0F80346FB7356E07B681B69082117
S31520004E30184600F0D7F80346FB734DE07B681B69E4
S31520004E401021184600F0CEF80346FB7344E07B6839
S31520004E505B680821184600F0C5F80346FB733BE063
S31520004E607B685B681021184600F0BCF80346FB738C
S31520004E7032E07B689B690121184600F0B3F80346AF
S31520004E80FB7329E07B689B690221184600F0AAF88B
S31520004E900346FB7320E07B689B690421184600F0DB
S31520004EA0A1F80346FB7317E07B689B6970211846BF
S31520004EB000F098F80346FB730EE07B685B680421DC
S31520004EC0184600F08FF80346FB7305E00023FB73BA
S31520004ED000BF01E00023FB73FB7B18461037BD465D
S31520004EE080BD00BF0101010080B483B000AF7860AF
S31520004EF039603B68B3F5807F51D03B68B3F5807F3E
S31520004F0013D83B68082B36D03B68082B06D83B685D
S31520004F10012B28D03B68042B29D05AE03B68202B54
S31520004F202DD03B68402B2ED053E03B68B3F5006F65
S31520004F3041D03B68B3F5006F08D83B68B3F5007FD6
S31520004F4031D03B68B3F5806F31D042E03B68B3F592
S31520004F50803F1CD03B68B3F5003F1CD03B68B3F5BF
S31520004F60004F2FD035E07B681D4A9A6031E07B6880
S31520004F700822DA602DE07B681022DA6029E07B685F
S31520004F8008221A6125E07B6810221A6121E07B68DD
S31520004F9008225A601DE07B6810225A6019E07B685F
S31520004FA004225A6015E07B6804225A6011E07B686F
S31520004FB004225A600DE07B6800229A617B680422F5
S31520004FC05A6006E07B6800229A617B6804225A6058
S31520004FD000BF00BF0C37BD465DF8047B704700BF9D
S31520004FE00101010080B485B000AF786039600023EC
S31520004FF0FB737A683B681340002B02D00123FB73B6
S3152000500001E00023FB73FB7B18461437BD465DF891
S31520005010047B704780B500AF01214FF00050FDF7AB
S31520005020ADF900214FF00050FDF7A8F900BF80BD73
S3152000503080B485B000AF786039600023FB60002320
S31520005040BB60144B1B68FB6040F6FE727B6802FA5D
S3152000505003F3DB43FA681340FB603B681A683B683E
S315200050605B681A433B689B681A433B68DB681343BB
S31520005070BB60BA687B6802FA03F3FA681343FB60E5
S31520005080044AFB68136000BF1437BD465DF8047BF5
S31520005090704700BF0074004080B483B000AF7860D2
S315200050A07B6800221A607B6800225A607B68002297
S315200050B09A607B680022DA6000BF0C37BD465DF837
S315200050C0047B704780B483B000AF78600B46FB70DA
S315200050D0FB78002B09D00D4B1A6801217B6801FA59
S315200050E003F30A4913430B6009E0084B1A680121B0
S315200050F07B6801FA03F3DB43044913400B6000BFCE
S315200051000C37BD465DF8047B704700BF0074004035
S3152000511080B483B000AF78600B46FB70FB78002B21
S315200051200AD00E4B5A687B681B09012101FA03F34A
S315200051300A4913434B600AE0084B5A687B681B09EF
S31520005140012101FA03F3DB43044913404B6000BFFE
S315200051500C37BD465DF8047B704700BF00740040E5
S3152000516080B483B000AF0346FB71FB79002B06D0D9
S31520005170094B5B68084A43F00303536005E0064B7E
S315200051805B68054A23F00303536000BF0C37BD4616
S315200051905DF8047B704700BF0074004080B485B082
S315200051A000AFF860B9601346FB71FB79002B09D07C
S315200051B00C4B1A68B968FB6801FA03F309491343D3
S315200051C00B6009E0074B1A68B968FB6801FA03F31C
S315200051D0DB43044913400B6000BF1437BD465DF81E
S315200051E0047B70470074004080B485B000AF7860BF
S315200051F00B467B800023FB60084BFB60FA687B68CC
S3152000520013440833FB60FB681A467B88136000BF93
S315200052101437BD465DF8047B704700BF007400401C
S3152000522080B485B000AF78600B467B800023FB609E
S31520005230084BFB60FA687B6813441433FB60FB68F9
S315200052401A467B88136000BF1437BD465DF8047B81
S31520005250704700BF0074004080B485B000AF78600E
S315200052600B467B8013463B800023FB600023BB60FC
S315200052707B68082B05D17B881A023B881343FB6089
S3152000528004E07B881A043B881343FB60074BBB6012
S315200052907A68BB6813442033BB60BB68FA681A601F
S315200052A000BF1437BD465DF8047B7047007400408C
S315200052B080B485B000AF78600023FB60084BFB60AC
S315200052C07B689A08FB6813442C33FB60FB681B68D9
S315200052D09BB218461437BD465DF8047B704700BF65
S315200052E00074004080B483B000AF78600B46FB703A
S315200052F0FB78002B0AD00E4B1A684FF480517B683E
S3152000530001FA03F30A4913430B600AE0084B1A68B3
S315200053104FF480517B6801FA03F3DB4304491340C1
S315200053200B6000BF0C37BD465DF8047B704700BF9D
S315200053300074004080B485B000AFF860B9601346B1
S31520005340FB71FB79002B09D00C4B1A68B968FB68F6
S3152000535001FA03F3094913430B6009E0074B1A6866
S31520005360B968FB6801FA03F3DB43044913400B6079
S3152000537000BF1437BD465DF8047B704700740040BB
S3152000538080B485B000AF786039600023FB730A4B88
S315200053905A6B39687B6801FA03F31340002B02D05D
S315200053A00123FB7301E00023FB73FB7B18461437B4
S315200053B0BD465DF8047B70470074004080B483B01E
S315200053C000AF7860396006493A687B6802FA03F3D1
S315200053D04B6300BF0C37BD465DF8047B704700BFAA
S315200053E00074004080B485B000AF78603960002337
S315200053F0FB730023BB60104B1A6839687B6801FA7F
S3152000540003F31340BB600C4B5A6B39687B6801FA77
S3152000541003F31340002B05D0BB68002B02D00123D9
S31520005420FB7301E00023FB73FB7B18461437BD4654
S315200054305DF8047B704700BF0074004080B483B0E1
S3152000544000AF7860396006493A687B6802FA03F350
S315200054504B6300BF0C37BD465DF8047B704700BF29
S315200054600074004080B582B000AF78607B684B4AFC
S31520005470934208D101210120FCF720FF00210120C1
S31520005480FCF71CFF86E07B68454A934208D1012140
S315200054900220FCF713FF00210220FCF70FFF79E022
S315200054A07B68404A934208D101210420FCF706FF7D
S315200054B000210420FCF702FF6CE07B683A4A934205
S315200054C008D101210820FCF7F9FE00210820FCF76D
S315200054D0F5FE5FE07B68354A934208D10121102012
S315200054E0FCF7ECFE00211020FCF7E8FE52E07B687A
S315200054F02F4A934208D101212020FCF7DFFE00210C
