S01600002E2F44656275672F5254532D4C61622E73313936
S3152000000000BFDFF814D007F002F904F06DFD07F009
S3152000001010B9FEE700BF000000C0012080B500AF88
S3152000002001214FF4804008F069F900214FF4804007
S3152000003008F064F900BF80BD80B483B000AF0346EA
S31520000040FB71044AFB79136000BF0C37BD465DF88F
S31520000050047B70470038014080B483B000AF03466C
S31520000060FB71044AFB79136000BF0C37BD465DF86F
S31520000070047B70472000274280B485B000AF03463A
S315200000800A46FB711346BB710023FB60BB7903F064
S3152000009003039B000F2202FA03F3FB60164ABB7987
S315200000A09B08DBB2023352F82320FB68DB4312485D
S315200000B0B9798908C9B21A408B1C40F823200E4A08
S315200000C0BB799B08DBB2023352F82320F979BB793E
S315200000D003F003039B0001FA03F30748B979890863
S315200000E0C9B21A438B1C40F8232000BF1437BD46E3
S315200000F05DF8047B704700BF0038014080B483B0B0
S3152000010000AF7860044A7B68136000BF0C37BD4699
S315200001105DF8047B704700BFDC00274280B483B0C3
S3152000012000AF0346FB71044AFB79136000BF0C370E
S31520000130BD465DF8047B70470004274280B483B037
S3152000014000AF0023FB71094B1B6A03F48073002B5D
S3152000015002D00123FB7101E00023FB71FB791846D5
S315200001600C37BD465DF8047B704700BF0038014060
S3152000017080B582B000AF78607B683B4A934208D155
S315200001800121102008F0BAF80021102008F0B6F856
S3152000019065E07B68354A93420AD101214FF400304D
S315200001A008F08CF800214FF4003008F087F856E06C
S315200001B07B682F4A93420AD101214FF4802008F010
S315200001C07DF800214FF4802008F078F847E07B681E
S315200001D0284A93420AD101214FF4002008F06EF8F4
S315200001E000214FF4002008F069F838E07B68224AA5
S315200001F093420AD101214FF4801008F05FF80021C4
S315200002004FF4801008F05AF829E07B681B4A934285
S3152000021008D10121202008F071F80021202008F0C3
S315200002206DF81CE07B68164A93420AD101214FF0F3
S31520000230804008F043F800214FF0804008F03EF857
S315200002400DE07B680F4A934209D101214FF000400F
S3152000025008F034F800214FF0004008F02FF800BFD6
S315200002600837BD4680BD00BF001001400044004055
S3152000027000480040004C004000500040001401405F
S3152000028000780040007C004080B58AB000AF7860DE
S31520000290396000237B6200233B620023FB6100233D
S315200002A0BB617B681B8A9BB27B627B6A23F44053CB
S315200002B07B623B68DB881A467B6A13437B627B6AD8
S315200002C09AB27B681A827B689B899BB27B627B6A27
S315200002D023F4B05323F00C037B623B689A883B6877
S315200002E01B8913439AB23B685B8913439BB21A4618
S315200002F07B6A13437B627B6A9AB27B689A817B68AE
S315200003009B8A9BB27B627B6A23F440737B623B6849
S315200003109B891A467B6A13437B627B6A9AB27B6807
S315200003209A8207F10803184607F016FD7B68304AC3
S31520000330934203D07B682F4A934202D17B693B626A
S3152000034001E03B693B627B689B899BB21BB2002B19
S315200003500CDA3A6A13469B0013449A001A443B6807
S315200003601B685B00B2FBF3F3FB610BE03A6A1346B2
S315200003709B0013449A001A443B681B689B00B2FBFF
S31520000380F3F3FB61FB691C4AA2FB03235B091B01F8
S315200003907B627B6A1B09642202FB03F3FA69D31A88
S315200003A0BB617B689B899BB21BB2002B0CDABB69B5
S315200003B0DB003233104AA2FB03235B0903F0070359
S315200003C07A6A13437B620BE0BB691B0132330A4A0C
S315200003D0A2FB03235B0903F00F037A6A13437B62B4
S315200003E07B6A9AB27B681A8100BF2837BD4680BDDA
S315200003F000100140001401401F85EB5180B483B0EA
S3152000040000AF78607B684FF416521A607B68002232
S315200004109A807B680022DA807B6800221A817B68BA
S315200004200C225A817B6800229A8100BF0C37BD4678
S315200004305DF8047B704780B485B000AF7860396082
S315200004400023FB607B681B8A9BB2FB60FB6823F45E
S315200004507063FB603B681A883B685B8813439AB2DB
S315200004603B689B8813439AB23B68DB8813439BB255
S315200004701A46FB681343FB60FB689AB27B681A82B4
S3152000048000BF1437BD465DF8047B704780B483B047
S3152000049000AF78607B6800221A807B6800225A8031
S315200004A07B6800229A807B680022DA8000BF0C37A6
S315200004B0BD465DF8047B704780B483B000AF78609A
S315200004C00B46FB70FB78002B08D07B689B899BB280
S315200004D043F400539AB27B689A8107E07B689B8934
S315200004E09BB223F400539AB27B689A8100BF0C37E3
S315200004F0BD465DF8047B704780B483B000AF78605A
S315200005000B46FB707B681B8B9BB223F0FF039AB2D2
S315200005107B681A837B681B8B9AB2FB789BB213434A
S315200005209AB27B681A8300BF0C37BD465DF8047B00
S31520000530704780B483B000AF78600B46FB70FB78C1
S31520000540002B0AD07B689B899BB26FEA43436FEAF4
S3152000055053439AB27B689A8107E07B689B899BB25A
S31520000560C3F30E039AB27B689A8100BF0C37BD464F
S315200005705DF8047B704780B483B000AF78600B468B
S31520000580FB70FB78002B08D07B689B8A9BB243F4D8
S3152000059000639AB27B689A8207E07B689B8A9BB24B
S315200005A023F400639AB27B689A8200BF0C37BD465B
S315200005B05DF8047B704780B483B000AF78600B464B
S315200005C07B807B88C3F308039AB27B689A8000BF3E
S315200005D00C37BD465DF8047B704780B483B000AF0E
S315200005E078607B689B889BB2C3F308039BB218464E
S315200005F00C37BD465DF8047B704780B483B000AFEE
S3152000060078600B46FB707B681B8A9BB223F00F0336
S315200006109AB27B681A827B681B8A9AB2FB789BB255
S3152000062013439AB27B681A8200BF0C37BD465DF829
S31520000630047B704780B483B000AF78600B46FB70B4
S31520000640FB78002B08D07B689B899BB243F0020382
S315200006509AB27B689A8107E07B689B899BB223F0DC
S3152000066002039AB27B689A8100BF0C37BD465DF8BB
S31520000670047B704780B483B000AF78600B467B80E4
S315200006807B689B899BB223F400639AB27B689A812C
S315200006907B689B899AB27B8813439AB27B689A813E
S315200006A000BF0C37BD465DF8047B704780B483B02D
S315200006B000AF78600B467B807B681B8A9BB223F059
S315200006C020039AB27B681A827B681B8A9AB27B883F
S315200006D013439AB27B681A8200BF0C37BD465DF879
S315200006E0047B704780B483B000AF78600B46FB7004
S315200006F0FB78002B08D07B681B8A9BB243F480438F
S315200007009AB27B681A8207E07B681B8A9BB223F425
S3152000071080439AB27B681A8200BF0C37BD465DF8CB
S31520000720047B704780B483B000AF78607B689B8978
S315200007309BB243F001039AB27B689A8100BF0C37C3
S31520000740BD465DF8047B704780B483B000AF786007
S315200007500B46FB70FB78002B08D07B689B8A9BB2EC
S3152000076043F008039AB27B689A8207E07B689B8AEB
S315200007709BB223F008039AB27B689A8200BF0C379B
S31520000780BD465DF8047B704780B483B000AF7860C7
S315200007900B46FB707B681B8B9BB2DBB29AB27B68E5
S315200007A01A837B681B8B9AB2FB789BB21B029BB287
S315200007B013439AB27B681A8300BF0C37BD465DF897
S315200007C0047B704780B483B000AF78600B46FB7023
S315200007D0FB78002B08D07B689B8A9BB243F02003D2
S315200007E09AB27B689A8207E07B689B8A9BB223F049
S315200007F020039AB27B689A8200BF0C37BD465DF80B
S31520000800047B704780B483B000AF78600B46FB70E2
S31520000810FB78002B08D07B689B8A9BB243F01003A1
S315200008209AB27B689A8207E07B689B8A9BB223F008
S3152000083010039AB27B689A8200BF0C37BD465DF8DA
S31520000840047B704780B483B000AF78600B467B8012
S315200008507B689B8A9BB223F004039AB27B689A82B8
S315200008607B689B8A9AB27B8813439AB27B689A826A
S3152000087000BF0C37BD465DF8047B704780B483B05B
S3152000088000AF78600B46FB70FB78002B08D07B68A6
S315200008909B8A9BB243F002039AB27B689A8207E056
S315200008A07B689B8A9BB223F002039AB27B689A826A
S315200008B000BF0C37BD465DF8047B704780B483B01B
S315200008C000AF78600B467B8013467B707B78002BCD
S315200008D008D07B689B8A9AB27B8813439AB27B683E
S315200008E09A8209E07B689B8A9AB27B88DB439BB21B
S315200008F013409AB27B689A8200BF0C37BD465DF8DA
S31520000900047B704780B487B000AF78600B467B804D
S3152000091013467B7000233B610023FB600023BB60F2
S3152000092000237B617B687B617B88DBB25B09DBB262
S315200009303B617B8803F01F03FB600122FB6802FA00
S3152000094003F3BB603B69012B03D17B690C337B61CD
S3152000095009E03B69022B03D17B6910337B6102E0FE
S315200009607B6914337B617B78002B06D07B69196801
S315200009707B69BA680A431A6006E07B691968BB6816
S31520000980DA437B690A401A6000BF1C37BD465DF812
S31520000990047B704780B485B000AF78600B467B80BF
S315200009A00023FB737B681B889AB27B8813409BB21B
S315200009B0002B02D00123FB7301E00023FB73FB7B9A
S315200009C018461437BD465DF8047B704780B483B063
S315200009D000AF78600B467B807B88DB439AB27B68CE
S315200009E01A8000BF0C37BD465DF8047B704780B483
S315200009F087B000AF78600B467B800023FB60002326
S31520000A007B610023BB600023FB747B88DBB25B0920
S31520000A10DBB2BB607B8803F01F037B6101227B690D
S31520000A2002FA03F37B61BB68012B07D17B689B89A4
S31520000A309BB21A467B6913407B6111E0BB68022B8F
S31520000A4007D17B681B8A9BB21A467B6913407B6160
S31520000A5006E07B689B8A9BB21A467B6913407B61C2
S31520000A607B881B0A9BB2FB600122FB6802FA03F318
S31520000A70FB607B681B889BB21A46FB681340FB60B1
S31520000A807B69002B05D0FB68002B02D00123FB7469
S31520000A9001E00023FB74FB7C18461C37BD465DF83D
S31520000AA0047B704780B485B000AF78600B467B80AE
S31520000AB00023FB810023BB817B881B0AFB81FB89EA
S31520000AC0012202FA03F3BB81BB89DB439AB27B681E
S31520000AD01A8000BF1437BD465DF8047B704700BFFF
S31520000AE080B582B000AF78607B68604A934208D1B7
S31520000AF00121012007F002FC0021012007F0FEFB66
S31520000B00AFE07B68B3F1804F08D10121012007F0C7
S31520000B10D5FB0021012007F0D1FBA2E07B68544AD7
S31520000B20934208D10121022007F0C8FB00210220B0
S31520000B3007F0C4FB95E07B684E4A934208D1012119
S31520000B40042007F0BBFB0021042007F0B7FB88E058
S31520000B507B68494A934208D10121082007F0AEFB61
S31520000B600021082007F0AAFB7BE07B68434A9342DA
S31520000B7008D10121102007F0A1FB0021102007F049
S31520000B809DFB6EE07B683E4A934208D101212020DE
S31520000B9007F094FB0021202007F090FB61E07B68A2
S31520000BA0384A934208D10121022007F0A7FB0021F1
S31520000BB0022007F0A3FB54E07B68334A93420AD114
S31520000BC001214FF4803007F099FB00214FF480304B
S31520000BD007F094FB45E07B682C4A93420AD1012119
S31520000BE04FF4003007F08AFB00214FF4003007F065
S31520000BF085FB36E07B68264A93420AD101214FF4D1
S31520000C00802007F07BFB00214FF4802007F076FB45
S31520000C1027E07B681F4A934208D10121402007F034
S31520000C204DFB0021402007F049FB1AE07B681A4A59
S31520000C30934208D10121802007F040FB002180202B
S31520000C4007F03CFB0DE07B68144A934209D1012151
S31520000C504FF4807007F032FB00214FF4807007F0CC
S31520000C602DFB00BF0837BD4680BD00BF00000140F8
S31520000C700004004000080040000C00400010004026
S31520000C80001400400004014000400140004401409F
S31520000C900048014000180040001C00400020004091
S31520000CA080B485B000AF786039600023FB817B6813
S31520000CB01B88FB817B68294A934213D07B68284A8C
S31520000CC093420FD07B68B3F1804F0BD07B68254AC7
S31520000CD0934207D07B68244A934203D07B68234AF9
S31520000CE0934208D1FB8923F07003FB813B685A8825
S31520000CF0FB891343FB817B681D4A93420CD07B689A
S31520000D001C4A934208D0FB8923F44073FB813B683D
S31520000D101A89FB891343FB817B68FA891A803B6811
S31520000D205A687B68DA623B681A887B681A857B6812
S31520000D300A4A934203D07B68094A934204D13B680E
S31520000D409B7A9AB27B681A867B6801229A8200BFB8
S31520000D501437BD465DF8047B704700BF0000014094
S31520000D60000401400004004000080040000C004040
S31520000D70001000400014004080B483B000AF7860BB
S31520000D807B684FF0FF325A607B6800221A807B68AE
S31520000D9000221A817B6800225A807B6800229A7280
S31520000DA000BF0C37BD465DF8047B704780B483B026
S31520000DB000AF78600B467B8013463B807B687A8841
S31520000DC01A857B683A889A8200BF0C37BD465DF843
S31520000DD0047B704780B485B000AF78600B467B807B
S31520000DE00023FB817B681B88FB81FB8923F0700332
S31520000DF0FB81FA897B881343FB817B68FA891A80F9
S31520000E0000BF1437BD465DF8047B704780B483B0BD
S31520000E1000AF786039607B683A685A6200BF0C3749
S31520000E20BD465DF8047B704780B483B000AF786020
S31520000E3039607B683A68DA6200BF0C37BD465DF8D8
S31520000E40047B704780B483B000AF78607B685B6AB0
S31520000E5018460C37BD465DF8047B704780B483B0D6
S31520000E6000AF78607B681B8D9BB218460C37BD4659
S31520000E705DF8047B704780B483B000AF78600B4682
S31520000E80FB70FB78002B08D07B681B889BB243F055
S31520000E9002039AB27B681A8007E07B681B889BB2A4
S31520000EA023F002039AB27B681A8000BF0C37BD4636
S31520000EB05DF8047B704780B483B000AF78600B4642
S31520000EC07B807B88002B08D07B681B889BB243F0F5
S31520000ED004039AB27B681A8007E07B681B889BB262
S31520000EE023F004039AB27B681A8000BF0C37BD46F4
S31520000EF05DF8047B704780B483B000AF78600B4602
S31520000F00FB70FB78002B08D07B681B889BB243F0D4
S31520000F1080039AB27B681A8007E07B681B889BB2A5
S31520000F2023F080039AB27B681A8000BF0C37BD4637
S31520000F305DF8047B704780B483B000AF78600B46C1
S31520000F407B807B681B889BB223F008039AB27B6860
S31520000F501A807B681B889AB27B8813439AB27B6877
S31520000F601A8000BF0C37BD465DF8047B704780B4FD
S31520000F7083B000AF78600B467B807B681B889BB272
S31520000F8023F440739AB27B681A807B681B889AB2D6
S31520000F907B8813439AB27B681A8000BF0C37BD4604
S31520000FA05DF8047B704780B483B000AF78600B4651
S31520000FB0FB70FB78002B08D07B681B889BB243F024
S31520000FC001039AB27B681A8007E07B681B889BB274
S31520000FD023F001039AB27B681A8000BF0C37BD4606
S31520000FE05DF8047B704780B485B000AF78603960C7
S31520000FF000237B810023FB810023BB817B681B8C24
S315200010009BB223F001039AB27B681A847B681B8CFF
S31520001010FB817B689B88BB817B681B8B7B817B8963
S3152000102023F070037B817B8923F003037B813B685C
S315200010301A887B8913437B81FB8923F00203FB817A
S315200010403B689A89FB891343FB813B685A88FB8955
S315200010501343FB817B681F4A934203D07B681E4A59
S31520001060934223D1FB8923F00803FB813B68DA896D
S31520001070FB891343FB81FB8923F00403FB813B6837
S315200010809A88FB891343FB81BB8923F48073BB8138
S31520001090BB8923F40073BB813B681A8ABB8913433F
S315200010A0BB813B685A8ABB891343BB817B68BA895B
S315200010B09A807B687A891A833B689A687B685A6328
S315200010C07B68FA891A8400BF1437BD465DF8047B15
S315200010D0704700BF000001400004014080B485B085
S315200010E000AF7860396000237B810023FB810023D9
S315200010F0BB817B681B8C9BB223F010039AB27B6862
S315200011001A847B681B8CFB817B689B88BB817B68F0
S315200011101B8B7B817B8923F4E0437B817B8923F4B2
S3152000112040737B813B681B881B029AB27B891343E1
S315200011307B81FB8923F02003FB813B689B891B0174
S315200011409AB2FB891343FB813B685B881B019AB2E9
S31520001150FB891343FB817B68224A934203D07B6839
S31520001160214A93422BD1FB8923F08003FB813B68E4
S31520001170DB891B019AB2FB891343FB81FB8923F090
S315200011804003FB813B689B881B019AB2FB89134372
S31520001190FB81BB8923F48063BB81BB8923F4006375
S315200011A0BB813B681B8A9B009AB2BB891343BB81D8
S315200011B03B685B8A9B009AB2BB891343BB817B68E1
S315200011C0BA899A807B687A891A833B689A687B6891
S315200011D09A637B68FA891A8400BF1437BD465DF886
S315200011E0047B7047000001400004014080B485B0B4
S315200011F000AF7860396000237B810023FB810023C8
S31520001200BB817B681B8C9BB223F480739AB27B686C
S315200012101A847B681B8CFB817B689B88BB817B68DF
S315200012209B8B7B817B8923F070037B817B8923F0D9
S3152000123003037B813B681A887B8913437B81FB8967
S3152000124023F40073FB813B689B891B029AB2FB89BE
S315200012501343FB813B685B881B029AB2FB891343CD
S31520001260FB817B68224A934203D07B68214A9342C2
S315200012702BD1FB8923F40063FB813B68DB891B02AE
S315200012809AB2FB891343FB81FB8923F48063FB819C
S315200012903B689B881B029AB2FB891343FB81BB895F
S315200012A023F48053BB81BB8923F40053BB813B6865
S315200012B01B8A1B019AB2BB891343BB813B685B8A9D
S315200012C01B019AB2BB891343BB817B68BA899A807A
S315200012D07B687A899A833B689A687B68DA637B683D
S315200012E0FA891A8400BF1437BD465DF8047B70471F
S315200012F0000001400004014080B485B000AF786052
S3152000130039600023BB8100237B810023FB817B681E
S315200013101B8C9BB223F480539AB27B681A847B6819
S315200013201B8C7B817B689B88FB817B689B8BBB812D
S31520001330BB8923F4E043BB81BB8923F44073BB8183
S315200013403B681B881B029AB2BB891343BB817B89EE
S3152000135023F400537B813B689B891B039AB27B89CC
S3152000136013437B813B685B881B039AB27B891343BB
S315200013707B817B68124A934203D07B68114A934251
S315200013800AD1FB8923F48043FB813B681B8A9B019E
S315200013909AB2FB891343FB817B68FA899A807B6822
S315200013A0BA899A833B689A687B681A647B687A89CB
S315200013B01A8400BF1437BD465DF8047B704700BF12
S315200013C0000001400004014080B483B000AF786083
S315200013D07B6800221A807B6800225A807B68002264
S315200013E09A807B6800229A607B6800229A817B68BB
S315200013F00022DA817B6800221A827B6800225A82C8
S3152000140000BF0C37BD465DF8047B704780B485B0BD
S3152000141000AF78600B467B8013463B800023FB6041
S3152000142000237B817B68FB60FB681833FB607B882D
S31520001430012202FA03F37B817B681B8C9AB27B899B
S31520001440DB439BB213409AB27B681A847B88002BBD
S3152000145002D07B88082B14D17B885B089BB21A4666
S31520001460FB681344FB60FB681968FA684FF68F73B4
S315200014700B401360FB6819683A88FB680A431A60B8
S3152000148018E07B88043B9BB25B089BB21A46FB683C
S315200014901344FB60FB681968FA6848F6FF730B4033
S315200014A01360FB681A683B881B029BB21946FB68CF
S315200014B00A431A6000BF1437BD465DF8047B7047A7
S315200014C080B483B000AF786039607B683A685A632D
S315200014D000BF0C37BD465DF8047B704780B483B0EF
S315200014E000AF786039607B683A689A6300BF0C3732
S315200014F0BD465DF8047B704780B483B000AF78604A
S3152000150039607B683A68DA6300BF0C37BD465DF800
S31520001510047B704780B483B000AF786039607B6805
S315200015203A681A6400BF0C37BD465DF8047B7047E5
S3152000153080B485B000AF78600B467B800023FB81AA
S315200015407B681B8BFB81FB8923F07003FB81FA8967
S315200015507B881343FB817B68FA891A8300BF143783
S31520001560BD465DF8047B704780B485B000AF7860D7
S315200015700B467B800023FB817B681B8BFB81FB89D1
S3152000158023F4E043FB817B881B029AB2FB89134339
S31520001590FB817B68FA891A8300BF1437BD465DF844
S315200015A0047B704780B485B000AF78600B467B80A3
S315200015B00023FB817B689B8BFB81FB8923F07003D7
S315200015C0FB81FA897B881343FB817B68FA899A839E
S315200015D000BF1437BD465DF8047B704780B485B0E4
S315200015E000AF78600B467B800023FB817B689B8B5A
S315200015F0FB81FB8923F4E043FB817B881B029AB2A3
S31520001600FB891343FB817B68FA899A8300BF1437D1
S31520001610BD465DF8047B704780B485B000AF786026
S315200016200B467B800023FB817B681B8BFB81FB8920
S3152000163023F00803FB81FA897B881343FB817B68AF
S31520001640FA891A8300BF1437BD465DF8047B7047BC
S3152000165080B485B000AF78600B467B800023FB8189
S315200016607B681B8BFB81FB8923F40063FB817B88D2
S315200016701B029AB2FB891343FB817B68FA891A8382
S3152000168000BF1437BD465DF8047B704780B485B033
S3152000169000AF78600B467B800023FB817B689B8BA9
S315200016A0FB81FB8923F00803FB81FA897B8813439E
S315200016B0FB817B68FA899A8300BF1437BD465DF8A3
S315200016C0047B704780B485B000AF78600B467B8082
S315200016D00023FB817B689B8BFB81FB8923F40063C2
S315200016E0FB817B881B029AB2FB891343FB817B68B3
S315200016F0FA899A8300BF1437BD465DF8047B70478C
S3152000170080B485B000AF78600B467B800023FB81D8
S315200017107B681B8BFB81FB8923F00403FB81FA8901
S315200017207B881343FB817B68FA891A8300BF1437B1
S31520001730BD465DF8047B704780B485B000AF786005
S315200017400B467B800023FB817B681B8BFB81FB89FF
S3152000175023F48063FB817B881B029AB2FB891343A7
S31520001760FB817B68FA891A8300BF1437BD465DF872
S31520001770047B704780B485B000AF78600B467B80D1
S315200017800023FB817B689B8BFB81FB8923F0040371
S31520001790FB81FA897B881343FB817B68FA899A83CC
S315200017A000BF1437BD465DF8047B704780B485B012
S315200017B000AF78600B467B800023FB817B689B8B88
S315200017C0FB81FB8923F48063FB817B881B029AB211
S315200017D0FB891343FB817B68FA899A8300BF143700
S315200017E0BD465DF8047B704780B485B000AF786055
S315200017F00B467B800023FB817B681B8BFB81FB894F
S3152000180023F08003FB81FA897B881343FB817B6865
S31520001810FA891A8300BF1437BD465DF8047B7047EA
S3152000182080B485B000AF78600B467B800023FB81B7
S315200018307B681B8BFB81FB89C3F30E03FB817B88B3
S315200018401B029AB2FB891343FB817B68FA891A83B0
S3152000185000BF1437BD465DF8047B704780B485B061
S3152000186000AF78600B467B800023FB817B689B8BD7
S31520001870FB81FB8923F08003FB81FA897B88134354
S31520001880FB817B68FA899A8300BF1437BD465DF8D1
S31520001890047B704780B485B000AF78600B467B80B0
S315200018A00023FB817B689B8BFB81FB89C3F30E03A3
S315200018B0FB817B881B029AB2FB891343FB817B68E1
S315200018C0FA899A8300BF1437BD465DF8047B7047BA
S315200018D080B485B000AF78600B467B800023FB8107
S315200018E07B681B8CFB81FB8923F00203FB81FA8931
S315200018F07B881343FB817B68FA891A8400BF1437DF
S31520001900BD465DF8047B704780B485B000AF786033
S315200019100B467B800023FB817B681B8CFB81FB892C
S3152000192023F00803FB81FA897B881343FB817B68BC
S31520001930FA891A8400BF1437BD465DF8047B7047C8
S3152000194080B485B000AF78600B467B800023FB8196
S315200019507B681B8CFB81FB8923F02003FB817B8822
S315200019601B019AB2FB891343FB817B68FA891A848F
S3152000197000BF1437BD465DF8047B704780B485B040
S3152000198000AF78600B467B800023FB817B681B8C35
S31520001990FB81FB8923F08003FB817B881B019AB2A4
S315200019A0FB891343FB817B68FA891A8400BF1437AD
S315200019B0BD465DF8047B704780B485B000AF786083
S315200019C00B467B800023FB817B681B8CFB81FB897C
S315200019D023F40073FB817B881B029AB2FB89134395
S315200019E0FB817B68FA891A8400BF1437BD465DF8EF
S315200019F0047B704780B485B000AF78600B467B804F
S31520001A000023FB817B681B8CFB81FB8923F400630D
S31520001A10FB817B881B029AB2FB891343FB817B687F
S31520001A20FA891A8400BF1437BD465DF8047B7047D7
S31520001A3080B485B000AF78600B467B800023FB81A5
S31520001A407B681B8CFB81FB8923F40053FB817B88FD
S31520001A501B039AB2FB891343FB817B68FA891A849C
S31520001A6000BF1437BD465DF8047B704780B485B04F
S31520001A7000AF78600B467B8013463B800023FB81BA
S31520001A807B88012202FA03F3FB817B681B8C9AB2C6
S31520001A90FB89DB439BB213409AB27B681A847B682E
S31520001AA01B8C9AB239887B8801FA03F39BB21343C5
S31520001AB09AB27B681A8400BF1437BD465DF8047B52
S31520001AC0704780B485B000AF78600B467B801346A4
S31520001AD03B800023FB817B88042202FA03F3FB81EF
S31520001AE07B681B8C9AB2FB89DB439BB213409AB26C
S31520001AF07B681A847B681B8C9AB239887B8801FAAA
S31520001B0003F39BB213439AB27B681A8400BF14373F
S31520001B10BD465DF8047B704780B582B000AF786023
S31520001B2039603B681B88002B0FD13B6859883B687E
S31520001B309A883B681B89786800F0B7FC3B68DB888D
S31520001B401946786800F0E1F836E03B681B88042BDC
S31520001B500FD13B6859883B689A883B681B8978680F
S31520001B6000F0E6FC3B68DB881946786800F0E9F867
S31520001B7022E03B681B88082B0FD13B6859883B68BD
S31520001B809A883B681B89786800F01FFD3B68DB88D4
S31520001B901946786800F0F3F80EE03B6859883B68F0
S31520001BA09A883B681B89786800F057FD3B68DB887C
S31520001BB01946786800F0FFF800BF0837BD4680BD9B
S31520001BC080B483B000AF78607B6800221A807B687F
S31520001BD000225A807B6801229A807B680022DA8064
S31520001BE07B6800221A8100BF0C37BD465DF8047B56
S31520001BF0704780B584B000AF786039600023FB81E0
S31520001C000123BB813B685B88002B02D10223FB8129
S31520001C1001E00023FB813B689B88012B02D1022334
S31520001C20BB8101E00123BB813B681B88002B1CD1B3
S31520001C303B6859883B689A883B681B89786800F01E
S31520001C4034FC3B68DB881946786800F05EF83B6810
S31520001C501B89BA89F989786800F06AFC3B68DB88B9
S31520001C601946786800F06DF81BE03B6859883B6898
S31520001C709A883B681B89786800F05AFC3B68DB88A9
S31520001C801946786800F05DF83B681B89BA89F9899E
S31520001C90786800F00AFC3B68DB881946786800F013
S31520001CA034F800BF1037BD4680BD80B483B000AF86
S31520001CB078607B685B6B18460C37BD465DF8047B05
S31520001CC0704780B483B000AF78607B689B6B184602
S31520001CD00C37BD465DF8047B704780B483B000AFF7
S31520001CE078607B68DB6B18460C37BD465DF8047B55
S31520001CF0704780B483B000AF78607B681B6C184651
S31520001D000C37BD465DF8047B704780B483B000AFC6
S31520001D1078600B467B807B681B8B9BB223F00C0381
S31520001D209AB27B681A837B681B8B9AB27B88134393
S31520001D309AB27B681A8300BF0C37BD465DF8047BD8
S31520001D40704780B483B000AF78600B467B807B6899
S31520001D501B8B9BB223F440639AB27B681A837B6801
S31520001D601B8B9AB27B881B029BB213439AB27B6869
S31520001D701A8300BF0C37BD465DF8047B704780B4DC
S31520001D8083B000AF78600B467B807B689B8B9BB2D1
S31520001D9023F00C039AB27B689A837B689B8B9AB25A
S31520001DA07B8813439AB27B689A8300BF0C37BD4663
S31520001DB05DF8047B704780B483B000AF78600B4633
S31520001DC07B807B689B8B9BB223F440639AB27B68B3
S31520001DD09A837B689B8B9AB27B881B029BB21343A8
S31520001DE09AB27B689A8300BF0C37BD465DF8047BA8
S31520001DF0704780B483B000AF786039603B681A883A
S31520001E003B685B8813439AB23B689B8813439AB21C
S31520001E103B68DB8813439AB23B681B8913439AB20B
S31520001E203B685B8913439AB23B689B8913439AB2FA
S31520001E307B68A3F8442000BF0C37BD465DF8047BC1
S31520001E40704780B483B000AF78607B6800221A8028
S31520001E507B6800225A807B6800229A807B68002259
S31520001E60DA807B6800221A817B6800225A817B688F
S31520001E7000229A8100BF0C37BD465DF8047B70476F
S31520001E8080B483B000AF78600B46FB70FB78002BE4
S31520001E900CD07B68B3F844309BB26FEA43436FEAB9
S31520001EA053439AB27B68A3F8442009E07B68B3F8D1
S31520001EB044309BB2C3F30E039AB27B68A3F8442046
S31520001EC000BF0C37BD465DF8047B704780B483B0F5
S31520001ED000AF78600B46FB70FB78002B08D07B6840
S31520001EE09B889BB243F004039AB27B689A8007E0F2
S31520001EF07B689B889BB223F004039AB27B689A8006
S31520001F0000BF0C37BD465DF8047B704780B483B0B4
S31520001F1000AF78600B46FB70FB78002B08D07B68FF
S31520001F209B889BB243F001039AB27B689A8007E0B4
S31520001F307B689B889BB223F001039AB27B689A80C8
S31520001F4000BF0C37BD465DF8047B704780B483B074
S31520001F5000AF78600B467B8013467B707B78002B26
S31520001F6008D07B689B899AB27B8813439AB27B6898
S31520001F709A8109E07B689B899AB27B88DB439BB276
S31520001F8013409AB27B689A8100BF0C37BD465DF834
S31520001F90047B704780B483B000AF78600B467B80AB
S31520001FA07B687A889A8200BF0C37BD465DF8047B31
S31520001FB0704780B485B000AF78600B467B800023E5
S31520001FC0FB737B681B8A9AB27B8813409BB2002BDB
S31520001FD002D00123FB7301E00023FB73FB7B184631
S31520001FE01437BD465DF8047B704780B483B000AFDC
S31520001FF078600B467B807B88DB439AB27B681A82AB
S3152000200000BF0C37BD465DF8047B704780B485B0B1
S3152000201000AF78600B467B800023FB730023BB81D7
S3152000202000237B817B681B8A9AB27B881340BB8105
S315200020307B689B899AB27B8813407B81BB89002B66
S3152000204005D07B89002B02D00123FB7301E00023FE
S31520002050FB73FB7B18461437BD465DF8047B70473F
S3152000206080B483B000AF78600B467B807B88DB43EF
S315200020709AB27B681A8200BF0C37BD465DF8047B96
S31520002080704780B483B000AF78600B467B801346E0
S315200020903B807A883B8813439AB27B68A3F8482012
S315200020A000BF0C37BD465DF8047B704780B483B013
S315200020B000AF78600B467B8013467B707B78002BC5
S315200020C008D07B689B899AB27B8813439AB27B6837
S315200020D09A8109E07B689B899AB27B88DB439BB215
S315200020E013409AB27B689A8100BF0C37BD465DF8D3
S315200020F0047B704780B483B000AF78600B46FB70DA
S31520002100FB78002B08D07B689B889BB243F00803A2
S315200021109AB27B689A8007E07B689B889BB223F003
S3152000212008039AB27B689A8000BF0C37BD465DF8DB
S31520002130047B704780B483B000AF78607B681B89CE
S315200021409BB223F007039AB27B681A8100BF0C3733
S31520002150BD465DF8047B704780B582B000AF7860DD
S315200021600B467B807B881946786800F088F87B6868
S315200021701B899BB243F007039AB27B681A8100BF82
S315200021800837BD4680BD80B584B000AFF8600846EC
S3152000219011461A4603467B810B463B811346FB803C
S315200021A07B89602B06D1FB8839890122F86800F0EB
S315200021B0BFF905E0FB8839890122F86800F075F936
S315200021C07B891946F86800F05AF8FB681B899BB290
S315200021D043F007039AB2FB681A8100BF1037BD4649
S315200021E080BD80B586B000AFF860084611461A4615
S315200021F003467B810B463B811346FB800023FB82F3
S31520002200FB883A897989F86800F0A9F8FB681B8968
S31520002210FB82FB8A23F00703FB82FB8A43F007033A
S31520002220FB82FB8A23F07003FB82FB8A43F0700358
S31520002230FB82FB68FA8A1A8100BF1837BD4680BD2B
S3152000224080B584B000AFF860084611461A460346AA
S315200022507B810B463B811346FB80FB883A89798933
S31520002260F86800F07CF8FB681B899BB243F4804336
S315200022709AB2FB681A8100BF1037BD4680BD80B474
S3152000228085B000AF78600B467B800023FB817B689E
S315200022901B89FB81FB8923F07003FB81FA897B88EC
S315200022A01343FB817B68FA891A8100BF1437BD4628
S315200022B05DF8047B704780B483B000AF78600B462E
S315200022C07B807B689B889BB223F070039AB27B68E5
S315200022D09A807B689B889AB27B8813439AB27B68E4
S315200022E09A8000BF0C37BD465DF8047B704780B4EA
S315200022F083B000AF78600B467B807B681B899BB2DE
S3152000230023F007039AB27B681A817B681B899AB2ED
S315200023107B8813439AB27B681A8100BF0C37BD466F
S315200023205DF8047B704780B483B000AF78600B46BD
S315200023307B807B681B899BB223F080039AB27B68E3
S315200023401A817B681B899AB27B8813439AB27B6871
S315200023501A8100BF0C37BD465DF8047B704780B4F8
S3152000236087B000AFF860084611461A4603467B81BF
S315200023700B463B811346FB800023FB82FB681B89AF
S31520002380FB82FB8ADBB2FB82FB881B029AB23B896B
S3152000239013439AB27B8913439AB2FB8A1343FB8277
S315200023A0FB68FA8A1A8100BF1C37BD465DF8047B9C
S315200023B0704780B487B000AFF860084611461A46C9
S315200023C003467B810B463B811346FB800023FB8221
S315200023D00023BB8200237B82FB681B89FB82FB6870
S315200023E01B8BBB82FB681B8C7B82FB8A23F007033B
S315200023F0FB82FA8A7B891343FB82BB8A23F44073D0
S3152000240023F00303BB82BB8A43F4807343F00103AA
S31520002410BB827B8A23F022037B82FB881B019AB234
S315200024203B8913439AB27B8A13437B82FB68FA8AE1
S315200024301A81FB68BA8A1A83FB687A8A1A8400BFD3
S315200024401C37BD465DF8047B704780B483B000AF6F
S3152000245078600B46FB70FB78002B08D07B689B8846
S315200024609BB243F080039AB27B689A8007E07B6830
S315200024709B889BB223F080039AB27B689A8000BF28
S315200024800C37BD465DF8047B704780B483B000AF3F
S3152000249078600B467B807B687A88A3F8502000BF43
S315200024A00C37BD465DF8047B704780B487B000AF1B
S315200024B0F860084611461A4603467B810B463B8147
S315200024C01346FB800023FB820023BB82FB681B8C08
S315200024D09BB223F001039AB2FB681A84FB681B8B1C
S315200024E0FB82FB681B8CBB82FB8A23F0F303FB82F7
S315200024F0FB881B019AB23B8913439AB2FB8A13438A
S31520002500FB82BB8A23F00A03BB827A89BB8A1343E8
S315200025109BB243F00103BB82FB68FA8A1A83FB68ED
S31520002520BA8A1A8400BF1C37BD465DF8047B704703
S3152000253080B487B000AFF860084611461A460346B5
S315200025407B810B463B811346FB800023FB820023C5
S31520002550BB8200237B82FB681B8C9BB223F010037B
S315200025609AB2FB681A84FB681B8BFB82FB681B8C68
S31520002570BB827B891B017B82FB8A23F440731B056C
S315200025801B0DFB82FB881B039AB2FB8A1343FB823B
S315200025903B891B029AB2FB8A1343FB82BB8A23F038
S315200025A0A003BB827A8ABB8A13439BB243F01003F3
S315200025B0BB82FB68FA8A1A83FB68BA8A1A8400BF30
S315200025C01C37BD465DF8047B704780B487B000AFEA
S315200025D0F860084611461A4603467B810B463B8126
S315200025E01346FB800023FB820023BB8200237B82D1
S315200025F0FB681B8C9BB223F480739AB2FB681A8407
S31520002600FB689B8BFB82FB681B8CBB827B891B0236
S315200026107B82FB8A23F0F303FB82FB881B019AB2A1
S315200026203B8913439AB2FB8A1343FB82BB8A23F46A
S315200026302063BB827A8ABB8A13439BB243F480739E
S31520002640BB82FB68FA8A9A83FB68BA8A1A8400BF1F
S315200026501C37BD465DF8047B704780B487B000AF59
S31520002660F860084611461A4603467B810B463B8195
S315200026701346FB800023FB820023BB8200237B8240
S31520002680FB681B8C9BB223F480539AB2FB681A8496
S31520002690FB689B8BFB82FB681B8CBB827B891B03A5
S315200026A07B82FB8A23F440731B051B0DFB823B892F
S315200026B01B029AB2FB8A1343FB82FB881B039AB246
S315200026C0FB8A1343FB82BB8A23F400535B045B0C17
S315200026D0BB827A8ABB8A13439BB243F48053BB8264
S315200026E0FB68FA8A9A83FB68BA8A1A8400BF1C3769
S315200026F0BD465DF8047B704780B582B000AF786038
S315200027007B684B4A934208D10121012005F076FDD2
S315200027100021012005F072FD86E07B68454A934240
S3152000272008D10121022005F069FD0021022005F0D3
S3152000273065FD79E07B68404A934208D10121042057
S3152000274005F05CFD0021042005F058FD6CE07B6857
S315200027503A4A934208D10121082005F04FFD002175
S31520002760082005F04BFD5FE07B68354A934208D18F
S315200027700121102005F042FD0021102005F03EFD2C
S3152000278052E07B682F4A934208D10121202005F090
S3152000279035FD0021202005F031FD45E07B682A4AE1
S315200027A0934208D10121402005F028FD0021402038
S315200027B005F024FD38E07B68244A934208D10121A4
S315200027C0802005F01BFD0021802005F017FD2BE061
S315200027D07B681F4A93420AD101214FF4807005F08D
S315200027E00DFD00214FF4807005F008FD1CE07B688C
S315200027F0184A93420AD101214FF4007005F0FEFCDD
S3152000280000214FF4007005F0F9FC0DE07B68124AB8
S31520002810934209D101214FF4806005F0EFFC00219D
S315200028204FF4806005F0EAFC00BF0837BD4680BD46
S31520002830000002400004024000080240000C024052
S31520002840001002400014024000180240001C024002
S3152000285000200240002402400028024080B487B0B5
S3152000286000AF7860396000237B6100233B61002341
S31520002870FB6000237B6176E001227B6902FA03F389
S315200028803B613B681B683A691340FB60FA683B6909
S315200028909A4265D17B681A687B695B00032101FA3D
S315200028A003F3DB431A407B681A607B681A683B682F
S315200028B01B7919467B695B0001FA03F31A437B688F
S315200028C01A603B681B79012B03D03B681B79022BCE
S315200028D02ED17B689A687B695B00032101FA03F39A
S315200028E0DB431A407B689A607B689A683B685B7911
S315200028F019467B695B0001FA03F31A437B689A60E9
S315200029007B685A687B699BB2194601238B40DB435F
S315200029101A407B685A607B685B683A6892791146F0
S315200029207A6992B201FA02F292B21A437B685A602D
S315200029307B68DA687B699BB25B00032101FA03F3AB
S31520002940DB431A407B68DA607B68DA683B68DB79B0
S3152000295019467B695B0001FA03F31A437B68DA6048
S315200029607B6901337B617B690F2B85D900BF1C37BF
S31520002970BD465DF8047B704780B483B000AF7860B5
S315200029807B684FF6FF721A607B6800221A717B689B
S3152000299000225A717B6800229A717B680022DA71C4
S315200029A000BF0C37BD465DF8047B704780B485B008
S315200029B000AF78600B467B804FF48033FB607A88CB
S315200029C0FB681343FB60FA687B68DA617A887B6868
S315200029D0DA61FA687B68DA617B68DB69FB607B68B1
S315200029E0DB69FB6000BF1437BD465DF8047B70478A
S315200029F080B485B000AF78600B467B800023FB73E4
S31520002A007B681A697B881340002B02D00123FB7355
S31520002A1001E00023FB73FB7B18461437BD465DF8A7
S31520002A20047B704780B483B000AF78607B681B69F5
S31520002A309BB218460C37BD465DF8047B704780B4C0
S31520002A4085B000AF78600B467B800023FB737B68E4
S31520002A505A697B881340002B02D00123FB7301E0C7
S31520002A600023FB73FB7B18461437BD465DF8047BB9
S31520002A70704780B483B000AF78607B685B699BB297
S31520002A8018460C37BD465DF8047B704780B483B08A
S31520002A9000AF78600B467B807B687A881A8300BFFC
S31520002AA00C37BD465DF8047B704780B483B000AF19
S31520002AB078600B467B807B687A885A8300BF0C3708
S31520002AC0BD465DF8047B704780B483B000AF786064
S31520002AD00B467B8013467B707B78002B03D07B686C
S31520002AE07A881A8302E07B687A885A8300BF0C377B
S31520002AF0BD465DF8047B704780B483B000AF786034
S31520002B000B467B807A887B685A6100BF0C37BD46AE
S31520002B105DF8047B704780B483B000AF78600B46C5
S31520002B207B807B685A697B885A407B685A6100BFE4
S31520002B300C37BD465DF8047B704780B485B000AF86
S31520002B4078600B467B8013467B700023FB60002356
S31520002B50BB607A787B8803F007039B0002FA03F3B5
S31520002B60FB607B88DB089BB21A467B68083253F8E9
S31520002B7022207B8803F007039B000F2101FA03F331
S31520002B80DB437988C90889B2084602EA03017B68D3
S31520002B9000F1080243F822107B88DB089BB21A4614
S31520002BA07B68083253F82230FA681343BB607B886F
S31520002BB0DB089BB21A467B680832B96843F82210B4
S31520002BC000BF1437BD465DF8047B704780B500AF63
S31520002BD001214FF0005005F071FB00214FF000500D
S31520002BE005F06CFB00BF80BD80B485B000AF786077
S31520002BF039600023FB600023BB60144B1B68FB601D
S31520002C0040F6FE727B6802FA03F3DB43FA68134050
S31520002C10FB603B681A683B685B681A433B689B68A5
S31520002C201A433B68DB681343BB60BA687B6802FAC9
S31520002C3003F3FA681343FB60044AFB68136000BF82
S31520002C401437BD465DF8047B704700BF0074004012
S31520002C5080B483B000AF78607B6800221A607B68FE
S31520002C6000225A607B6800229A607B680022DA6024
S31520002C7000BF0C37BD465DF8047B704780B483B037
S31520002C8000AF78600B46FB70FB78002B09D00D4B0C
S31520002C901A6801217B6801FA03F30A4913430B6082
S31520002CA009E0084B1A6801217B6801FA03F3DB432C
S31520002CB0044913400B6000BF0C37BD465DF8047B0A
S31520002CC0704700BF0074004080B483B000AF7860C6
S31520002CD00B46FB70FB78002B0AD00E4B5A687B689C
S31520002CE01B09012101FA03F30A4913434B600AE049
S31520002CF0084B5A687B681B09012101FA03F3DB4361
S31520002D00044913404B6000BF0C37BD465DF8047B79
S31520002D10704700BF0074004080B483B000AF034604
S31520002D20FB71FB79002B06D0094B5B68084A43F000
S31520002D300303536005E0064B5B68054A23F0030353
S31520002D40536000BF0C37BD465DF8047B704700BF5B
S31520002D500074004080B485B000AFF860B9601346B7
S31520002D60FB71FB79002B09D00C4B1A68B968FB68FC
S31520002D7001FA03F3094913430B6009E0074B1A686C
S31520002D80B968FB6801FA03F3DB43044913400B607F
S31520002D9000BF1437BD465DF8047B704700740040C1
S31520002DA080B485B000AF78600B467B800023FB6043
S31520002DB0084BFB60FA687B6813440833FB60FB68AA
S31520002DC01A467B88136000BF1437BD465DF8047B26
S31520002DD0704700BF0074004080B485B000AF7860B3
S31520002DE00B467B800023FB60084BFB60FA687B6800
S31520002DF013441433FB60FB681A467B88136000BFBC
S31520002E001437BD465DF8047B704700BF0074004050
S31520002E1080B485B000AF78600B467B8013463B803C
S31520002E200023FB600023BB607B68082B05D17B88D1
S31520002E301A023B881343FB6004E07B881A043B8814
S31520002E401343FB60074BBB607A68BB68134420338F
S31520002E50BB60BB68FA681A6000BF1437BD465DF8D0
S31520002E60047B70470074004080B485B000AF786062
S31520002E700023FB60084BFB607B689A08FB681344C1
S31520002E802C33FB60FB681B689BB218461437BD4683
S31520002E905DF8047B704700BF0074004080B483B0A7
S31520002EA000AF78600B46FB70FB78002B0AD00E4BE8
S31520002EB01A684FF480517B6801FA03F30A491343D9
S31520002EC00B600AE0084B1A684FF480517B6801FAC0
S31520002ED003F3DB43044913400B6000BF0C37BD46A8
S31520002EE05DF8047B704700BF0074004080B485B055
S31520002EF000AFF860B9601346FB71FB79002B09D04F
S31520002F000C4B1A68B968FB6801FA03F309491343A5
S31520002F100B6009E0074B1A68B968FB6801FA03F3EE
S31520002F20DB43044913400B6000BF1437BD465DF8F0
S31520002F30047B70470074004080B485B000AF786091
S31520002F4039600023FB730A4B5A6B39687B6801FA98
S31520002F5003F31340002B02D00123FB7301E000236F
S31520002F60FB73FB7B18461437BD465DF8047B704720
S31520002F700074004080B483B000AF786039600649A1
S31520002F803A687B6802FA03F34B6300BF0C37BD46F1
S31520002F905DF8047B704700BF0074004080B485B0A4
S31520002FA000AF786039600023FB730023BB60104BB1
S31520002FB01A6839687B6801FA03F31340BB600C4B2F
S31520002FC05A6B39687B6801FA03F31340002B05D04E
S31520002FD0BB68002B02D00123FB7301E00023FB73A7
S31520002FE0FB7B18461437BD465DF8047B704700BF4F
S31520002FF00074004080B483B000AF78603960064921
S315200030003A687B6802FA03F34B6300BF0C37BD4670
S315200030105DF8047B704700BF0074004080B483B025
S3152000302000AF78607B680022C3F8A0207B6800226E
S31520003030C3F8A4207B680022C3F8A82000BF0C3761
S31520003040BD465DF8047B704780B584B002AF7860DA
S3152000305039607B680122DA603B680093054B7A6809
S3152000306041F28831002003F031FC00BF0837BD460D
S3152000307080BD00BF7930002080B584B002AF786073
S3152000308039607B68DB68002B0DD00021084801F0F1
S3152000309054FF3B680093074B7A6841F288314CF223
S315200030A0503003F013FC00BF0837BD4680BD00BF7B
S315200030B030A000207930002080B483B000AF786043
S315200030C039607B683A689A6000BF0C37BD465DF868
S315200030D0047B704780B582B000AF78607B680022A1
S315200030E0DA600021034801F017FF00BF0837BD460C
S315200030F080BD00BF30A0002080B588B002AF7860C8
S315200031003960254B1A462549254803F07DFC7B6806
S31520003110D3F8A020511C7B68C3F8A0107968134609
S315200031205B0013449B000B4403F1080207F10C03D8
S3152000313007CA83E807007B68D3F8A010194B83FBE6
S3152000314001239A10CB17D21A13469B0013445B0017
S31520003150CA1A7B68C3F8A0207B68D3F8A8305A1E09
S315200031607B68C3F8A82007F10C0319460E4800F027
S3152000317021F87B68D3F8A830002B08DD3B68009344
S315200031800A4B7A6842F21071094803F09FFB00BF90
S315200031901837BD4680BD00BFFC9400207773002001
S315200031A0909B002067666666089B0020F930002009
S315200031B0A086010080B582B000AF786039607B6858
S315200031C003F124003B681B780F4A1E2105F088FA7C
S315200031D07B6824331A460D490D4803F015FC7B689D
S315200031E003F124003B6804330A4A1E2105F078FACD
S315200031F07B6824331A460549054803F005FC00BFC1
S315200032000837BD4680BD00BF10950020777300208B
S31520003210909B00202095002080B596B002AF786064
S31520003220396007F140031A46A449A54803F0ECFB90
S3152000323007F140031A46A149A14803F0E5FB7B6844
S315200032405B6D002B0CD17B6801225A659D4803F0EB
S31520003250BBFC07F1400319467868FFF7ABFF0CE08B
S31520003260984803F0CFFCF864964803F0ADFC07F1CC
S31520003270400319467868FFF79DFF7B681B7F002B6C
S3152000328000F0F78097F84430613B152B00F2C2809E
S3152000329001A252F823F000BFE533002015340020A8
S315200032A01534002015340020B133002015340020B9
S315200032B01534002015340020153400201534002044
S315200032C06D330020153400200334002015340020EF
S315200032D06D330020D3330020153400201534002010
S315200032E08B3300204933002015340020F132002092
S315200032F097F84530FF2B08D101230093724B734A70
S315200033000021002003F0E2FA8BE097F84530FE2BEF
S3152000331008D1012300936E4B6C4A0021002003F054
S31520003320D5FA7EE097F84530002B7AD097F84530CD
S31520003330142B76D897F845300093664B634A0021C4
S31520003340002003F0C3FA6CE097F845303B2B6AD98E
S3152000335097F84530F02B66D897F8453000935E4BAA
S315200033607A680021002003F0B1FA5CE097F8453036
S315200033700A2B5AD897F84530053B0093574B7A6865
S315200033800021002003F0A2FA4FE097F84530002BE9
S3152000339005D097F845207B681B7F9A4247D10023AA
S315200033A000934F4B7A680021002003F08FFA3EE00D
S315200033B0002300934B4B7A680021002003F086FA05
S315200033C000230093484B7A680021002003F07EFA00
S315200033D02EE000230093434B7A680021002003F05F
S315200033E075FA25E0622387F844307B681B7F87F8CF
S315200033F0453007F140031A463C49314803F004FBA7
S3152000340016E097F845207B681B7F9A4202D17B689D
S3152000341000221A77364B1A463649374803F0F4FA13
S3152000342006E000BF04E000BF02E000BF00E000BFEE
S3152000343097F844301A4607F120033049184605F01C
S315200034409FF907F120031A462A492B4803F0DCFA94
S3152000345097F845301A4607F120032949184605F002
S315200034608FF907F120031A462249234803F0CCFAA4
S315200034701FE097F84430622B1BD197F845301A4647
S3152000348007F10C031F49184605F07AF91E4B1A4618
S315200034901849194803F0B8FA07F10C031A461549DA
S315200034A0154803F0B1FA194B1A461249124803F08F
S315200034B0ABFA00BF5037BD4680BD00BFA1770020C4
S315200034C0B09F002074A1002099460020EC9A00208D
S315200034D05D4600201B46002055440020D54500208F
S315200034E0D93F002015430020D142002063780020D8
S315200034F02495002077730020909B0020449500207F
S315200035005C950020749500207895002084950020F5
S3152000351080B58CB002AF7860396000233B6200230F
S315200035207B620023FB617B681B6D002B06D17B68C9
S3152000353001221A65734803F047FBDEE0714803F069
S3152000354061FB0346704A82FB03125213DB17D31A20
S31520003550BB616C4803F056FB02466B4B83FB0213A0
S315200035605913D317CB1A694901FB03F3D31A684AB7
S3152000357082FB03125211DB17D31A7B61BB694FF40E
S315200035807A7202FB03F37A6913443B625D4803F0C7
S315200035901BFB3B6A962B40F3B0807B689B6D002B10
S315200035A008D17B683A6ADA657B689B6D5A1C7B6812
S315200035B09A6570E07B689B6D012B1CD17B68DA6D68
S315200035C03B6AD31A13F1630F0EDB7B68DA6D3B6A15
S315200035D0D31A632B08DC7B683A6A1A667B689B6D74
S315200035E05A1C7B689A6556E07B683A6ADA657B687E
S315200035F000229A654FE07B681A6E3B6AD31A13F154
S31520003600630F40DB7B681A6E3B6AD31A632B3ADC66
S315200036107B68DA6D3B6AD31A13F1630F33DB7B6861
S31520003620DA6D3B6AD31A632B2DDC7B683A6A5A66BD
S315200036307B68DA6D7B681B6E1A447B685B6E13446D
S31520003640344A82FB0312DB17D31AFB614EF6602243
S31520003650FB6992FBF3F37B627B6AF02B17DC7B6AB8
S315200036603B2B14DD7B6A00932B4B2C4A0021002038
S3152000367003F02CF9FB690093294B2A4A00210020EC
S3152000368003F024F903E07B683A6ADA6500E000BFBC
S315200036907B6800229A657B6803F124007B6A224AB4
S315200036A01E2105F01DF87B6893F868305A1CD1B2AC
S315200036B07A6882F868103B7201237B727B6803F17B
S315200036C024003B6A194A1E2105F00AF87B68243338
S315200036D01A461749174803F097F907F108030433E8
S315200036E0184604F067FF0346DBB2BB7207F10803F6
S315200036F01A461149114803F087F900BF2837BD46FD
S3152000370080BD00BF70A1002089B5F814A0860100F5
S315200037101F85EB515655555555440020089B0020D2
S31520003720B930002044A0002094950020A4950020C4
S3152000373077730020909B002063780020B09F0020A4
S3152000374080B582B000AF786039607B681B7F002B24
S3152000375004D13968786800F011F805E0044B1A4660
S315200037600449054803F050F900BF0837BD4680BD1F
S31520003770BC95002077730020909B002080B59AB0DE
S3152000378002AF786039607B681B7F87F84130002361
S3152000379087F84030022387F84230012387F85F30CC
S315200037A03B68DBB21A46B849B84803F02DF93B68A6
S315200037B0DBB2203B562B00F2E98201A252F823F01D
S315200037C0813C00208D3D00208D3D00208D3D002038
S315200037D08D3D00208D3D00208D3D00208D3D00201B
S315200037E08D3D00208D3D00208D3D00208D3D00200B
S315200037F02D3C00201D390020D93B00208D3D002086
S31520003800353900203539002035390020353900205A
S31520003810353900203539002035390020353900204A
S315200038203539002035390020D93B00202D3C002099
S315200038308D3D00208D3D00208D3D00208D3D0020BA
S315200038408D3D00208D3D00208D3D0020133B002026
S315200038508D3D00208D3D00208D3D00208D3D00209A
S315200038608D3D00208D3D00208D3D00208D3D00208A
S315200038708D3D0020A33B00208D3D0020A93A00204D
S31520003880C73C00208D3D0020F73C00208D3D0020C8
S31520003890593900203D3D0020233A00208D3D00204F
S315200038A08D3D00208D3D00208D3D00208D3D00204A
S315200038B08D3D00208D3D00208D3D00208D3D00203A
S315200038C08D3D00208D3D00208D3D0020133B0020A6
S315200038D08D3D00208D3D00208D3D00208D3D00201A
S315200038E08D3D00208D3D00208D3D00208D3D00200A
S315200038F08D3D0020A33B00208D3D0020A93A0020CD
S31520003900C73C00208D3D0020F73C00208D3D002047
S31520003910593900203D3D0020233A00203B68DAB289
S315200039207B6883F824207B6801221A62002387F8AB
S315200039305F305CE27B681B6A3A68D1B27A681344CE
S315200039400A4683F824207B681B6A5A1C7B681A6205
S31520003950002387F85F304AE27B681B6A7A68134443
S31520003960002283F824207B6800221A627B68243395
S31520003970184604F07DFE02467B689A637B689A6B44
S3152000398007F12C034249184604F0FAFE07F12C03EE
S315200039901A4640493D4803F037F87B685B69002B9F
S315200039A01ED07B689B6BF02B1ADC7B689B6B3B2BBA
S315200039B016DD7B689A6B7B68DA647B68DA6C07F1C4
S315200039C02C033549184604F0DBFE07F12C031A4672
S315200039D030492E4803F018F8002387F85F3010E0AE
S315200039E07B689B6B00932D4B7A680021002002F0A8
S315200039F06DFF742387F844307B689B6BDBB287F8B6
S31520003A0045300023BB6508E07A68BB6D1344243338
S31520003A1000221A70BB6D0133BB65BB6D132BF3DD22
S31520003A20E5E17B681B6A7A681344002283F8242028
S31520003A307B6800221A627B682433184604F018FE3D
S31520003A4002467B689A637B689B6B0093144B154AEE
S31520003A500021002002F03AFF762387F844307B6865
S31520003A609B6BDBB287F8453000237B6508E07A68DC
S31520003A707B6D1344243300221A707B6D01337B65E2
S31520003A807B6D132BF3DDB2E1CB730020909B0020DE
S31520003A90EC95002077730020F895002055440020EF
S31520003AA01B460020EC9A00207B681B6A7A68134428
S31520003AB0002283F824207B6800221A627B68243344
S31520003AC0184604F0D5FD02467B689A637B689B6B9B
S31520003AD00093B24B7A680021002002F0F7FE6F2394
S31520003AE087F844307B689B6BDBB20533DBB287F803
S31520003AF0453000233B6508E07A683B6D1344243348
S31520003B0000221A703B6D01333B653B6D132BF3DDB1
S31520003B106DE17B685B69002B39D17B681B6A7A680B
S31520003B201344002283F824207B6800221A627B68D3
S31520003B302433184604F09CFD02467B689A637B6812
S31520003B409A6B07F12C039649184604F019FE07F1E3
S31520003B502C031A469349944802F056FF0023FB642F
S31520003B6008E07A68FB6C1344243300221A70FB6C3D
S31520003B700133FB64FB6C132BF3DD7B689B6B00939B
S31520003B808A4B8B4A0021002002F0A0FE05E0894BDB
S31520003B901A468449844802F037FF002387F85F30AD
S31520003BA025E101230093844B7A680021002002F04E
S31520003BB08DFE824B1A467B497B4802F025FF804BBF
S31520003BC01A467849784802F01FFF762387F8443052
S31520003BD0002387F845300AE101217A4800F03EFDAE
S31520003BE0024607F12C037849184604F0C9FD7623CE
S31520003BF087F844300021734800F002FD0346DBB20B
S31520003C0087F84530714B1A466649674802F0FCFE34
S31520003C1007F12C031A466349634802F0F5FE684B08
S31520003C201A466049604802F0EFFEE0E0012165484F
S31520003C3000F032FD024607F12C036349184604F0D2
S31520003C409FFD624B1A465749574802F0DDFE07F1A1
S31520003C502C031A465349544802F0D6FE584B1A46AE
S31520003C605049514802F0D0FE762387F8443000218F
S31520003C70544800F0C5FC0346DBB287F84530B6E071
S31520003C8000230093524B7A680021002002F01EFE8A
S31520003C90504B1A464349444802F0B6FE484B1A4652
S31520003CA04049414802F0B0FE732387F84430002390
S31520003CB087F845307B68DB6B002B00F0978000236C
S31520003CC087F85F3092E000230093434B7A68002107
S31520003CD0002002F0FBFD414B1A463249324802F0E1
S31520003CE093FE374B1A462F492F4802F08DFE70233C
S31520003CF087F844307BE000230093394B7A68002113
S31520003D00002002F0E3FD00230093334B7A68002164
S31520003D10002002F0DBFD334B1A462249224802F0EE
S31520003D2073FE274B1A461F491F4802F06DFE652376
S31520003D3087F844307B6801221A6458E07B681B6A46
S31520003D407A681344002283F824207B6800221A62B2
S31520003D507B682433184604F08BFC02467B689A6302
S31520003D607B689B6B022B0DDC7B689B6BDAB27B68D6
S31520003D701A776D2387F844307B689B6BDBB287F814
S31520003D80453034E0002387F85F3030E0164B1A4682
S31520003D900449054802F038FE29E000BFD545002039
S31520003DA00896002077730020909B0020494300202E
S31520003DB0089B00201496002095420020349600206F
S31520003DC03C960020EC9A0020749500204096002016
S31520003DD0D93F00204C960020154300205C960020F9
S31520003DE0D1420020649600206C96002000BF97F8F0
S31520003DF05F30002B16D007F140031A460C490D48B8
S31520003E0002F002FE97F844301A4607F10C030A49DD
S31520003E10184604F0B5FC07F10C031A460749084872
S31520003E2002F0F2FD002318466037BD4680BD00BF74
S31520003E3063780020B09F002094960020777300209E
S31520003E40909B002080B584B002AF786039607B6893
S31520003E505B69002B15D07B685A6C3B6813445A4229
S31520003E6003F01F0302F01F0258BF53427A685364BF
S31520003E707B68986801230093044B7A68002102F03E
S31520003E8025FD002318460837BD4680BD453E002047
S31520003E9080B485B000AF786039600123FB603B6851
S31520003EA0002B47D17B68DB681D2B41D801A252F835
S31520003EB023F000BF2D3F0020313F0020313F00205E
S31520003EC0313F00202D3F0020313F0020313F002090
S31520003ED0313F00202D3F0020313F0020313F002080
S31520003EE02D3F0020313F0020313F0020313F002070
S31520003EF0313F0020313F0020313F0020313F00205C
S31520003F00313F0020313F0020313F0020313F00204B
S31520003F10313F0020313F0020313F00202D3F00203F
S31520003F20313F0020313F00202D3F0020012330E08B
S31520003F3000232EE03B68042B22D17B68DB680B2B09
S31520003F401CD801A252F823F0793F00207D3F0020A3
S31520003F507D3F00207D3F0020793F00207D3F0020CF
S31520003F607D3F00207D3F0020793F00207D3F0020BF
S31520003F707D3F0020793F002001230AE0002308E04E
S31520003F807B68DB68082B01D00B2B01D1012300E0D5
S31520003F90002318461437BD465DF8047B704780B56C
S31520003FA084B002AF786039600021094800F0C5FF6F
S31520003FB07B689B68642202FB03F000230093054B79
S31520003FC07A680A2102F082FC00BF0837BD4680BD10
S31520003FD030A000209F3F002080B584B002AF7860DB
S31520003FE03960174B1A461749174802F00DFD002372
S31520003FF00093164B164A0021002002F067FC7B68CE
S315200040005B69002B17D17B6801225A617B680022ED
S315200040109A61104B1A460B490B4802F0F5FC012118
S315200040207868FFF70FFF002300930B4B7A68002177
S31520004030002002F04BFC002318460837BD4680BD01
S31520004040A896002077730020909B00209F3F002099
S3152000405044A00020B49600205D40002080B58EB09C
S3152000406002AF7860396000233B777B681B7F7B77C4
S315200040700223BB77732387F82030002387F821306B
S315200040807B685B69002B4ED07B68DB68202B02D1D6
S315200040907B680022DA607B68DB68574A52F8233057
S315200040A0002B02D0022B07D00BE07B689B68DA0F2F
S315200040B013445B10FB6208E07B689B685B00FB6235
S315200040C003E07B689B68FB6200BF7B68DB684B4A2A
S315200040D052F823207B681B6913440A33484A52F856
S315200040E02330BB62BA6A4749474802F08DFC7B6899
S315200040F09B69002B04D100224449434802F084FCEA
S31520004100FB6AA3F59C500838012300933F4B3E4A97
S315200041100A2102F0DBFB002300933D4B7A680A213B
S31520004120F86A02F0D3FB7B68DB6B002B45D07B68FB
S315200041301B6C022B41DC7B68DB687A68D26B93FBB5
S31520004140F2F102FB01F29B1A002B36D17B68DB6869
S31520004150002B32D07B681B6CDBB287F821307B6862
S315200041601B6C5A1C7B681A642A4B1A462A492B4810
S3152000417002F04AFC97F8213030331A46284927485E
S3152000418002F042FC0A222649244802F03DFC7B68C4
S31520004190DA6807F108032349184604F0F1FA07F113
S315200041A008031A461C491D4802F02EFC07F11C0381
S315200041B01A461D491D4802F027FC7B68DB6C002B44
S315200041C010D07B68DB6B19467868FFF761FE0346E3
S315200041D0002B07D000230093154B7A68002164201A
S315200041E002F074FB7B68DB685A1C7B68DA6000236C
S315200041F018463037BD4680BD8C9300200C93002096
S31520004200A89200203D470020EC9A0020EF4600208F
S315200042105D400020C896002077730020909B0020E8
S31520004220CB730020D896002063780020B09F002012
S315200042303542002080B588B002AF786039607B684F
S315200042401B7F7B7300233B730223BB7374233B7456
S315200042507B68DB6CDBB27B7407F10C031A460A49D8
S315200042600A4802F0D1FB7B68DB6C0093084B7A6826
S315200042700021002002F02AFB7B680022DA6400235A
S3152000428018461837BD4680BD63780020B09F0020B1
S315200042905544002080B582B000AF78603960012295
S315200042A009490A4802F0B0FB7B689B69002B0CBFCA
S315200042B001230023DBB21A467B689A610023184645
S315200042C00837BD4680BD00BFEF460020EC9A00208F
S315200042D080B582B000AF786039607B680022DA60F2
S315200042E001220749074802F08FFB074B1A46074968
S315200042F0074802F089FB002318460837BD4680BDD3
S31520004300EF460020EC9A0020E896002077730020E4
S31520004310909B002080B582B000AF786039607B68C2
S3152000432000225A61054B1A460549064802F06CFBE5
S31520004330002318460837BD4680BD00BF04970020DD
S3152000434077730020909B002080B483B000AF786004
S3152000435039607B685B69002B08D13B68002B05DB45
S315200043603B68082B02DC7B683A68DA630023184630
S315200043700C37BD465DF8047B704780B588B000AF2A
S31520004380786039607B689A682A4B83FB021359133D
S31520004390D317CB1A284901FB03F3D31A274A82FBEA
S315200043A003125211DB17D31A4EF6602292FBF3F357
S315200043B0FB6107F10803FA692149184604F0E0F980
S315200043C007F108031A461F491F4802F01DFB1F4B21
S315200043D01A461C491C4802F017FBFA693B6813442D
S315200043E0FB61FB693B2B01DC3C23FB6107F10803E6
S315200043F0FA691349184604F0C3F907F108031A4667
S315200044001049114802F000FB114B1A460D490E487F
S3152000441002F0FAFA4EF66022FB6992FBF3F364226D
S3152000442002FB03F27B689A60002318462037BD46BC
S3152000443080BD00BF89B5F814A08601001F85EB5109
S315200044407495002077730020909B002014970020FD
S315200044502C97002080B58AB000AF7860396007F1CC
S315200044600C033A682749184604F08AF9264B1A465F
S315200044702649274802F0C8FA07F10C031A462349B1
S31520004480234802F0C1FA3B683B2B04DD3B68F02B46
S3152000449001DC3B687B624EF660227B6A92FBF3F37B
S315200044A0642202FB03F27B689A607B689A68194B48
S315200044B083FB02135913D317CB1A174901FB03F3B6
S315200044C0D31A164A82FB03125211DB17D31A3B6208
S315200044D007F10C033A6A1249184604F051F907F11C
S315200044E00C031A4609490A4802F08EFA0D4B1A4661
S315200044F00649074802F088FA002318462837BD46A1
S3152000450080BD00BF409700204C9700207773002085
S31520004510909B002089B5F814A08601001F85EB51D9
S31520004520589700203C96002080B586B000AF786072
S3152000453039607B681B697B617A693B681344052B6C
S3152000454002DC3B68002B08DC7A693B68134413F1D4
S31520004550050F12DB3B68002B0FDA7A693B681344A0
S315200045607B617B69052B01DD05237B617B6913F16B
S31520004570050F02DA6FF004037B6107F108037A69FD
S315200045800F49184604F0FCF80E4B1A460E490F4800
S3152000459002F03AFA07F108031A460B490B4802F0D3
S315200045A033FA0B4B1A460849084802F02DFA7B6865
S315200045B07A691A61002318461837BD4680BD00BFA8
S315200045C0749500206497002077730020909B00202C
S315200045D07897002080B483B000AF786039603B685C
S315200045E0052B06DC3B6813F1050F02DB7B683A6876
S315200045F01A61002318460C37BD465DF8047B7047C8
S3152000460080B483B000AF786039607B681B69184638
S315200046100C37BD465DF8047B704780B582B000AF8D
S31520004620786039603B68142B0BDC3B68002B08DB79
S315200046307B683A681A61064B1A460649064802F014
S31520004640E3F97B681B6918460837BD4680BD00BF65
S315200046507C97002077730020909B002080B483B045
S3152000466000AF786039607B681B69132B0CDC7B6894
S315200046701A693B681A447B681A617B681B69142B8C
S3152000468002DD7B6814221A617B681B6918460C3789
S31520004690BD465DF8047B704780B483B000AF786078
S315200046A039607B681B69132B0CDC7B681A693B68B5
S315200046B0D21A7B681A617B681B69002B02DC7B6837
S315200046C001221A617B681B6918460C37BD465DF8C6
S315200046D0047B704780B483B000AF786039607B6814
S315200046E09B6918460C37BD465DF8047B704780B43D
S315200046F083B000AF786039607B683A689A617B68DE
S315200047009B6918460C37BD465DF8047B704780B41C
S3152000471083B000AF786039603B68074A82FB03129A
S315200047209210DB17D21A7B68DA60002318460C3702
S31520004730BD465DF8047B70476766666680B483B0C5
S3152000474000AF786039603B68074A82FB03129210FB
S31520004750DB17D21A7B68DA60002318460C37BD4671
S315200047605DF8047B704700BF6766666680B584B0D7
S3152000477002AF786039607B689B69002B14D17B6817
S315200047801B7A002B0CBF01230023DBB2DAB27B6835
S315200047901B69DBB212FB03F3DAB27B681A72104B89
S315200047A01B687A68127A1A707B685B69002B09D0BD
S315200047B07B68D868002300930A4B7A680A2102F0A6
S315200047C085F808E07B68D86800230093054B7A6853
S315200047D0002102F07BF8002318460837BD4680BD2D
S315200047E0689A00206D47002080B483B000AF7860BF
S315200047F039607B685B6918460C37BD465DF8047BDB
S31520004800704780B483B000AF786039607B685B699D
S31520004810002B0CBF01230023DBB21A467B685A61AA
S315200048207B685B6918460C37BD465DF8047B70478C
S3152000483080B483B000AF786039607B689B68184687
S315200048400C37BD465DF8047B704780B483B000AF5B
S31520004850786039607B689B6803F5FA727B689A609A
S31520004860002318460C37BD465DF8047B704780B49C
S3152000487083B000AF786039607B689B68B3F57A7F38
S3152000488005DD7B689B68A3F5FA727B689A60002336
S3152000489018460C37BD465DF8047B704780B483B05C
S315200048A000AF786039607B68DB68002B0CBF012382
S315200048B00023DBB21A467B68DA607B68DB68184621
S315200048C00C37BD465DF8047B704780B58CB002AFCF
S315200048D07860396002F0B6F903465B4A82FB031220
S315200048E05113DA178A1A594901FB02F29A1A13460A
S315200048F09B0013445B003B627B681B69B3F5FA7F20
S3152000490049DA00237B6202E07B6A01337B627B68A3
S315200049109B687A6A9A42F7DB02F094F903464A4A80
S3152000492082FB03125113DA178A1A484901FB02F255
S315200049309A1A13469B0013445B00FB61FA693B6A93
S31520004940D31A3B627B689B693A6A9A4202DD7B688E
S315200049503A6A9A617B685A693B6A1A447B685A614B
S315200049607B681B695A1C7B681A617B68DB68002B95
S3152000497008D000230093364B7A688221822001F0EA
S31520004980A5FF5CE000230093314B7A68002182204A
S3152000499001F09CFF53E07B685A6907F108032D4913
S315200049A0184603F0EDFE2C4B1A462C492C4802F0F3
S315200049B02BF807F108031A462849294802F024F85B
S315200049C00A222849264802F01FF87B689A6907F1CF
S315200049D008032049184603F0D3FE234B1A461F49E5
S315200049E01F4802F011F807F108031A461B491C4814
S315200049F002F00AF80A221B49194802F005F87B68DA
S31520004A005B691A4A82FB03125211DB17D21A07F18D
S31520004A1008031049184603F0B3FE154B1A460F49F2
S31520004A200F4801F0F1FF07F108031A460B490C481D
S31520004A3001F0EAFF0A220B49094801F0E5FF0023AD
S31520004A4018462837BD4680BD89B5F814A0860100D2
S31520004A50CB4800208C970020909700207773002069
S31520004A60909B0020CB730020A8970020D34D621086
S31520004A70C097002080B584B002AF786039600022EC
S31520004A800F49104801F0C0FF00220F490F4801F0DE
S31520004A90BBFF0F48FEF7C2FA00220E490E4801F06E
S31520004AA0B3FF322300930D4B0D4A0021002001F065
S31520004AB00DFF0C4B01221A6400BF0837BD4680BD8E
S31520004AC065750020B09F0020D1720020909B0020A9
S31520004AD098A10020C94E002030A000206D4700205C
S31520004AE0EC9A0020089B002080B500AF00220B49DD
S31520004AF00B4802F07DF901220A490B4802F078F9A9
S31520004B0002220A490A4802F073F9002209490A4892
S31520004B1002F0D2F90023184680BD00BF01740020A0
S31520004B20909B002025760020B09F0020594F002022
S31520004B3030A00020754A0020089B0020314900E063
S31520004B403149EFF3088020ED108A7246EFF3118386
S31520004B5020E9FC0F2D4FD7F80080C8F800001EE092
S31520004B60084601F07BFA2A4801F078FA294801F034
S31520004B7075FAD8F8040001F0BBFA274801F06EFA5E
S31520004B80D8F8000001F086FA244801F067FAD8F830
S31520004B900000006801F07EFA1D4801F05FFADFF898
S31520004BA08080D8F80080C7F8008018E01D4801F002
S31520004BB055FAD8F8040001F09BFA1B4801F04EFA8A
S31520004BC0D8F8000001F066FA144801F047FAD8F840
S31520004BD00000006801F05EFA0D4801F03FFA134A22
S31520004BE0536843F00063536000BFD8F80000B0E874
S31520004BF0FC0F83F311889646B0EC108A80F3088860
S31520004C007047000054A0002065A00020F8A00020D6
S31520004C10D5A0002086A000209EA00020A6A00020CF
S31520004C2054A20020AFA00020C4A0002000ED00E088
S31520004C3080B400AF094B00221A60084B00225A604C
S31520004C40064B00229A60054B0022DA60034B044A89
S31520004C505A6100BFBD465DF8047B7047003C0140A9
S31520004C60FFFF7F0080B485B000AF78600023FB6033
S31520004C70344BFB607B689B79002B4FD0314B1A68F5
S31520004C807B681B68DB432F4913400B602D4B5A680A
S31520004C907B681B68DB432B4913404B607B681B7981
S31520004CA01A46FB681344FB60FB6819687B681A6820
S31520004CB0FB680A431A60234B9A687B681B68DB43B0
S31520004CC0204913408B601F4BDA687B681B68DB43E7
S31520004CD01C491340CB607B685B79102B0ED1194B96
S31520004CE09A687B681B68174913438B60154BDA68F3
S31520004CF07B681B6813491343CB601DE0114BFB6097
S31520004D007B685B791A46FB681344FB60FB6819686D
S31520004D107B681A68FB680A431A600DE07B681B797A
S31520004D201A46FB681344FB60FB6819687B681B689E
S31520004D30DA43FB680A401A6000BF1437BD465DF8A7
S31520004D40047B7047003C014080B483B000AF78609C
S31520004D507B6800221A607B6800221A717B680C220D
S31520004D605A717B6800229A7100BF0C37BD465DF8E8
S31520004D70047B704780B483B000AF7860054B1A6916
S31520004D8004497B6813430B6100BF0C37BD465DF8B1
S31520004D90047B7047003C014080B485B000AF78604A
S31520004DA00023FB73084B5A697B681340002B02D003
S31520004DB00123FB7301E00023FB73FB7B18461437AA
S31520004DC0BD465DF8047B7047003C014080B483B04B
S31520004DD000AF7860044A7B68536100BF0C37BD463C
S31520004DE05DF8047B704700BF003C014080B485B06D
S31520004DF000AF78600023FB73084B5A697B68134029
S31520004E00002B02D00123FB7301E00023FB73FB7B05
S31520004E1018461437BD465DF8047B7047003C0140B8
S31520004E2080B483B000AF7860044A7B68536100BFCA
S31520004E300C37BD465DF8047B704700BF003C01403F
S31520004E4080B483B000AF0346FB71FB7903F01F03E8
S31520004E50012202FA03F1064A97F907305B0942F864
S31520004E60231000BF0C37BD465DF8047B704700BF9A
S31520004E7000E100E080B483B000AF03463960FB71E7
S31520004E8097F90730002B0BDA3B68DAB20C49FB792D
S31520004E9003F00F03043B1201D2B20B441A7609E049
S31520004EA03B68DAB2074997F907301201D2B20B44B0
S31520004EB083F8002300BF0C37BD465DF8047B70479E
S31520004EC000ED00E000E100E080B582B000AF786040
S31520004ED03960002201210748FDF7F6FD022117203F
S31520004EE0FFF7C8FF1720FFF7ABFF00BF0837BD4607
S31520004EF080BD00BF0004024080B582B000AF78605C
S31520004F0039607B689B6880211846FDF771FD034652
S31520004F1018460837BD4680BD80B582B000AF7860A0
S31520004F2039607B689B683A68D2B201211846FDF742
S31520004F30CBFD00BF0837BD4680BD80B582B000AF2F
S31520004F40786039607B689B6801211846FDF7E3FD90
S31520004F5000BF0837BD4680BD80B584B002AF7860FB
S31520004F6039608020FFF742FF0346012B15D18020B0
S31520004F70FFF756FF7B68DB68002B11D07B68DA6869
S31520004F807B681969002300930B460021002001F05D
S31520004F909DFC064B01221A6002E0054801F05EF8EE
S31520004FA0002318460837BD4680BD00BF78A10020E3
S31520004FB0D897002080B582B000AF78607B680E4A13
S31520004FC093420AD101214FF0007003F077F90021B6
S31520004FD04FF0007003F072F909E001214FF0806074
S31520004FE003F06CF900214FF0806003F067F900BFF1
S31520004FF00837BD4680BD00BF0064004080B485B040
S3152000500000AF786039600023FB730023BB607B68A8
S315200050101B6823F002027B681A607B681B6843F0DA
S3152000502001027B681A6002E0BB680133BB607B68C3
S315200050305B6803F00103012B04D0BB684FF6FF72B7
S315200050409342F1D17B685B6803F00103012B02D008
S315200050500023FB739CE03B689B79012B06D17B6880
S315200050601B6843F080027B681A6005E07B681B683A
S3152000507023F080027B681A603B68DB79012B06D11E
S315200050807B681B6843F040027B681A6005E07B68FA
S315200050901B6823F040027B681A603B681B7A012B51
S315200050A006D17B681B6843F020027B681A6005E006
S315200050B07B681B6823F020027B681A603B685B7A5A
S315200050C0012B06D17B681B6843F010027B681A60AF
S315200050D005E07B681B6823F010027B681A603B683A
S315200050E09B7A012B06D17B681B6843F008027B68FC
S315200050F01A6005E07B681B6823F008027B681A604B
S315200051003B68DB7A012B06D17B681B6843F00402DF
S315200051107B681A6005E07B681B6823F004027B68C5
S315200051201A603B689B789A073B68DB781B061A4314
S315200051303B681B791B041A433B685B791B051A43A2
S315200051403B681B88013B1A437B68DA617B681B68D6
S3152000515023F001027B681A600023BB6002E0BB6873
S315200051600133BB607B685B6803F00103012B04D12C
S31520005170BB684FF6FF729342F1D17B685B6803F000
S315200051800103012B02D10023FB7301E00123FB73F2
S31520005190FB7B18461437BD465DF8047B704790B4F8
S315200051A084B000AF78600023FB607B689B7A1A4648
S315200051B001239340FB605A4BD3F80032584A43F000
S315200051C00103C2F80032564BD3F81C22FB68DB439E
S315200051D053491340C1F81C327B681B7B002B29D115
S315200051E04F4BD3F80C22FB68DB434D491340C1F8E3
S315200051F00C327B68DB881B047A685288144648493F
S315200052007A68927A104643EA040200F1480341F88C
S3152000521033207B689B881B047A6812881446404991
S315200052207A68927A104643EA040200F14803DB00CA
S315200052300B445A607B681B7B012B28D1384BD3F853
S315200052400C223749FB681343C1F80C327B681B8854
S315200052501B047A685288144631497A68927A104635
S3152000526043EA040200F1480341F833207B689B8817
S315200052701B047A68D288144629497A68927A10469D
S3152000528043EA040200F14803DB000B445A607B68C2
S31520005290DB7A002B09D1224BD3F80422FB68DB43AF
S315200052A01F491340C1F8043207E01D4BD3F80422EE
S315200052B01B49FB681343C1F804327B681B89002B0A
S315200052C008D1174BD3F81422FB68DB43144913404B
S315200052D0C1F814327B681B89012B07D1104BD3F8F8
S315200052E014220F49FB681343C1F814327B685B7B99
S315200052F0012B07D10A4BD3F81C220949FB6813431B
S31520005300C1F81C32064BD3F80032054A23F00103BC
S31520005310C2F8003200BF1037BD4690BC704700BFB0
S315200053200064004080B483B000AF78607B680022C0
S315200053309A717B680022DA717B6800221A727B6878
S3152000534000225A727B6800229A727B680022DA72E7
S315200053507B6800229A707B680022DA707B680322C1
S315200053601A717B6802225A717B6801221A8000BF5B
S315200053700C37BD465DF8047B704780B483B000AF20
S315200053800346FB71144BD3F80032134A43F0010352
S31520005390C2F80032104BD3F800320F4A23F47C5364
S315200053A023F00E03C2F800320B4BD3F80022FB7910
S315200053B01B0209491343C1F80032074BD3F80032C8
S315200053C0054A23F00103C2F8003200BF0C37BD4660
S315200053D05DF8047B704700BF0064004080B483B052
S315200053E000AF78600B46FB70FB78002B06D07B68FD
S315200053F01B6843F480327B681A6005E07B681B6873
S3152000540023F480327B681A6000BF0C37BD465DF8F6
S31520005410047B704780B483B000AF78600B46FB7086
S31520005420FB78002B1ED07B681B6843F080027B68CC
S315200054301A607B68D3F8843143F480727B68C3F8A2
S3152000544084217B68D3F8943143F480727B68C3F857
S3152000545094217B68D3F8A43143F480727B68C3F827
S31520005460A4211DE07B681B6823F080027B681A60FC
S315200054707B68D3F8843123F480727B68C3F8842157
S315200054807B68D3F8943123F480727B68C3F8942127
S315200054907B68D3F8A43123F480727B68C3F8A421F7
S315200054A000BF0C37BD465DF8047B704780B485B0DD
S315200054B000AF786039600023FB737B689B6803F03C
S315200054C08063B3F1806F02D10023FB7315E07B6804
S315200054D09B6803F00063B3F1006F02D10123FB73D5
S315200054E00BE07B689B6803F08053B3F1805F02D1A9
S315200054F00223FB7301E00423FB73FB7B042B00F0E8
